{
  "contractName": "LivestockManager",
  "abi": [
    {
      "anonymous": false,
      "inputs": [
        {
          "indexed": false,
          "internalType": "address",
          "name": "ownerId",
          "type": "address"
        },
        {
          "indexed": false,
          "internalType": "uint256",
          "name": "lsId",
          "type": "uint256"
        },
        {
          "indexed": false,
          "internalType": "bool",
          "name": "gender",
          "type": "bool"
        },
        {
          "indexed": false,
          "internalType": "bool",
          "name": "sick",
          "type": "bool"
        },
        {
          "indexed": false,
          "internalType": "string",
          "name": "action",
          "type": "string"
        },
        {
          "indexed": false,
          "internalType": "string",
          "name": "description",
          "type": "string"
        }
      ],
      "name": "AddHealth",
      "type": "event"
    },
    {
      "anonymous": false,
      "inputs": [
        {
          "indexed": false,
          "internalType": "address",
          "name": "ownerId",
          "type": "address"
        },
        {
          "indexed": false,
          "internalType": "uint256",
          "name": "lsId",
          "type": "uint256"
        },
        {
          "indexed": false,
          "internalType": "bool",
          "name": "gender",
          "type": "bool"
        },
        {
          "indexed": false,
          "internalType": "uint16",
          "name": "weight",
          "type": "uint16"
        },
        {
          "indexed": false,
          "internalType": "uint16",
          "name": "length",
          "type": "uint16"
        },
        {
          "indexed": false,
          "internalType": "uint16",
          "name": "heartGrith",
          "type": "uint16"
        },
        {
          "indexed": false,
          "internalType": "string",
          "name": "description",
          "type": "string"
        }
      ],
      "name": "AddWeight",
      "type": "event"
    },
    {
      "anonymous": false,
      "inputs": [
        {
          "indexed": false,
          "internalType": "address",
          "name": "actor",
          "type": "address"
        },
        {
          "indexed": false,
          "internalType": "string",
          "name": "description",
          "type": "string"
        }
      ],
      "name": "RegisterCowshed",
      "type": "event"
    },
    {
      "anonymous": false,
      "inputs": [
        {
          "indexed": false,
          "internalType": "address",
          "name": "ownerId",
          "type": "address"
        },
        {
          "indexed": false,
          "internalType": "uint256",
          "name": "lsId",
          "type": "uint256"
        },
        {
          "indexed": false,
          "internalType": "bool",
          "name": "gender",
          "type": "bool"
        },
        {
          "indexed": false,
          "internalType": "enum LivestockManager.Race",
          "name": "race",
          "type": "uint8"
        },
        {
          "indexed": false,
          "internalType": "string",
          "name": "description",
          "type": "string"
        }
      ],
      "name": "RegisterLivestock",
      "type": "event"
    },
    {
      "anonymous": false,
      "inputs": [
        {
          "indexed": false,
          "internalType": "address",
          "name": "actor",
          "type": "address"
        },
        {
          "indexed": false,
          "internalType": "address",
          "name": "coswhedAddress",
          "type": "address"
        },
        {
          "indexed": false,
          "internalType": "bool",
          "name": "status",
          "type": "bool"
        },
        {
          "indexed": false,
          "internalType": "string",
          "name": "description",
          "type": "string"
        }
      ],
      "name": "ToggleCowshed",
      "type": "event"
    },
    {
      "anonymous": false,
      "inputs": [
        {
          "indexed": false,
          "internalType": "uint256",
          "name": "lsId",
          "type": "uint256"
        },
        {
          "indexed": false,
          "internalType": "address",
          "name": "_from",
          "type": "address"
        },
        {
          "indexed": false,
          "internalType": "address",
          "name": "_to",
          "type": "address"
        },
        {
          "indexed": false,
          "internalType": "enum LivestockManager.State",
          "name": "state",
          "type": "uint8"
        },
        {
          "indexed": false,
          "internalType": "string",
          "name": "description",
          "type": "string"
        }
      ],
      "name": "Transfer",
      "type": "event"
    },
    {
      "anonymous": false,
      "inputs": [
        {
          "indexed": false,
          "internalType": "uint256",
          "name": "id",
          "type": "uint256"
        },
        {
          "indexed": false,
          "internalType": "address",
          "name": "actor",
          "type": "address"
        },
        {
          "indexed": false,
          "internalType": "bool",
          "name": "status",
          "type": "bool"
        },
        {
          "indexed": false,
          "internalType": "string",
          "name": "description",
          "type": "string"
        }
      ],
      "name": "livestockStatus",
      "type": "event"
    },
    {
      "inputs": [],
      "name": "admin",
      "outputs": [
        {
          "internalType": "address",
          "name": "",
          "type": "address"
        }
      ],
      "stateMutability": "view",
      "type": "function"
    },
    {
      "inputs": [],
      "name": "checkRole",
      "outputs": [
        {
          "internalType": "uint256",
          "name": "",
          "type": "uint256"
        }
      ],
      "stateMutability": "view",
      "type": "function"
    },
    {
      "inputs": [
        {
          "internalType": "address",
          "name": "_address",
          "type": "address"
        }
      ],
      "name": "checkUser",
      "outputs": [
        {
          "internalType": "bool",
          "name": "",
          "type": "bool"
        }
      ],
      "stateMutability": "view",
      "type": "function"
    },
    {
      "inputs": [
        {
          "internalType": "uint256",
          "name": "",
          "type": "uint256"
        }
      ],
      "name": "cowshedAddress",
      "outputs": [
        {
          "internalType": "address",
          "name": "",
          "type": "address"
        }
      ],
      "stateMutability": "view",
      "type": "function"
    },
    {
      "inputs": [
        {
          "internalType": "address",
          "name": "",
          "type": "address"
        }
      ],
      "name": "cowsheds",
      "outputs": [
        {
          "internalType": "address",
          "name": "ownerId",
          "type": "address"
        },
        {
          "internalType": "uint256",
          "name": "timeUpdated",
          "type": "uint256"
        },
        {
          "internalType": "uint256",
          "name": "timeCreated",
          "type": "uint256"
        },
        {
          "internalType": "bool",
          "name": "status",
          "type": "bool"
        }
      ],
      "stateMutability": "view",
      "type": "function"
    },
    {
      "inputs": [
        {
          "internalType": "address",
          "name": "_address",
          "type": "address"
        }
      ],
      "name": "getRole",
      "outputs": [
        {
          "internalType": "uint8",
          "name": "",
          "type": "uint8"
        }
      ],
      "stateMutability": "view",
      "type": "function"
    },
    {
      "inputs": [],
      "name": "globalLSCount",
      "outputs": [
        {
          "internalType": "uint256",
          "name": "",
          "type": "uint256"
        }
      ],
      "stateMutability": "view",
      "type": "function"
    },
    {
      "inputs": [
        {
          "internalType": "uint256",
          "name": "",
          "type": "uint256"
        },
        {
          "internalType": "uint256",
          "name": "",
          "type": "uint256"
        }
      ],
      "name": "hRecords",
      "outputs": [
        {
          "internalType": "address",
          "name": "actor",
          "type": "address"
        },
        {
          "internalType": "uint256",
          "name": "lsId",
          "type": "uint256"
        },
        {
          "internalType": "bool",
          "name": "sick",
          "type": "bool"
        },
        {
          "internalType": "bytes32",
          "name": "description",
          "type": "bytes32"
        },
        {
          "internalType": "bytes32",
          "name": "action",
          "type": "bytes32"
        },
        {
          "internalType": "uint256",
          "name": "timeRecord",
          "type": "uint256"
        },
        {
          "internalType": "uint256",
          "name": "timeCreated",
          "type": "uint256"
        }
      ],
      "stateMutability": "view",
      "type": "function"
    },
    {
      "inputs": [
        {
          "internalType": "address",
          "name": "_address",
          "type": "address"
        }
      ],
      "name": "isAdmin",
      "outputs": [
        {
          "internalType": "bool",
          "name": "",
          "type": "bool"
        }
      ],
      "stateMutability": "view",
      "type": "function"
    },
    {
      "inputs": [
        {
          "internalType": "address",
          "name": "",
          "type": "address"
        }
      ],
      "name": "livestockCounts",
      "outputs": [
        {
          "internalType": "uint256",
          "name": "",
          "type": "uint256"
        }
      ],
      "stateMutability": "view",
      "type": "function"
    },
    {
      "inputs": [
        {
          "internalType": "uint256",
          "name": "",
          "type": "uint256"
        }
      ],
      "name": "livestockOwner",
      "outputs": [
        {
          "internalType": "address",
          "name": "",
          "type": "address"
        }
      ],
      "stateMutability": "view",
      "type": "function"
    },
    {
      "inputs": [
        {
          "internalType": "uint256",
          "name": "",
          "type": "uint256"
        }
      ],
      "name": "livestockRace",
      "outputs": [
        {
          "internalType": "enum LivestockManager.Race",
          "name": "",
          "type": "uint8"
        }
      ],
      "stateMutability": "view",
      "type": "function"
    },
    {
      "inputs": [
        {
          "internalType": "uint256",
          "name": "",
          "type": "uint256"
        },
        {
          "internalType": "uint256",
          "name": "",
          "type": "uint256"
        }
      ],
      "name": "livestockStates",
      "outputs": [
        {
          "internalType": "enum LivestockManager.State",
          "name": "",
          "type": "uint8"
        }
      ],
      "stateMutability": "view",
      "type": "function"
    },
    {
      "inputs": [
        {
          "internalType": "uint256",
          "name": "",
          "type": "uint256"
        },
        {
          "internalType": "uint256",
          "name": "",
          "type": "uint256"
        }
      ],
      "name": "livestockTransfers",
      "outputs": [
        {
          "internalType": "address",
          "name": "",
          "type": "address"
        }
      ],
      "stateMutability": "view",
      "type": "function"
    },
    {
      "inputs": [
        {
          "internalType": "uint256",
          "name": "",
          "type": "uint256"
        }
      ],
      "name": "livestocks",
      "outputs": [
        {
          "internalType": "uint256",
          "name": "farmIndex",
          "type": "uint256"
        },
        {
          "internalType": "uint256",
          "name": "lsId",
          "type": "uint256"
        },
        {
          "internalType": "uint256",
          "name": "fatherId",
          "type": "uint256"
        },
        {
          "internalType": "uint256",
          "name": "motherId",
          "type": "uint256"
        },
        {
          "internalType": "uint256",
          "name": "birthDay",
          "type": "uint256"
        },
        {
          "internalType": "bytes32",
          "name": "earTag",
          "type": "bytes32"
        },
        {
          "internalType": "bool",
          "name": "gender",
          "type": "bool"
        },
        {
          "internalType": "uint256",
          "name": "wrCount",
          "type": "uint256"
        },
        {
          "internalType": "uint256",
          "name": "hrCount",
          "type": "uint256"
        },
        {
          "internalType": "uint256",
          "name": "transferCount",
          "type": "uint256"
        },
        {
          "internalType": "uint256",
          "name": "stateCount",
          "type": "uint256"
        },
        {
          "internalType": "bool",
          "name": "status",
          "type": "bool"
        },
        {
          "internalType": "uint256",
          "name": "timeUpdated",
          "type": "uint256"
        },
        {
          "internalType": "uint256",
          "name": "timeCreated",
          "type": "uint256"
        }
      ],
      "stateMutability": "view",
      "type": "function"
    },
    {
      "inputs": [
        {
          "internalType": "address",
          "name": "_address",
          "type": "address"
        },
        {
          "internalType": "string",
          "name": "_name",
          "type": "string"
        },
        {
          "internalType": "uint8",
          "name": "_role",
          "type": "uint8"
        }
      ],
      "name": "registerUser",
      "outputs": [],
      "stateMutability": "nonpayable",
      "type": "function"
    },
    {
      "inputs": [
        {
          "internalType": "address",
          "name": "_address",
          "type": "address"
        }
      ],
      "name": "toggleUser",
      "outputs": [],
      "stateMutability": "nonpayable",
      "type": "function"
    },
    {
      "inputs": [
        {
          "internalType": "address",
          "name": "",
          "type": "address"
        }
      ],
      "name": "users",
      "outputs": [
        {
          "internalType": "address",
          "name": "userAddress",
          "type": "address"
        },
        {
          "internalType": "string",
          "name": "name",
          "type": "string"
        },
        {
          "internalType": "enum UserManager.Role",
          "name": "role",
          "type": "uint8"
        },
        {
          "internalType": "uint256",
          "name": "timeUpdated",
          "type": "uint256"
        },
        {
          "internalType": "uint256",
          "name": "timeCreated",
          "type": "uint256"
        },
        {
          "internalType": "bool",
          "name": "active",
          "type": "bool"
        }
      ],
      "stateMutability": "view",
      "type": "function"
    },
    {
      "inputs": [
        {
          "internalType": "uint256",
          "name": "",
          "type": "uint256"
        },
        {
          "internalType": "uint256",
          "name": "",
          "type": "uint256"
        }
      ],
      "name": "wRecords",
      "outputs": [
        {
          "internalType": "address",
          "name": "actor",
          "type": "address"
        },
        {
          "internalType": "uint256",
          "name": "lsId",
          "type": "uint256"
        },
        {
          "internalType": "uint16",
          "name": "weight",
          "type": "uint16"
        },
        {
          "internalType": "uint16",
          "name": "length",
          "type": "uint16"
        },
        {
          "internalType": "uint16",
          "name": "heartGrith",
          "type": "uint16"
        },
        {
          "internalType": "uint256",
          "name": "timeRecord",
          "type": "uint256"
        },
        {
          "internalType": "uint256",
          "name": "timeCreated",
          "type": "uint256"
        }
      ],
      "stateMutability": "view",
      "type": "function"
    },
    {
      "inputs": [
        {
          "internalType": "address",
          "name": "_address",
          "type": "address"
        },
        {
          "internalType": "string",
          "name": "_name",
          "type": "string"
        },
        {
          "internalType": "uint8",
          "name": "_role",
          "type": "uint8"
        }
      ],
      "name": "registerCowshed",
      "outputs": [],
      "stateMutability": "nonpayable",
      "type": "function"
    },
    {
      "inputs": [
        {
          "internalType": "address",
          "name": "_address",
          "type": "address"
        }
      ],
      "name": "toggleCowshed",
      "outputs": [],
      "stateMutability": "nonpayable",
      "type": "function"
    },
    {
      "inputs": [
        {
          "internalType": "uint256",
          "name": "_fatherId",
          "type": "uint256"
        },
        {
          "internalType": "uint256",
          "name": "_motherId",
          "type": "uint256"
        },
        {
          "internalType": "uint256",
          "name": "_birthDay",
          "type": "uint256"
        },
        {
          "internalType": "string",
          "name": "_eartag",
          "type": "string"
        },
        {
          "internalType": "bool",
          "name": "_gender",
          "type": "bool"
        },
        {
          "internalType": "uint8",
          "name": "_race",
          "type": "uint8"
        },
        {
          "internalType": "uint16",
          "name": "_weight",
          "type": "uint16"
        },
        {
          "internalType": "uint16",
          "name": "_length",
          "type": "uint16"
        },
        {
          "internalType": "uint16",
          "name": "_heartGrith",
          "type": "uint16"
        },
        {
          "internalType": "uint256",
          "name": "_time",
          "type": "uint256"
        }
      ],
      "name": "registerLivestock",
      "outputs": [],
      "stateMutability": "nonpayable",
      "type": "function"
    },
    {
      "inputs": [
        {
          "internalType": "uint256",
          "name": "_lsId",
          "type": "uint256"
        },
        {
          "internalType": "uint16",
          "name": "_weight",
          "type": "uint16"
        },
        {
          "internalType": "uint16",
          "name": "_length",
          "type": "uint16"
        },
        {
          "internalType": "uint16",
          "name": "_heartGrith",
          "type": "uint16"
        },
        {
          "internalType": "uint256",
          "name": "_time",
          "type": "uint256"
        }
      ],
      "name": "registerWRecord",
      "outputs": [],
      "stateMutability": "nonpayable",
      "type": "function"
    },
    {
      "inputs": [
        {
          "internalType": "uint256",
          "name": "_lsId",
          "type": "uint256"
        },
        {
          "internalType": "string",
          "name": "_description",
          "type": "string"
        },
        {
          "internalType": "string",
          "name": "_action",
          "type": "string"
        },
        {
          "internalType": "uint256",
          "name": "_time",
          "type": "uint256"
        },
        {
          "internalType": "bool",
          "name": "_sick",
          "type": "bool"
        }
      ],
      "name": "registerHRecord",
      "outputs": [],
      "stateMutability": "nonpayable",
      "type": "function"
    },
    {
      "inputs": [
        {
          "internalType": "uint256",
          "name": "_id",
          "type": "uint256"
        }
      ],
      "name": "getLivestock",
      "outputs": [
        {
          "internalType": "uint256",
          "name": "_lsId",
          "type": "uint256"
        },
        {
          "internalType": "uint256",
          "name": "_fatherId",
          "type": "uint256"
        },
        {
          "internalType": "uint256",
          "name": "_motherId",
          "type": "uint256"
        },
        {
          "internalType": "uint256",
          "name": "_birthDay",
          "type": "uint256"
        },
        {
          "internalType": "bytes32",
          "name": "_eartag",
          "type": "bytes32"
        },
        {
          "internalType": "bool",
          "name": "_gender",
          "type": "bool"
        },
        {
          "internalType": "bool",
          "name": "_status",
          "type": "bool"
        },
        {
          "internalType": "enum LivestockManager.Race",
          "name": "_race",
          "type": "uint8"
        },
        {
          "internalType": "uint256",
          "name": "_timeUpdated",
          "type": "uint256"
        },
        {
          "internalType": "uint256",
          "name": "_timeCreated",
          "type": "uint256"
        }
      ],
      "stateMutability": "view",
      "type": "function"
    },
    {
      "inputs": [
        {
          "internalType": "uint256",
          "name": "_id",
          "type": "uint256"
        }
      ],
      "name": "getLastWR",
      "outputs": [
        {
          "internalType": "uint256",
          "name": "_lsId",
          "type": "uint256"
        },
        {
          "internalType": "uint16",
          "name": "_weight",
          "type": "uint16"
        },
        {
          "internalType": "uint16",
          "name": "_length",
          "type": "uint16"
        },
        {
          "internalType": "uint16",
          "name": "_heartGrith",
          "type": "uint16"
        },
        {
          "internalType": "uint256",
          "name": "_timeCreated",
          "type": "uint256"
        }
      ],
      "stateMutability": "view",
      "type": "function"
    },
    {
      "inputs": [
        {
          "internalType": "address",
          "name": "_from",
          "type": "address"
        }
      ],
      "name": "getFarmLS",
      "outputs": [
        {
          "internalType": "uint256[]",
          "name": "_ls",
          "type": "uint256[]"
        }
      ],
      "stateMutability": "view",
      "type": "function"
    },
    {
      "inputs": [
        {
          "internalType": "uint256",
          "name": "_id",
          "type": "uint256"
        },
        {
          "internalType": "address",
          "name": "_from",
          "type": "address"
        },
        {
          "internalType": "address",
          "name": "_to",
          "type": "address"
        }
      ],
      "name": "transfer",
      "outputs": [],
      "stateMutability": "nonpayable",
      "type": "function"
    },
    {
      "inputs": [
        {
          "internalType": "uint256",
          "name": "_id",
          "type": "uint256"
        },
        {
          "internalType": "address",
          "name": "_to",
          "type": "address"
        }
      ],
      "name": "changeState",
      "outputs": [],
      "stateMutability": "nonpayable",
      "type": "function"
    },
    {
      "inputs": [
        {
          "internalType": "uint256",
          "name": "_id",
          "type": "uint256"
        }
      ],
      "name": "changeStatus",
      "outputs": [],
      "stateMutability": "nonpayable",
      "type": "function"
    },
    {
      "inputs": [
        {
          "internalType": "string",
          "name": "source",
          "type": "string"
        }
      ],
      "name": "stringToBytes32",
      "outputs": [
        {
          "internalType": "bytes32",
          "name": "result",
          "type": "bytes32"
        }
      ],
      "stateMutability": "pure",
      "type": "function"
    },
    {
      "inputs": [
        {
          "internalType": "bytes32",
          "name": "_bytes32",
          "type": "bytes32"
        }
      ],
      "name": "bytes32ToString",
      "outputs": [
        {
          "internalType": "string",
          "name": "",
          "type": "string"
        }
      ],
      "stateMutability": "pure",
      "type": "function"
    }
  ],
  "bytecode": "0x6080604052600060025534801561001557600080fd5b50600080546001600160a01b0319163317905561277e806100376000396000f3fe608060405234801561001057600080fd5b50600436106101f05760003560e01c80638474d88e1161010f578063b774006c116100a2578063e8025d7711610071578063e8025d7714610cf5578063e8100d5b14610d12578063f851a44014610d35578063fe81685e14610d3d576101f0565b8063b774006c14610b90578063cadb389514610be0578063ccb570e314610c1d578063cfb5192814610c51576101f0565b8063a3387b18116100de578063a3387b1814610a3d578063a82b5a9614610a63578063a87430ba14610a9c578063b32b03e014610b73576101f0565b80638474d88e1461093257806385df4658146109705780639201de55146109a357806396f8478014610a35576101f0565b80635d5d466c1161018757806371ef40c31161015657806371ef40c31461075c578063730b34921461078257806373601b641461080357806381efad2414610879576101f0565b80635d5d466c146104cf578063641af5941461055c5780636534565b1461063e5780636b5fffd9146106f7576101f0565b80632d21bd9d116101c35780632d21bd9d146102c75780633803238a146102ed578063442767331461042657806347731bdc14610462576101f0565b80630482aa82146101f55780630e3f442d1461020f5780631e9d48cf1461026757806324d7806c146102a1575b600080fd5b6101fd610d69565b60408051918252519081900360200190f35b6102356004803603602081101561022557600080fd5b50356001600160a01b0316610d7c565b604080516001600160a01b03909516855260208501939093528383019190915215156060830152519081900360800190f35b61028d6004803603602081101561027d57600080fd5b50356001600160a01b0316610db2565b604080519115158252519081900360200190f35b61028d600480360360208110156102b757600080fd5b50356001600160a01b0316610dd7565b6101fd600480360360208110156102dd57600080fd5b50356001600160a01b0316610dfd565b610424600480360360a081101561030357600080fd5b81359190810190604081016020820135600160201b81111561032457600080fd5b82018360208201111561033657600080fd5b803590602001918460018302840111600160201b8311171561035757600080fd5b91908080601f0160208091040260200160405190810160405280939291908181526020018383808284376000920191909152509295949360208101935035915050600160201b8111156103a957600080fd5b8201836020820111156103bb57600080fd5b803590602001918460018302840111600160201b831117156103dc57600080fd5b91908080601f01602080910402602001604051908101604052809392919081815260200183838082843760009201919091525092955050823593505050602001351515610e0f565b005b61044c6004803603602081101561043c57600080fd5b50356001600160a01b03166110b9565b6040805160ff9092168252519081900360200190f35b6104856004803603604081101561047857600080fd5b50803590602001356110e3565b604080516001600160a01b039098168852602088019690965261ffff9485168787015292841660608701529216608085015260a084019190915260c0830152519081900360e00190f35b6104ec600480360360208110156104e557600080fd5b503561113f565b604080519e8f5260208f019d909d528d8d019b909b5260608d019990995260808c019790975260a08b019590955292151560c08a015260e089019190915261010088015261012087015261014086015215156101608501526101808401526101a083015251908190036101c00190f35b610424600480360361014081101561057357600080fd5b81359160208101359160408201359190810190608081016060820135600160201b8111156105a057600080fd5b8201836020820111156105b257600080fd5b803590602001918460018302840111600160201b831117156105d357600080fd5b91908080601f01602080910402602001604051908101604052809392919081815260200183838082843760009201919091525092955050505080351515915060ff6020820135169061ffff604082013581169160608101358216916080820135169060a001356111b4565b6104246004803603606081101561065457600080fd5b6001600160a01b038235169190810190604081016020820135600160201b81111561067e57600080fd5b82018360208201111561069057600080fd5b803590602001918460018302840111600160201b831117156106b157600080fd5b91908080601f0160208091040260200160405190810160405280939291908181526020018383808284376000920191909152509295505050903560ff1691506114c39050565b61071a6004803603604081101561070d57600080fd5b508035906020013561168d565b604080516001600160a01b0390981688526020880196909652931515868601526060860192909252608085015260a084015260c0830152519081900360e00190f35b6104246004803603602081101561077257600080fd5b50356001600160a01b03166116e3565b61079f6004803603602081101561079857600080fd5b50356118a5565b604051808b81526020018a8152602001898152602001888152602001878152602001861515815260200185151581526020018460068111156107dd57fe5b81526020018381526020018281526020019a505050505050505050505060405180910390f35b6108296004803603602081101561081957600080fd5b50356001600160a01b0316611907565b60408051602080825283518183015283519192839290830191858101910280838360005b8381101561086557818101518382015260200161084d565b505050509050019250505060405180910390f35b6104246004803603606081101561088f57600080fd5b6001600160a01b038235169190810190604081016020820135600160201b8111156108b957600080fd5b8201836020820111156108cb57600080fd5b803590602001918460018302840111600160201b831117156108ec57600080fd5b91908080601f0160208091040260200160405190810160405280939291908181526020018383808284376000920191909152509295505050903560ff1691506119799050565b61094f6004803603602081101561094857600080fd5b5035611a99565b6040518082600681111561095f57fe5b815260200191505060405180910390f35b6109936004803603604081101561098657600080fd5b5080359060200135611aae565b6040518082600381111561095f57fe5b6109c0600480360360208110156109b957600080fd5b5035611ace565b6040805160208082528351818301528351919283929083019185019080838360005b838110156109fa5781810151838201526020016109e2565b50505050905090810190601f168015610a275780820380516001836020036101000a031916815260200191505b509250505060405180910390f35b6101fd611bdb565b61042460048036036020811015610a5357600080fd5b50356001600160a01b0316611be1565b610a8060048036036020811015610a7957600080fd5b5035611c31565b604080516001600160a01b039092168252519081900360200190f35b610ac260048036036020811015610ab257600080fd5b50356001600160a01b0316611c4c565b60405180876001600160a01b0316815260200180602001866003811115610ae557fe5b81526020018581526020018481526020018315158152602001828103825287818151815260200191508051906020019080838360005b83811015610b33578181015183820152602001610b1b565b50505050905090810190601f168015610b605780820380516001836020036101000a031916815260200191505b5097505050505050505060405180910390f35b610a8060048036036020811015610b8957600080fd5b5035611d1e565b610bad60048036036020811015610ba657600080fd5b5035611d45565b6040805195865261ffff948516602087015292841685840152921660608401526080830191909152519081900360a00190f35b610424600480360360a0811015610bf657600080fd5b5080359061ffff602082013581169160408101358216916060820135169060800135611d9f565b61042460048036036060811015610c3357600080fd5b508035906001600160a01b0360208201358116916040013516612028565b6101fd60048036036020811015610c6757600080fd5b810190602081018135600160201b811115610c8157600080fd5b820183602082011115610c9357600080fd5b803590602001918460018302840111600160201b83111715610cb457600080fd5b91908080601f016020809104026020016040519081016040528093929190818152602001838380828437600092019190915250929550612399945050505050565b61042460048036036020811015610d0b57600080fd5b50356123b7565b610a8060048036036040811015610d2857600080fd5b50803590602001356124f6565b610a8061251c565b61042460048036036040811015610d5357600080fd5b50803590602001356001600160a01b031661252b565b6000610d74336110b9565b60ff16905090565b600360208190526000918252604090912080546002820154928201546004909201546001600160a01b0390911692919060ff1684565b6001600160a01b03811660009081526001602052604090206005015460ff165b919050565b600080546001600160a01b03838116911614610df4576000610df7565b60015b92915050565b60086020526000908152604090205481565b60001985016000908152600760205260409020546001600160a01b0316338114610e70576040805162461bcd60e51b815260206004820152600d60248201526c42756b616e2070656d696c696b60981b604482015290519081900360640190fd5b6000600560006001890381526020019081526020016000206008015490506040518060e00160405280336001600160a01b031681526020018881526020018415158152602001610ebf88612399565b8152602001610ecd87612399565b815260200185815260200143815250600a600060018a038152602001908152602001600020600083815260200190815260200160002060008201518160000160006101000a8154816001600160a01b0302191690836001600160a01b031602179055506020820151816001015560408201518160020160006101000a81548160ff021916908315150217905550606082015181600301556080820151816004015560a0820151816005015560c0820151816006015590505060006005600060018a038152602001908152602001600020905080600801600081548092919060010191905055504381600c01819055507f80cc500da9d4b036099bcfe9588787a1ea1ae789ede1bdcbc7bce2234377434133898360060160009054906101000a900460ff16878a60405180866001600160a01b03168152602001858152602001841515815260200183151581526020018060200180602001838103835284818151815260200191508051906020019080838360005b83811015611059578181015183820152602001611041565b50505050905090810190601f1680156110865780820380516001836020036101000a031916815260200191505b508381038252602e8152602001806126d9602e913960400197505050505050505060405180910390a15050505050505050565b6001600160a01b03811660009081526001602052604081206002015460ff166003811115610df757fe5b6009602090815260009283526040808420909152908252902080546001820154600283015460038401546004909401546001600160a01b0390931693919261ffff80831693620100008404821693600160201b90049091169187565b600560208190526000918252604090912080546001820154600283015460038401546004850154958501546006860154600787015460088801546009890154600a8a0154600b8b0154600c8c0154600d909c01549a9c999b989a979998969760ff96871697959694959394929391909216918e565b6111bd336110b9565b60ff16156111ff576040805162461bcd60e51b815260206004820152600a6024820152693737ba103330b936b2b960b11b604482015290519081900360640190fd5b336000908152600360205260409020600481015460ff161515600114611265576040805162461bcd60e51b8152602060048201526016602482015275546964616b206d656d696c696b69206b616e64616e6760501b604482015290519081900360640190fd5b60028054600081815260056020526040808220600193840193018390558354825280822084018f9055835482528082206003018e905592548152919091206004018a90556112b289612399565b60028054600090815260056020818152604080842083019590955583548352848320600690810180548f151560ff1991821617909155855485528685206001600990910181905586548652878620600b01805490921681179091558554855286852043600d90910181905586548652878620600c90810191909155338087526003855288872083015488548852958552888720959095558982018054808401825590875284872001899055848652600884528786208054909201909155855485526007835286852080546001600160a01b0319908116861790915595548552825285842084805290915293909120805490921617905560ff8816908111156113b657fe5b60066000600254815260200190815260200160002060006101000a81548160ff021916908360068111156113e657fe5b02179055506113f5813361252b565b6114028187878787611d9f565b6002805460010190557f59728d79cf3e5cb55c04b4a04aaee85f847fd1f8e8f66e459d9e6aa19f7d2f3a33828a60ff8b16600681111561143e57fe5b60405180856001600160a01b03168152602001848152602001831515815260200182600681111561146b57fe5b815290810360409081016020830152601a818301527f5361706920626572686173696c20646974616d6261686b616e2e00000000000060608301525190819003608001945092505050a1505050505050505050505050565b6114ce838383611979565b6001600160a01b0383166000908152600160205260409020600581015460ff16611537576040805162461bcd60e51b815260206004820152601560248201527420b73230903a34b230b5903a32b93230b33a30b91760591b604482015290519081900360640190fd5b6001600160a01b0384166000908152600360205260409020600481015460ff161561159e576040805162461bcd60e51b815260206004820152601260248201527125b0b73230b7339039bab230b41030b2309760711b604482015290519081900360640190fd5b6001600160a01b038516600081815260036020818152604080842080546001600160a01b0319908116871782554360028301819055948201949094556004908101805460ff191660019081179091558154908101825594527f8a35acfbc15ff81a39ae7d344fd709f28e8600b4aa8c65c6b64bfe7fe36bd19b909301805490921690931790558051338152918201819052601a828201527f4b616e64616e672074656c616820646974616d6261686b616e2e0000000000006060830152517f79eb59fc8b8b3040445bf628719d14beee1af14a5b8f6ae176fe9781409aabc29181900360800190a15050505050565b600a60209081526000928352604080842090915290825290208054600182015460028301546003840154600485015460058601546006909601546001600160a01b0390951695939460ff90931693919290919087565b6116ec81611be1565b6001600160a01b03811660009081526003602090815260408083208151928301909152918152600482015460ff16156117325760048201805460ff191690556000611745565b60048201805460ff191660019081179091555b50600482015460ff161515600114611792575060408051808201909152601c81527f4b616e64616e672074656c61682064696e6f6e616b7469666b616e2e000000006020820152806117c9565b5060408051808201909152601981527f4b616e64616e672074656c6168206469616b7469666b616e2e000000000000006020820152805b507f420f45df8ecab7343d32f39ce42ed9a5e035f4982e589915e48a97a07d75785b33848460040160009054906101000a900460ff168460405180856001600160a01b03168152602001846001600160a01b03168152602001831515815260200180602001828103825283818151815260200191508051906020019080838360005b8381101561186357818101518382015260200161184b565b50505050905090810190601f1680156118905780820380516001836020036101000a031916815260200191505b509550505050505060405180910390a1505050565b60001901600090815260056020818152604080842060018101546002820154600383015460048401549684015460068086015497529490972054600b840154600c850154600d9095015493999298979660ff9081169591811694921692909190565b6001600160a01b038116600090815260036020908152604091829020600181018054845181850281018501909552808552606094929383018282801561196c57602002820191906000526020600020905b815481526020019060010190808311611958575b5050505050915050919050565b6001600160a01b0383166000908152600160205260409020600581015460ff16156119a357600080fd5b6040518060c00160405280856001600160a01b031681526020018481526020018360ff1660038111156119d257fe5b60038111156119dd57fe5b8152436020808301829052604080840192909252600160609093018390526001600160a01b03888116600090815284835292909220845181546001600160a01b03191693169290921782558381015180519293611a4293908501929190910190612645565b50604082015160028201805460ff19166001836003811115611a6057fe5b0217905550606082015160038201556080820151600482015560a0909101516005909101805460ff191691151591909117905550505050565b60066020526000908152604090205460ff1681565b600b60209081526000928352604080842090915290825290205460ff1681565b606060005b60208160ff16108015611b015750828160ff1660208110611af057fe5b1a60f81b6001600160f81b03191615155b15611b0e57600101611ad3565b60608160ff1667ffffffffffffffff81118015611b2a57600080fd5b506040519080825280601f01601f191660200182016040528015611b55576020820181803683370190505b509050600091505b60208260ff16108015611b8b5750838260ff1660208110611b7a57fe5b1a60f81b6001600160f81b03191615155b15611bd457838260ff1660208110611b9f57fe5b1a60f81b818360ff1681518110611bb257fe5b60200101906001600160f81b031916908160001a905350600190910190611b5d565b9392505050565b60025481565b6001600160a01b0381166000908152600160205260409020600581015460ff1615611c195760058101805460ff191690556000611c2c565b60058101805460ff191660019081179091555b505050565b6007602052600090815260409020546001600160a01b031681565b600160208181526000928352604092839020805481840180548651600261010097831615979097026000190190911695909504601f81018590048502860185019096528585526001600160a01b0390911694919392909190830182828015611cf55780601f10611cca57610100808354040283529160200191611cf5565b820191906000526020600020905b815481529060010190602001808311611cd857829003601f168201915b505050600284015460038501546004860154600590960154949560ff9283169591945092501686565b60048181548110611d2b57fe5b6000918252602090912001546001600160a01b0316905081565b60001990810160009081526005602090815260408083206007015460098352818420940183529290522060018101546002820154600490920154909261ffff80841693620100008104821693600160201b90910490911691565b60001985016000908152600760205260409020546001600160a01b0316338114611e00576040805162461bcd60e51b815260206004820152600d60248201526c42756b616e2070656d696c696b60981b604482015290519081900360640190fd5b6000600560006001890381526020019081526020016000206007015490506040518060e00160405280336001600160a01b031681526020018881526020018761ffff1681526020018661ffff1681526020018561ffff168152602001848152602001438152506009600060018a038152602001908152602001600020600083815260200190815260200160002060008201518160000160006101000a8154816001600160a01b0302191690836001600160a01b031602179055506020820151816001015560408201518160020160006101000a81548161ffff021916908361ffff16021790555060608201518160020160026101000a81548161ffff021916908361ffff16021790555060808201518160020160046101000a81548161ffff021916908361ffff16021790555060a0820151816003015560c0820151816004015590505060006005600060018a038152602001908152602001600020905080600701600081548092919060010191905055504381600c01819055507fd9ae346ba3e96d80a8c72266031a3594f89ac7b19edae12d7a13acd2a703a92433898360060160009054906101000a900460ff168a8a8a60405180876001600160a01b0316815260200186815260200185151581526020018461ffff1681526020018361ffff1681526020018261ffff168152602001806020018281038252602e8152602001806126d9602e913960400197505050505050505060405180910390a15050505050505050565b60001983016000908152600760205260409020546001600160a01b031633811461208a576040805162461bcd60e51b815260206004820152600e60248201526d213ab5b0b7103832b6b4b634b59760911b604482015290519081900360640190fd5b600019840160008181526005602081815260408084206009810154600c8452828620818752845291852080546001600160a01b0319166001600160a01b038a1617905594909352528154600b83015491929160ff16612130576040805162461bcd60e51b815260206004820152601c60248201527f546964616b20746572646170617420686577616e207465726e616b2e00000000604482015290519081900360640190fd5b6001600160a01b0385166000908152600360205260409020600481015460ff16612195576040805162461bcd60e51b8152602060048201526011602482015270546964616b20616461206b616e64616e6760781b604482015290519081900360640190fd5b6001600160a01b0387166000908152600360205260409020600481015460ff166121fa576040805162461bcd60e51b8152602060048201526011602482015270546964616b20616461206b616e64616e6760781b604482015290519081900360640190fd5b612203876125d2565b6001808301805486556009860180548301905580548083018255600091825260208083209091018c90556001600160a01b038a1680835260088252604080842080549095019094556000198d018352600790915291902080546001600160a01b0319169091179055612275898861252b565b600181018054600019810190811061228957fe5b90600052602060002001548160010184815481106122a357fe5b600091825260209091200155600181018054806122bc57fe5b6000828152602080822083016000199081018390559283019093556001600160a01b03808c16808352600885526040808420805486019055938e018352600b8552838320600a8a015484528552918390205483518e8152948501929092528a16918301919091527fccc9668de0bd7a1fed027ede406b6b5ad1ca3f2ca0c74d5771d72d3214c9b9c1918b918b918b9160ff16906060810182600381111561235f57fe5b81526020018060200182810382526021815260200180612707602191396040019550505050505060405180910390a1505050505050505050565b805160009082906123ae575060009050610dd2565b50506020015190565b6123c0336110b9565b60ff1615612402576040805162461bcd60e51b815260206004820152600a6024820152693737ba103330b936b2b960b11b604482015290519081900360640190fd5b60001981016000908152600760205260409020546001600160a01b0316338114612464576040805162461bcd60e51b815260206004820152600e60248201526d213ab5b0b7103832b6b4b634b59760911b604482015290519081900360640190fd5b60001982016000908152600560209081526040808320600b8101805460ff19169055815186815233938101849052918201849052608060608301818152602191840182905291947f9fc51fc9b779d8fd58764f2ede9aa8b75c148a17f309bd27ab96bc07849f12fd9488949093919290919060a0830190612728823960400194505050505060405180910390a1505050565b600c6020908152600092835260408084209091529082529020546001600160a01b031681565b6000546001600160a01b031681565b60001982016000908152600560205260408120600a810154909161254e846110b9565b9050600060ff82166125645760005b9050612587565b8160ff166001141561257757600161255d565b8160ff1660021415612587575060025b60001986016000908152600b602090815260408083208684529091529020805482919060ff191660018360038111156125bc57fe5b0217905550505050600a01805460010190555050565b6001600160a01b038116600090815260016020526040902060028082015460ff1660038111156125fe57fe5b1415612641576040805162461bcd60e51b815260206004820152600d60248201526c20b630b6b0ba1039b0b630b41760991b604482015290519081900360640190fd5b5050565b828054600181600116156101000203166002900490600052602060002090601f016020900481019282601f1061268657805160ff19168380011785556126b3565b828001600101855582156126b3579182015b828111156126b3578251825591602001919060010190612698565b506126bf9291506126c3565b5090565b5b808211156126bf57600081556001016126c456fe5269776179617420626572617420626164616e207361706920626572686173696c20646974616d6261686b616e2e486577616e207465726e616b20626572686173696c206469207472616e7366657253746174757320686577616e207465726e616b2074656c6168206469756261682ea2646970667358221220d3ab0c6c05f5a29d39f90be4ad811ab2ab099ed9471f6db2af67c77a4532411964736f6c634300060c0033",
  "immutableReferences": {},
  "source": "// SPDX-License-Identifier: GPL-3.0\r\n\r\npragma solidity >=0.5.0 <0.7.0;\r\n\r\n/**\r\n * @title UserManager\r\n * @dev Mengontrol role dari user\r\n */\r\ncontract UserManager {\r\n    address public admin;\r\n\r\n    enum Role {\r\n        farmer,\r\n        stocker,\r\n        butcher,\r\n        retailer\r\n    }\r\n\r\n    struct User {\r\n        address userAddress;\r\n        string name;\r\n        Role role;\r\n        uint256 timeUpdated;\r\n        uint256 timeCreated;\r\n        bool active;\r\n    }\r\n\r\n    mapping(address => User) public users;\r\n\r\n    constructor() public {\r\n        admin = msg.sender;\r\n    }\r\n\r\n    function registerUser(\r\n        address _address,\r\n        string memory _name,\r\n        uint8 _role\r\n    ) public {\r\n        User storage _user = users[_address];\r\n\r\n        require(!_user.active);\r\n\r\n        users[_address] = User({\r\n            userAddress: _address,\r\n            name: _name,\r\n            role: Role(_role),\r\n            timeUpdated: block.number,\r\n            timeCreated: block.number,\r\n            active: true\r\n        });\r\n    }\r\n\r\n    function toggleUser(address _address) public {\r\n        User storage _user = users[_address];\r\n\r\n        (_user.active == false) ? _user.active = true : _user.active = false;\r\n    }\r\n\r\n    function getRole(address _address) public view returns (uint8) {\r\n        return uint8(users[_address].role);\r\n    }\r\n\r\n    function checkRole() public view returns (uint256) {\r\n        return getRole(msg.sender);\r\n    }\r\n\r\n    function checkUser(address _address) public view returns (bool) {\r\n        return users[_address].active;\r\n    }\r\n\r\n    function isAdmin(address _address) public view returns (bool) {\r\n        return (_address == admin) ? true : false;\r\n    }\r\n\r\n    modifier onlyFarmer() {\r\n        require(getRole(msg.sender) == 0, \"not farmer\");\r\n        _;\r\n    }\r\n\r\n    modifier onlyStocker() {\r\n        require(getRole(msg.sender) == 1, \"not stocker\");\r\n        _;\r\n    }\r\n\r\n    modifier onlyButcher() {\r\n        require(getRole(msg.sender) == 2, \"not butcher\");\r\n        _;\r\n    }\r\n}\r\n\r\n/**\r\n * @title LivestockManager\r\n * @dev Mengontrol pembuatan livestock dan distribusi\r\n */\r\ncontract LivestockManager is UserManager {\r\n    struct Cowshed {\r\n        address ownerId;\r\n        //uint256 livestockCount;\r\n        uint256[] lsId;\r\n        uint256 timeUpdated;\r\n        uint256 timeCreated;\r\n        bool status;\r\n    }\r\n\r\n    enum State {\r\n        farmer,\r\n        stocker,\r\n        butcher,\r\n        beef\r\n    }\r\n    enum Race {\r\n        bali,\r\n        madura,\r\n        brahman,\r\n        PO,\r\n        brahmanCross,\r\n        ongole,\r\n        aceh\r\n    }\r\n\r\n    struct Livestock {\r\n        uint256 farmIndex;\r\n        uint256 lsId;\r\n        uint256 fatherId;\r\n        uint256 motherId;\r\n        uint256 birthDay;\r\n        bytes32 earTag;\r\n        bool gender;\r\n        uint256 wrCount;\r\n        uint256 hrCount;\r\n        uint256 transferCount;\r\n        uint256 stateCount;\r\n        bool status;\r\n        uint256 timeUpdated;\r\n        uint256 timeCreated;\r\n    }\r\n\r\n    struct WeightRecord {\r\n        address actor;\r\n        uint256 lsId;\r\n        uint16 weight;\r\n        uint16 length;\r\n        uint16 heartGrith;\r\n        uint256 timeRecord;\r\n        uint256 timeCreated;\r\n    }\r\n\r\n    struct HealthRecord {\r\n        address actor;\r\n        uint256 lsId;\r\n        bool sick;\r\n        bytes32 description;\r\n        bytes32 action;\r\n        uint256 timeRecord;\r\n        uint256 timeCreated;\r\n    }\r\n\r\n    /// @dev Untuk mengetahui total semua hewan ternak yang terdapat pada blockchain.\r\n    uint256 public globalLSCount = 0;\r\n\r\n    /// @dev Menyimpan data struct Cowshed berdasarkan address yang dimiliki.\r\n    mapping(address => Cowshed) public cowsheds;\r\n    address[] public cowshedAddress;\r\n\r\n    /// @dev Meyimpan data scruct livestock berdarsarkan id.\r\n    mapping(uint256 => Livestock) public livestocks;\r\n\r\n    /// @dev Menyimpan data livestock dan rasnya.\r\n    mapping(uint256 => Race) public livestockRace;\r\n\r\n    /// @dev Untuk mengetahui hewan ternak dimiliki oleh owner.\r\n    mapping(uint256 => address) public livestockOwner;\r\n\r\n    /// @dev Untuk mengetahui banyaknya hewan ternak yang dimiliki oleh owner.\r\n    mapping(address => uint256) public livestockCounts;\r\n\r\n    //WeightRecord[][] public wRecords;\r\n    /// @dev Menyimpan data stuct WeightRecord atau riwayat berat badan berdasarkan\r\n    ///  id dari hewan ternak.\r\n    mapping(uint256 => mapping(uint256 => WeightRecord)) public wRecords;\r\n    //uint256 wRecordsCount;\r\n\r\n    /// @dev Menyimpan data stuct HealthRecord atau riwayat kesehatan berdasarkan\r\n    ///   id dari hewan ternak.\r\n    mapping(uint256 => mapping(uint256 => HealthRecord)) public hRecords;\r\n\r\n    /// @dev Menyimpan state dari hewan ternak berdasarkan id hewan ternak.\r\n    ///   Hal ini dgunakan untuk mengetahui tahap yang dilalui hewan ternak.\r\n    mapping(uint256 => mapping(uint256 => State)) public livestockStates;\r\n\r\n    /// @dev Menyimpan address pemilik dari hewan ternak. Sehingga ketika dipanggil\r\n    ///   riwayat pemilik dari hewan ternak dapat dilihat.\r\n    mapping(uint256 => mapping(uint256 => address)) public livestockTransfers;\r\n\r\n    event RegisterCowshed(address actor, string description);\r\n\r\n    event RegisterLivestock(\r\n        address ownerId,\r\n        uint256 lsId,\r\n        bool gender,\r\n        Race race,\r\n        string description\r\n    );\r\n\r\n    event ToggleCowshed(\r\n        address actor,\r\n        address coswhedAddress,\r\n        bool status,\r\n        string description\r\n    );\r\n\r\n    event AddWeight(\r\n        address ownerId,\r\n        uint256 lsId,\r\n        bool gender,\r\n        uint16 weight,\r\n        uint16 length,\r\n        uint16 heartGrith,\r\n        string description\r\n    );\r\n\r\n    event AddHealth(\r\n        address ownerId,\r\n        uint256 lsId,\r\n        bool gender,\r\n        bool sick,\r\n        string action,\r\n        string description\r\n    );\r\n\r\n    event Transfer(\r\n        uint256 lsId,\r\n        address _from,\r\n        address _to,\r\n        State state,\r\n        string description\r\n    );\r\n\r\n    event livestockStatus(\r\n        uint256 id,\r\n        address actor,\r\n        bool status,\r\n        string description\r\n    );\r\n\r\n    function registerCowshed(\r\n        address _address,\r\n        string memory _name,\r\n        uint8 _role\r\n    ) public {\r\n        registerUser(_address, _name, _role);\r\n\r\n        User storage _user = users[_address];\r\n        require(_user.active, \"Anda tidak terdaftar.\");\r\n\r\n        Cowshed storage _cowshed = cowsheds[_address];\r\n        require(!_cowshed.status, \"Kandang sudah ada.\");\r\n\r\n        cowsheds[_address].ownerId = _address;\r\n        cowsheds[_address].timeUpdated = block.number;\r\n        cowsheds[_address].timeCreated = block.number;\r\n        cowsheds[_address].status = true;\r\n\r\n        cowshedAddress.push(_address);\r\n\r\n        emit RegisterCowshed(msg.sender, \"Kandang telah ditambahkan.\");\r\n    }\r\n\r\n    function toggleCowshed(address _address) public {\r\n        toggleUser(_address);\r\n\r\n        Cowshed storage _cowshed = cowsheds[_address];\r\n        string memory desc = \"\";\r\n\r\n        (_cowshed.status == false)\r\n            ? _cowshed.status = true\r\n            : _cowshed.status = false;\r\n\r\n        (_cowshed.status == true)\r\n            ? desc = \"Kandang telah diaktifkan.\"\r\n            : desc = \"Kandang telah dinonaktifkan.\";\r\n\r\n        emit ToggleCowshed(msg.sender, _address, _cowshed.status, desc);\r\n    }\r\n\r\n    function registerLivestock(\r\n        uint256 _fatherId,\r\n        uint256 _motherId,\r\n        uint256 _birthDay,\r\n        string memory _eartag,\r\n        bool _gender,\r\n        uint8 _race,\r\n        uint16 _weight,\r\n        uint16 _length,\r\n        uint16 _heartGrith,\r\n        uint256 _time\r\n    ) public onlyFarmer {\r\n        Cowshed storage _cowshed = cowsheds[msg.sender];\r\n        require(_cowshed.status == true, \"Tidak memiliki kandang\");\r\n\r\n        uint256 newId = globalLSCount + 1;\r\n\r\n        livestocks[globalLSCount].lsId = newId;\r\n        livestocks[globalLSCount].fatherId = _fatherId;\r\n        livestocks[globalLSCount].motherId = _motherId;\r\n        livestocks[globalLSCount].birthDay = _birthDay;\r\n        livestocks[globalLSCount].earTag = stringToBytes32(_eartag);\r\n        livestocks[globalLSCount].gender = _gender;\r\n        livestocks[globalLSCount].transferCount = 1;\r\n        livestocks[globalLSCount].status = true;\r\n        livestocks[globalLSCount].timeCreated = block.number;\r\n        livestocks[globalLSCount].timeUpdated = block.number;\r\n        livestocks[globalLSCount].farmIndex = cowsheds[msg.sender].lsId.length;\r\n\r\n        _cowshed.lsId.push(newId);\r\n\r\n        livestockCounts[msg.sender]++;\r\n        livestockOwner[globalLSCount] = msg.sender;\r\n        livestockTransfers[globalLSCount][0] = msg.sender;\r\n        livestockRace[globalLSCount] = Race(_race);\r\n\r\n        changeState(newId, msg.sender);\r\n\r\n        registerWRecord(newId, _weight, _length, _heartGrith, _time);\r\n\r\n        globalLSCount++;\r\n\r\n        emit RegisterLivestock(\r\n            msg.sender,\r\n            newId,\r\n            _gender,\r\n            Race(_race),\r\n            \"Sapi berhasil ditambahkan.\"\r\n        );\r\n    }\r\n\r\n    function registerWRecord(\r\n        uint256 _lsId,\r\n        uint16 _weight,\r\n        uint16 _length,\r\n        uint16 _heartGrith,\r\n        uint256 _time\r\n    ) public {\r\n        address owner = livestockOwner[_lsId - 1];\r\n\r\n        require(owner == msg.sender, \"Bukan pemilik\");\r\n\r\n        uint256 x = livestocks[_lsId - 1].wrCount;\r\n        wRecords[_lsId - 1][x] = WeightRecord({\r\n            actor: msg.sender,\r\n            lsId: _lsId,\r\n            weight: _weight,\r\n            length: _length,\r\n            heartGrith: _heartGrith,\r\n            timeRecord: _time,\r\n            timeCreated: block.number\r\n        });\r\n\r\n        Livestock storage _livestock = livestocks[_lsId - 1];\r\n\r\n        _livestock.wrCount++;\r\n        _livestock.timeUpdated = block.number;\r\n\r\n        emit AddWeight(\r\n            msg.sender,\r\n            _lsId,\r\n            _livestock.gender,\r\n            _weight,\r\n            _length,\r\n            _heartGrith,\r\n            \"Riwayat berat badan sapi berhasil ditambahkan.\"\r\n        );\r\n    }\r\n\r\n    function registerHRecord(\r\n        uint256 _lsId,\r\n        string memory _description,\r\n        string memory _action,\r\n        uint256 _time,\r\n        bool _sick\r\n    ) public {\r\n        address owner = livestockOwner[_lsId - 1];\r\n\r\n        require(owner == msg.sender, \"Bukan pemilik\");\r\n\r\n        uint256 x = livestocks[_lsId - 1].hrCount;\r\n        hRecords[_lsId - 1][x] = HealthRecord({\r\n            actor: msg.sender,\r\n            lsId: _lsId,\r\n            sick: _sick,\r\n            description: stringToBytes32(_description),\r\n            action: stringToBytes32(_action),\r\n            timeRecord: _time,\r\n            timeCreated: block.number\r\n        });\r\n\r\n        Livestock storage _livestock = livestocks[_lsId - 1];\r\n\r\n        _livestock.hrCount++;\r\n        _livestock.timeUpdated = block.number;\r\n\r\n        emit AddHealth(\r\n            msg.sender,\r\n            _lsId,\r\n            _livestock.gender,\r\n            _sick,\r\n            _action,\r\n            \"Riwayat berat badan sapi berhasil ditambahkan.\"\r\n        );\r\n    }\r\n\r\n    function getLivestock(uint256 _id)\r\n        public\r\n        view\r\n        returns (\r\n            uint256 _lsId,\r\n            uint256 _fatherId,\r\n            uint256 _motherId,\r\n            uint256 _birthDay,\r\n            bytes32 _eartag,\r\n            bool _gender,\r\n            bool _status,\r\n            Race _race,\r\n            uint256 _timeUpdated,\r\n            uint256 _timeCreated\r\n        )\r\n    {\r\n        Livestock storage ls = livestocks[_id - 1];\r\n\r\n        _lsId = ls.lsId;\r\n        _fatherId = ls.fatherId;\r\n        _motherId = ls.motherId;\r\n        _birthDay = ls.birthDay;\r\n        _eartag = ls.earTag;\r\n        _gender = ls.gender;\r\n        _race = livestockRace[_id - 1];\r\n        _status = ls.status;\r\n        _timeUpdated = ls.timeUpdated;\r\n        _timeCreated = ls.timeCreated;\r\n    }\r\n\r\n    function getLastWR(uint256 _id)\r\n        public\r\n        view\r\n        returns (\r\n            uint256 _lsId,\r\n            uint16 _weight,\r\n            uint16 _length,\r\n            uint16 _heartGrith,\r\n            uint256 _timeCreated\r\n        )\r\n    {\r\n        uint256 x = livestocks[_id - 1].wrCount;\r\n\r\n        WeightRecord storage wr = wRecords[_id - 1][x - 1];\r\n        _lsId = wr.lsId;\r\n        _weight = wr.weight;\r\n        _length = wr.length;\r\n        _heartGrith = wr.heartGrith;\r\n        _timeCreated = wr.timeCreated;\r\n    }\r\n\r\n    /// @dev getFarmLS digunakan utnuk mecari id livestock yang telah disimpan\r\n    ///   didalam array int lsId. uint256[] memory diperlukan untuk memanggil array.\r\n    /// @param _from merupakan address yang ingin diketahui livestocknya.\r\n    /// @param _ls merupakan retruns yang akan diberikan berupa array.\r\n    function getFarmLS(address _from)\r\n        public\r\n        view\r\n        returns (uint256[] memory _ls)\r\n    {\r\n        Cowshed storage _cowshed = cowsheds[_from];\r\n        _ls = _cowshed.lsId;\r\n    }\r\n\r\n    function excludeRPH(address _address) internal view {\r\n        User storage _user = users[_address];\r\n        require(_user.role != Role(2), \"Alamat salah.\");\r\n    }\r\n\r\n    function transfer(\r\n        uint256 _id,\r\n        address _from,\r\n        address _to\r\n    ) public {\r\n        address owner = livestockOwner[_id - 1];\r\n\r\n        require(owner == msg.sender, \"Bukan pemilik.\");\r\n\r\n        // Tambah transferCount yang terdapat di id livestock yang akan ditransfer.\r\n        uint256 x = livestocks[_id - 1].transferCount;\r\n        livestockTransfers[_id - 1][x] = _to;\r\n\r\n        // Deklarasi livestock untuk diambil index sebelum dihapus.\r\n        Livestock storage _ls = livestocks[_id - 1];\r\n        uint256 index = _ls.farmIndex;\r\n        // Check apakah hewan ternak masih ada atau tidak.\r\n        require(_ls.status, \"Tidak terdapat hewan ternak.\");\r\n\r\n        // Deklarasi _add untuk peternakan yang ingin ditambahkan hewan ternak.\r\n        Cowshed storage _add = cowsheds[_to];\r\n        require(_add.status, \"Tidak ada kandang\");\r\n\r\n        // Deklarasi _remove untuk peternakan yang ingin dikurangi hewan ternaknya.\r\n        Cowshed storage _remove = cowsheds[_from];\r\n        require(_remove.status, \"Tidak ada kandang\");\r\n\r\n        // Alamat yang dituju tidak boleh alamat RPH\r\n        excludeRPH(_to);\r\n\r\n        // Tambah hewan ternak pada address yang dituju.\r\n\r\n        // Ubah farmIndex pada hewan ternak berdasarkan ukuran lsId peternakan.\r\n        _ls.farmIndex = _add.lsId.length;\r\n        // Menambah transferCount untuk iterasi livestockTransfers.\r\n        _ls.transferCount++;\r\n        // Push lsId peternakan dengan id hewan ternak yang ditambahkan.\r\n        _add.lsId.push(_id);\r\n        // Menambahkan kepemilikan hewan ternak yang dimiliki oleh peternak.\r\n        livestockCounts[_to]++;\r\n        // Merubah pemilik hewan ternak ke pemilik yang baru.\r\n        livestockOwner[_id - 1] = _to;\r\n\r\n        // Merubah state hewan ternak sesuai dengan role pemilik.\r\n        changeState(_id, _to);\r\n\r\n        // Kurangi hewan ternak pada address semula.\r\n\r\n        // Memindah isi dari index dengan index terakhir.\r\n        _remove.lsId[index] = _remove.lsId[_remove.lsId.length - 1];\r\n        // Menghapus array di index terakhir.\r\n        _remove.lsId.pop();\r\n        // mengurangi kepemilikan hewan ternak yang dimiliki oleh peternak.\r\n        livestockCounts[_from]--;\r\n\r\n        emit Transfer(\r\n            _id,\r\n            _from,\r\n            _to,\r\n            State(livestockStates[_id - 1][_ls.stateCount]),\r\n            \"Hewan ternak berhasil di transfer\"\r\n        );\r\n    }\r\n\r\n    /// @dev changeState dugunakan untuk merubah sate dari livetock apakah pada\r\n    ///   state farmer (0), stocker (1), dan butcher (2). State tersebut tergantung\r\n    ///   dari role yang dimiliki oleh address.\r\n    /// @param _id merupakan id livestok yang akan diubah.\r\n    /// @param _to merupakan address owner dari livestock tersebut.\r\n    function changeState(uint256 _id, address _to) public {\r\n        Livestock storage _ls = livestocks[_id - 1];\r\n        uint256 x = _ls.stateCount;\r\n\r\n        uint8 role = getRole(_to);\r\n\r\n        State _state;\r\n\r\n        if (role == 0) {\r\n            _state = State(0);\r\n        } else if (role == 1) {\r\n            _state = State(1);\r\n        } else if (role == 2) {\r\n            _state = State(2);\r\n        }\r\n\r\n        livestockStates[_id - 1][x] = _state;\r\n\r\n        _ls.stateCount++;\r\n    }\r\n\r\n    /// @dev changeStatus Digunakan untuk merubah status dari hewan ternak dari true\r\n    ///   menjadi false, atau dari hidup menjadi mati.\r\n    /// @param _id merupakan id dari hewan ternak.\r\n    function changeStatus(uint256 _id) public onlyFarmer {\r\n        address owner = livestockOwner[_id - 1];\r\n\r\n        require(owner == msg.sender, \"Bukan pemilik.\");\r\n\r\n        Livestock storage _ls = livestocks[_id - 1];\r\n        _ls.status = false;\r\n\r\n        emit livestockStatus(\r\n            _id,\r\n            msg.sender,\r\n            false,\r\n            \"Status hewan ternak telah diubah.\"\r\n        );\r\n    }\r\n\r\n    function stringToBytes32(string memory source)\r\n        public\r\n        pure\r\n        returns (bytes32 result)\r\n    {\r\n        bytes memory tempEmptyStringTest = bytes(source);\r\n        if (tempEmptyStringTest.length == 0) {\r\n            return 0x0;\r\n        }\r\n\r\n        assembly {\r\n            result := mload(add(source, 32))\r\n        }\r\n    }\r\n\r\n    function bytes32ToString(bytes32 _bytes32)\r\n        public\r\n        pure\r\n        returns (string memory)\r\n    {\r\n        uint8 i = 0;\r\n        while (i < 32 && _bytes32[i] != 0) {\r\n            i++;\r\n        }\r\n        bytes memory bytesArray = new bytes(i);\r\n        for (i = 0; i < 32 && _bytes32[i] != 0; i++) {\r\n            bytesArray[i] = _bytes32[i];\r\n        }\r\n        return string(bytesArray);\r\n    }\r\n}\r\n\r\n/**\r\n * @title SlaughterManager\r\n * @dev Mengontrol pemrosesan sapi menjadi daging\r\n */\r\ncontract SlaughterManager is LivestockManager {\r\n    struct Beef {\r\n        uint256 beefId;\r\n        uint256 lsId;\r\n        uint256 dateAnte;\r\n        uint256 datePost;\r\n        uint256 datePack;\r\n        bool ante;\r\n        bool post;\r\n        address slaughterHouse;\r\n        bytes32 desc;\r\n        uint256 timeCreated;\r\n        uint256 timeUpdated;\r\n    }\r\n\r\n    /// @dev Untuk mengetahui total semua livestock yang akan dijadikan beef;\r\n    uint256 public beefCount = 0;\r\n\r\n    /// @dev Menyimpan strtuct Beef sebagai data apakah livestock tersebut akan dijadikan daging.\r\n    mapping(uint256 => Beef) public beefs;\r\n\r\n    /// @dev Menyimpan status apakah ada proposal beef yang sedang aktif pada livestock.\r\n    mapping(uint256 => bool) public livestockBeefStatus;\r\n\r\n    /// @dev Sebagai penunjuk proposal beef pada livestock.\r\n    mapping(uint256 => mapping(uint256 => uint256)) public livestockHasBeefs;\r\n\r\n    /// @dev Menghitung banyak beef yang dimiliki livestock.\r\n    mapping(uint256 => uint256) public livestockBeefCounts;\r\n\r\n    /// @dev Sebagai penunjuk apakah beef disetujui atau tidak oleh RPH.\r\n    mapping(uint256 => address) public beefApproval;\r\n\r\n    mapping(address => mapping(uint256 => uint256)) public beefAprroveds;\r\n    mapping(address => uint256) public approveCount;\r\n\r\n    mapping(address => mapping(uint256 => uint256)) public beefDenieds;\r\n    mapping(address => uint256) public deniedCount;\r\n\r\n    event RegisterBeef(\r\n        address ownerId,\r\n        address butcher,\r\n        uint256 lsId,\r\n        uint256 beefId,\r\n        string description\r\n    );\r\n\r\n    event Antemortem(\r\n        uint256 beefId,\r\n        uint256 lsId,\r\n        address butcher,\r\n        bool approved,\r\n        string description\r\n    );\r\n\r\n    event Postmortem(\r\n        uint256 beefId,\r\n        uint256 lsId,\r\n        address butcher,\r\n        bool approved,\r\n        string description\r\n    );\r\n\r\n    event PackBeef(\r\n        uint256 beefId,\r\n        uint256 lsId,\r\n        address butcher,\r\n        string description\r\n    );\r\n\r\n    event StateToBeef(uint256 lsId, address butcher, string description);\r\n\r\n    /// @dev registerBeef merupakan fungsi yang diugnakan untuk menambah livestock yang\r\n    ///   akan diubah menjadi beef.\r\n    /// @param _id digunakan untuk mengetahui livestok yang akan diubah.\r\n    /// @param _to digunakan untuk mengetahui tempat pemotongan livetock.\r\n    function registerBeef(\r\n        uint256 _id,\r\n        address _to,\r\n        uint256 _epox\r\n    ) public onlyStocker {\r\n        address owner = livestockOwner[_id - 1];\r\n        require(owner == msg.sender, \"Bukan pemilik.\");\r\n\r\n        User storage _user = users[_to];\r\n        require(_user.role == Role(2), \"Alamat RPH salah.\");\r\n\r\n        Livestock storage _ls = livestocks[_id - 1];\r\n        require(_ls.status, \"Hewan ternak tidak ada.\");\r\n\r\n        require(\r\n            livestockBeefStatus[_id] == false,\r\n            \"Hewan ternak memiliki proposal rph aktif.\"\r\n        );\r\n\r\n        checkHealth(_id, _epox);\r\n\r\n        uint256 newId = beefCount + 1;\r\n\r\n        beefs[beefCount].beefId = newId;\r\n        beefs[beefCount].lsId = _id;\r\n        beefs[beefCount].slaughterHouse = _to;\r\n        beefs[beefCount].timeCreated = _epox;\r\n        beefs[beefCount].timeUpdated = block.number;\r\n\r\n        beefApproval[beefCount] = _to;\r\n\r\n        livestockBeefStatus[_id] = true;\r\n        livestockHasBeefs[_id][livestockBeefCounts[_id]] = newId;\r\n        livestockBeefCounts[_id]++;\r\n\r\n        beefCount++;\r\n\r\n        emit RegisterBeef(\r\n            livestockOwner[_id - 1],\r\n            _to,\r\n            _id,\r\n            newId,\r\n            \"Pembuatan beef berhasil ditambahkan.\"\r\n        );\r\n    }\r\n\r\n    function checkHealth(uint256 _id, uint256 _epox) internal view {\r\n        Livestock storage _ls = livestocks[_id - 1];\r\n        require(_ls.status, \"Hewan ternak tidak ada.\");\r\n\r\n        HealthRecord storage _hr = hRecords[_id - 1][_ls.hrCount - 1];\r\n\r\n        require(!_hr.sick, \"Hewan ternak sakit.\");\r\n\r\n        uint256 math = _epox - _hr.timeRecord;\r\n\r\n        require(\r\n            math <= 604800000000,\r\n            \"Keterangan sehat harus kurang dari seminggu.\"\r\n        );\r\n    }\r\n\r\n    /// @dev checkAntemortem merupakan fungsi yang digunakan untuk merubah atribut pada struct\r\n    ///   beef seperti ante dan dateAnte, sehingga dapat diketahui, sapi diterima atau tidak.\r\n    /// @param _id Merupakan id dari beef yang akan dipotong. id tidak boleh 0.\r\n    /// @param _epox Merupakan tanggal yang dikonversikan menjadi integer.\r\n    /// @param _approval Merupakan input dari user apakah setuju atau tidak.\r\n    /// @param _desc Merupakan deskripsi yang dimasukkan oleh user jika menolak sapi.\r\n    function checkAntemortem(\r\n        uint256 _id,\r\n        uint256 _epox,\r\n        bool _approval,\r\n        string memory _desc\r\n    ) public onlyButcher {\r\n        address slaughter = beefApproval[_id - 1];\r\n        require(\r\n            slaughter == msg.sender,\r\n            \"Rumah Pemotongan Hewan tidak dapat melakukan aksi.\"\r\n        );\r\n\r\n        Beef storage _beef = beefs[_id - 1];\r\n        _beef.dateAnte = _epox;\r\n\r\n        if (_approval == true) {\r\n            _beef.ante = true;\r\n\r\n            // Merubah state livestock menjadi butcher.\r\n            uint256 lsId = _beef.lsId;\r\n\r\n            Livestock storage _ls = livestocks[lsId - 1];\r\n            uint256 x = _ls.stateCount;\r\n            livestockStates[lsId - 1][x] = State.butcher;\r\n            _ls.stateCount++;\r\n        } else if (_approval == false) {\r\n            _beef.ante = false;\r\n            _beef.desc = stringToBytes32(_desc);\r\n\r\n            beefDenieds[msg.sender][deniedCount[msg.sender]] = _id;\r\n            deniedCount[msg.sender]++;\r\n\r\n            livestockBeefStatus[_beef.lsId] = false;\r\n        }\r\n\r\n        _beef.timeUpdated = block.number;\r\n\r\n        emit Antemortem(\r\n            _id,\r\n            _beef.lsId,\r\n            _beef.slaughterHouse,\r\n            _approval,\r\n            \"Telah dilakukan pemeriksaan antemortem.\"\r\n        );\r\n    }\r\n\r\n    /// @dev checkPostmortem Merupakan fungsi yang digunakan untuk merubah atribut pada struct\r\n    ///   beef seperti post dan datePost, sehingga dapat diketahui, daging yang dipotong sehat.\r\n    /// @param _id Merupakan id dari beef yang akan dipotong. id tidak boleh 0.\r\n    /// @param _epox Merupakan tanggal yang dikonversikan menjadi integer.\r\n    /// @param _approval Merupakan input dari user apakah setuju atau tidak.\r\n    /// @param _desc Merupakan deskripsi yang dimasukkan oleh user jika terdapat penyakit.\r\n    function checkPostmortem(\r\n        uint256 _id,\r\n        uint256 _epox,\r\n        bool _approval,\r\n        string memory _desc\r\n    ) public onlyButcher {\r\n        address slaughter = beefApproval[_id - 1];\r\n        require(\r\n            slaughter == msg.sender,\r\n            \"Rumah Pemotongan Hewan tidak dapat melakukan aksi.\"\r\n        );\r\n\r\n        Beef storage _beef = beefs[_id - 1];\r\n\r\n        require(\r\n            _beef.ante == true,\r\n            \"Antemortem ditolak, sehingga tidak bisa dilanjutkan\"\r\n        );\r\n\r\n        _beef.datePost = _epox;\r\n\r\n        slaughtering(_id);\r\n\r\n        if (_approval == true) {\r\n            _beef.post = true;\r\n\r\n            beefAprroveds[msg.sender][approveCount[msg.sender]] = _id;\r\n            approveCount[msg.sender]++;\r\n        } else {\r\n            _beef.post = false;\r\n            _beef.desc = stringToBytes32(_desc);\r\n\r\n            beefDenieds[msg.sender][deniedCount[msg.sender]] = _id;\r\n            deniedCount[msg.sender]++;\r\n        }\r\n\r\n        _beef.timeUpdated = block.number;\r\n\r\n        emit Postmortem(\r\n            _id,\r\n            _beef.lsId,\r\n            _beef.slaughterHouse,\r\n            _approval,\r\n            \"Telah dilakukan pemeriksaan postmortem.\"\r\n        );\r\n    }\r\n\r\n    /// @dev packingBeef Merupakan fungsi yang digunakan untuk merubah atribut pada struct\r\n    ///   beef seperti datePack. Hal ini dilakukan untuk mengetahui tanggal daging dipacking.\r\n    /// @param _id Merupakan id dari beef yang akan dipacking. id tidak boleh 0.\r\n    /// @param _epox Merupakan tanggal yang dikonversikan menjadi integer.\r\n    function packingBeef(uint256 _id, uint256 _epox) public onlyButcher {\r\n        address slaughter = beefApproval[_id - 1];\r\n        require(\r\n            slaughter == msg.sender,\r\n            \"Rumah Pemotongan Hewan tidak dapat melakukan aksi.\"\r\n        );\r\n\r\n        Beef storage _beef = beefs[_id - 1];\r\n\r\n        require(\r\n            _beef.ante == true,\r\n            \"Antemortem ditolak, sehingga tidak bisa dilanjutkan\"\r\n        );\r\n\r\n        require(\r\n            _beef.post == true,\r\n            \"Postmortem ditolak, sehingga tidak bisa dilanjutkan\"\r\n        );\r\n\r\n        _beef.datePack = _epox;\r\n        _beef.timeUpdated = block.number;\r\n\r\n        // Merubah state livestock menjadi beef.\r\n        uint256 lsId = _beef.lsId;\r\n\r\n        Livestock storage _ls = livestocks[lsId - 1];\r\n        uint256 x = _ls.stateCount;\r\n        livestockStates[lsId - 1][x] = State.beef;\r\n        _ls.stateCount++;\r\n\r\n        emit StateToBeef(\r\n            lsId,\r\n            msg.sender,\r\n            \"State hewan ternak dirubah menjadi beef\"\r\n        );\r\n\r\n        emit PackBeef(\r\n            _id,\r\n            _beef.lsId,\r\n            _beef.slaughterHouse,\r\n            \"Telah dilakukan pembungkusan daging.\"\r\n        );\r\n    }\r\n\r\n    /// @dev slaughtering Digunakan untuk merubah status dari hewan ternak dari true\r\n    ///   menjadi false, atau dari hidup menjadi mati.\r\n    /// @param _id merupakan id dari beef.\r\n    function slaughtering(uint256 _id) public onlyButcher {\r\n        address slaughter = beefApproval[_id - 1];\r\n        require(\r\n            slaughter == msg.sender,\r\n            \"Rumah Pemotongan Hewan tidak dapat melakukan aksi.\"\r\n        );\r\n\r\n        Beef storage _beef = beefs[_id - 1];\r\n\r\n        require(\r\n            _beef.ante == true,\r\n            \"Antemortem ditolak, sehingga tidak bisa dilanjutkan\"\r\n        );\r\n\r\n        uint256 _lsId = _beef.lsId;\r\n\r\n        Livestock storage _ls = livestocks[_lsId - 1];\r\n        _ls.status = false;\r\n\r\n        emit livestockStatus(\r\n            _id,\r\n            msg.sender,\r\n            false,\r\n            \"Status hewan ternak telah diubah.\"\r\n        );\r\n    }\r\n}\r\n",
  "sourcePath": "C:/Users/monsu/Documents/belajar/bc-trace/contracts/LivestockTrace.sol",
  "compiler": {
    "name": "solc",
    "version": "0.6.12+commit.27d51765.Emscripten.clang"
  },
  "schemaVersion": "3.2.3",
  "updatedAt": "2022-01-26T07:18:35.293Z",
  "devdoc": {
    "details": "Mengontrol pembuatan livestock dan distribusi",
    "kind": "dev",
    "methods": {
      "changeState(uint256,address)": {
        "details": "changeState dugunakan untuk merubah sate dari livetock apakah pada   state farmer (0), stocker (1), dan butcher (2). State tersebut tergantung   dari role yang dimiliki oleh address.",
        "params": {
          "_id": "merupakan id livestok yang akan diubah.",
          "_to": "merupakan address owner dari livestock tersebut."
        }
      },
      "changeStatus(uint256)": {
        "details": "changeStatus Digunakan untuk merubah status dari hewan ternak dari true   menjadi false, atau dari hidup menjadi mati.",
        "params": {
          "_id": "merupakan id dari hewan ternak."
        }
      },
      "getFarmLS(address)": {
        "details": "getFarmLS digunakan utnuk mecari id livestock yang telah disimpan   didalam array int lsId. uint256[] memory diperlukan untuk memanggil array.",
        "params": {
          "_from": "merupakan address yang ingin diketahui livestocknya.",
          "_ls": "merupakan retruns yang akan diberikan berupa array."
        }
      }
    },
    "stateVariables": {
      "cowsheds": {
        "details": "Menyimpan data struct Cowshed berdasarkan address yang dimiliki."
      },
      "globalLSCount": {
        "details": "Untuk mengetahui total semua hewan ternak yang terdapat pada blockchain."
      },
      "hRecords": {
        "details": "Menyimpan data stuct HealthRecord atau riwayat kesehatan berdasarkan   id dari hewan ternak."
      },
      "livestockCounts": {
        "details": "Untuk mengetahui banyaknya hewan ternak yang dimiliki oleh owner."
      },
      "livestockOwner": {
        "details": "Untuk mengetahui hewan ternak dimiliki oleh owner."
      },
      "livestockRace": {
        "details": "Menyimpan data livestock dan rasnya."
      },
      "livestockStates": {
        "details": "Menyimpan state dari hewan ternak berdasarkan id hewan ternak.   Hal ini dgunakan untuk mengetahui tahap yang dilalui hewan ternak."
      },
      "livestockTransfers": {
        "details": "Menyimpan address pemilik dari hewan ternak. Sehingga ketika dipanggil   riwayat pemilik dari hewan ternak dapat dilihat."
      },
      "livestocks": {
        "details": "Meyimpan data scruct livestock berdarsarkan id."
      },
      "wRecords": {
        "details": "Menyimpan data stuct WeightRecord atau riwayat berat badan berdasarkan  id dari hewan ternak."
      }
    },
    "title": "LivestockManager",
    "version": 1
  },
  "userdoc": {
    "kind": "user",
    "methods": {},
    "version": 1
  }
}