{
  "contractName": "SlaughterManager",
  "abi": [
    {
      "anonymous": false,
      "inputs": [
        {
          "indexed": false,
          "internalType": "address",
          "name": "ownerId",
          "type": "address"
        },
        {
          "indexed": false,
          "internalType": "uint256",
          "name": "lsId",
          "type": "uint256"
        },
        {
          "indexed": false,
          "internalType": "bool",
          "name": "gender",
          "type": "bool"
        },
        {
          "indexed": false,
          "internalType": "bool",
          "name": "sick",
          "type": "bool"
        },
        {
          "indexed": false,
          "internalType": "string",
          "name": "action",
          "type": "string"
        },
        {
          "indexed": false,
          "internalType": "string",
          "name": "description",
          "type": "string"
        }
      ],
      "name": "AddHealth",
      "type": "event"
    },
    {
      "anonymous": false,
      "inputs": [
        {
          "indexed": false,
          "internalType": "address",
          "name": "ownerId",
          "type": "address"
        },
        {
          "indexed": false,
          "internalType": "uint256",
          "name": "lsId",
          "type": "uint256"
        },
        {
          "indexed": false,
          "internalType": "bool",
          "name": "gender",
          "type": "bool"
        },
        {
          "indexed": false,
          "internalType": "uint16",
          "name": "weight",
          "type": "uint16"
        },
        {
          "indexed": false,
          "internalType": "uint16",
          "name": "length",
          "type": "uint16"
        },
        {
          "indexed": false,
          "internalType": "uint16",
          "name": "heartGrith",
          "type": "uint16"
        },
        {
          "indexed": false,
          "internalType": "string",
          "name": "description",
          "type": "string"
        }
      ],
      "name": "AddWeight",
      "type": "event"
    },
    {
      "anonymous": false,
      "inputs": [
        {
          "indexed": false,
          "internalType": "uint256",
          "name": "beefId",
          "type": "uint256"
        },
        {
          "indexed": false,
          "internalType": "uint256",
          "name": "lsId",
          "type": "uint256"
        },
        {
          "indexed": false,
          "internalType": "address",
          "name": "butcher",
          "type": "address"
        },
        {
          "indexed": false,
          "internalType": "bool",
          "name": "approved",
          "type": "bool"
        },
        {
          "indexed": false,
          "internalType": "string",
          "name": "description",
          "type": "string"
        }
      ],
      "name": "Antemortem",
      "type": "event"
    },
    {
      "anonymous": false,
      "inputs": [
        {
          "indexed": false,
          "internalType": "uint256",
          "name": "beefId",
          "type": "uint256"
        },
        {
          "indexed": false,
          "internalType": "uint256",
          "name": "lsId",
          "type": "uint256"
        },
        {
          "indexed": false,
          "internalType": "address",
          "name": "butcher",
          "type": "address"
        },
        {
          "indexed": false,
          "internalType": "string",
          "name": "description",
          "type": "string"
        }
      ],
      "name": "PackBeef",
      "type": "event"
    },
    {
      "anonymous": false,
      "inputs": [
        {
          "indexed": false,
          "internalType": "uint256",
          "name": "beefId",
          "type": "uint256"
        },
        {
          "indexed": false,
          "internalType": "uint256",
          "name": "lsId",
          "type": "uint256"
        },
        {
          "indexed": false,
          "internalType": "address",
          "name": "butcher",
          "type": "address"
        },
        {
          "indexed": false,
          "internalType": "bool",
          "name": "approved",
          "type": "bool"
        },
        {
          "indexed": false,
          "internalType": "string",
          "name": "description",
          "type": "string"
        }
      ],
      "name": "Postmortem",
      "type": "event"
    },
    {
      "anonymous": false,
      "inputs": [
        {
          "indexed": false,
          "internalType": "address",
          "name": "ownerId",
          "type": "address"
        },
        {
          "indexed": false,
          "internalType": "address",
          "name": "butcher",
          "type": "address"
        },
        {
          "indexed": false,
          "internalType": "uint256",
          "name": "lsId",
          "type": "uint256"
        },
        {
          "indexed": false,
          "internalType": "uint256",
          "name": "beefId",
          "type": "uint256"
        },
        {
          "indexed": false,
          "internalType": "string",
          "name": "description",
          "type": "string"
        }
      ],
      "name": "RegisterBeef",
      "type": "event"
    },
    {
      "anonymous": false,
      "inputs": [
        {
          "indexed": false,
          "internalType": "address",
          "name": "ownerId",
          "type": "address"
        },
        {
          "indexed": false,
          "internalType": "string",
          "name": "description",
          "type": "string"
        }
      ],
      "name": "RegisterCowshed",
      "type": "event"
    },
    {
      "anonymous": false,
      "inputs": [
        {
          "indexed": false,
          "internalType": "address",
          "name": "ownerId",
          "type": "address"
        },
        {
          "indexed": false,
          "internalType": "uint256",
          "name": "lsId",
          "type": "uint256"
        },
        {
          "indexed": false,
          "internalType": "bool",
          "name": "gender",
          "type": "bool"
        },
        {
          "indexed": false,
          "internalType": "enum LivestockManager.Race",
          "name": "race",
          "type": "uint8"
        },
        {
          "indexed": false,
          "internalType": "string",
          "name": "description",
          "type": "string"
        }
      ],
      "name": "RegisterLivestock",
      "type": "event"
    },
    {
      "anonymous": false,
      "inputs": [
        {
          "indexed": false,
          "internalType": "uint256",
          "name": "lsId",
          "type": "uint256"
        },
        {
          "indexed": false,
          "internalType": "address",
          "name": "butcher",
          "type": "address"
        },
        {
          "indexed": false,
          "internalType": "string",
          "name": "description",
          "type": "string"
        }
      ],
      "name": "StateToBeef",
      "type": "event"
    },
    {
      "anonymous": false,
      "inputs": [
        {
          "indexed": false,
          "internalType": "uint256",
          "name": "lsId",
          "type": "uint256"
        },
        {
          "indexed": false,
          "internalType": "address",
          "name": "_from",
          "type": "address"
        },
        {
          "indexed": false,
          "internalType": "address",
          "name": "_to",
          "type": "address"
        },
        {
          "indexed": false,
          "internalType": "enum LivestockManager.State",
          "name": "state",
          "type": "uint8"
        },
        {
          "indexed": false,
          "internalType": "string",
          "name": "description",
          "type": "string"
        }
      ],
      "name": "Transfer",
      "type": "event"
    },
    {
      "anonymous": false,
      "inputs": [
        {
          "indexed": false,
          "internalType": "uint256",
          "name": "id",
          "type": "uint256"
        },
        {
          "indexed": false,
          "internalType": "address",
          "name": "actor",
          "type": "address"
        },
        {
          "indexed": false,
          "internalType": "bool",
          "name": "status",
          "type": "bool"
        },
        {
          "indexed": false,
          "internalType": "string",
          "name": "description",
          "type": "string"
        }
      ],
      "name": "livestockStatus",
      "type": "event"
    },
    {
      "inputs": [],
      "name": "admin",
      "outputs": [
        {
          "internalType": "address",
          "name": "",
          "type": "address"
        }
      ],
      "stateMutability": "view",
      "type": "function",
      "constant": true
    },
    {
      "inputs": [
        {
          "internalType": "address",
          "name": "",
          "type": "address"
        }
      ],
      "name": "approveCount",
      "outputs": [
        {
          "internalType": "uint256",
          "name": "",
          "type": "uint256"
        }
      ],
      "stateMutability": "view",
      "type": "function",
      "constant": true
    },
    {
      "inputs": [
        {
          "internalType": "uint256",
          "name": "",
          "type": "uint256"
        }
      ],
      "name": "beefApproval",
      "outputs": [
        {
          "internalType": "address",
          "name": "",
          "type": "address"
        }
      ],
      "stateMutability": "view",
      "type": "function",
      "constant": true
    },
    {
      "inputs": [
        {
          "internalType": "address",
          "name": "",
          "type": "address"
        },
        {
          "internalType": "uint256",
          "name": "",
          "type": "uint256"
        }
      ],
      "name": "beefAprroveds",
      "outputs": [
        {
          "internalType": "uint256",
          "name": "",
          "type": "uint256"
        }
      ],
      "stateMutability": "view",
      "type": "function",
      "constant": true
    },
    {
      "inputs": [],
      "name": "beefCount",
      "outputs": [
        {
          "internalType": "uint256",
          "name": "",
          "type": "uint256"
        }
      ],
      "stateMutability": "view",
      "type": "function",
      "constant": true
    },
    {
      "inputs": [
        {
          "internalType": "address",
          "name": "",
          "type": "address"
        },
        {
          "internalType": "uint256",
          "name": "",
          "type": "uint256"
        }
      ],
      "name": "beefDenieds",
      "outputs": [
        {
          "internalType": "uint256",
          "name": "",
          "type": "uint256"
        }
      ],
      "stateMutability": "view",
      "type": "function",
      "constant": true
    },
    {
      "inputs": [
        {
          "internalType": "uint256",
          "name": "",
          "type": "uint256"
        }
      ],
      "name": "beefs",
      "outputs": [
        {
          "internalType": "uint256",
          "name": "beefId",
          "type": "uint256"
        },
        {
          "internalType": "uint256",
          "name": "lsId",
          "type": "uint256"
        },
        {
          "internalType": "uint256",
          "name": "dateAnte",
          "type": "uint256"
        },
        {
          "internalType": "uint256",
          "name": "datePost",
          "type": "uint256"
        },
        {
          "internalType": "uint256",
          "name": "datePack",
          "type": "uint256"
        },
        {
          "internalType": "bool",
          "name": "ante",
          "type": "bool"
        },
        {
          "internalType": "bool",
          "name": "post",
          "type": "bool"
        },
        {
          "internalType": "address",
          "name": "slaughterHouse",
          "type": "address"
        },
        {
          "internalType": "bytes32",
          "name": "desc",
          "type": "bytes32"
        },
        {
          "internalType": "uint256",
          "name": "timeCreated",
          "type": "uint256"
        },
        {
          "internalType": "uint256",
          "name": "timeUpdated",
          "type": "uint256"
        }
      ],
      "stateMutability": "view",
      "type": "function",
      "constant": true
    },
    {
      "inputs": [
        {
          "internalType": "bytes32",
          "name": "_bytes32",
          "type": "bytes32"
        }
      ],
      "name": "bytes32ToString",
      "outputs": [
        {
          "internalType": "string",
          "name": "",
          "type": "string"
        }
      ],
      "stateMutability": "pure",
      "type": "function",
      "constant": true
    },
    {
      "inputs": [
        {
          "internalType": "uint256",
          "name": "_id",
          "type": "uint256"
        },
        {
          "internalType": "address",
          "name": "_to",
          "type": "address"
        }
      ],
      "name": "changeState",
      "outputs": [],
      "stateMutability": "nonpayable",
      "type": "function"
    },
    {
      "inputs": [
        {
          "internalType": "uint256",
          "name": "_id",
          "type": "uint256"
        }
      ],
      "name": "changeStatus",
      "outputs": [],
      "stateMutability": "nonpayable",
      "type": "function"
    },
    {
      "inputs": [],
      "name": "checkRole",
      "outputs": [
        {
          "internalType": "uint256",
          "name": "",
          "type": "uint256"
        }
      ],
      "stateMutability": "view",
      "type": "function",
      "constant": true
    },
    {
      "inputs": [
        {
          "internalType": "address",
          "name": "_address",
          "type": "address"
        }
      ],
      "name": "checkUser",
      "outputs": [
        {
          "internalType": "bool",
          "name": "",
          "type": "bool"
        }
      ],
      "stateMutability": "view",
      "type": "function",
      "constant": true
    },
    {
      "inputs": [
        {
          "internalType": "uint256",
          "name": "",
          "type": "uint256"
        }
      ],
      "name": "cowshedAddress",
      "outputs": [
        {
          "internalType": "address",
          "name": "",
          "type": "address"
        }
      ],
      "stateMutability": "view",
      "type": "function",
      "constant": true
    },
    {
      "inputs": [
        {
          "internalType": "address",
          "name": "",
          "type": "address"
        }
      ],
      "name": "cowsheds",
      "outputs": [
        {
          "internalType": "address",
          "name": "ownerId",
          "type": "address"
        },
        {
          "internalType": "uint256",
          "name": "timeUpdated",
          "type": "uint256"
        },
        {
          "internalType": "uint256",
          "name": "timeCreated",
          "type": "uint256"
        },
        {
          "internalType": "bool",
          "name": "status",
          "type": "bool"
        }
      ],
      "stateMutability": "view",
      "type": "function",
      "constant": true
    },
    {
      "inputs": [
        {
          "internalType": "address",
          "name": "",
          "type": "address"
        }
      ],
      "name": "deniedCount",
      "outputs": [
        {
          "internalType": "uint256",
          "name": "",
          "type": "uint256"
        }
      ],
      "stateMutability": "view",
      "type": "function",
      "constant": true
    },
    {
      "inputs": [
        {
          "internalType": "address",
          "name": "_from",
          "type": "address"
        }
      ],
      "name": "getFarmLS",
      "outputs": [
        {
          "internalType": "uint256[]",
          "name": "_ls",
          "type": "uint256[]"
        }
      ],
      "stateMutability": "view",
      "type": "function",
      "constant": true
    },
    {
      "inputs": [
        {
          "internalType": "uint256",
          "name": "_id",
          "type": "uint256"
        }
      ],
      "name": "getLastWR",
      "outputs": [
        {
          "internalType": "uint256",
          "name": "_lsId",
          "type": "uint256"
        },
        {
          "internalType": "uint16",
          "name": "_weight",
          "type": "uint16"
        },
        {
          "internalType": "uint16",
          "name": "_length",
          "type": "uint16"
        },
        {
          "internalType": "uint16",
          "name": "_heartGrith",
          "type": "uint16"
        },
        {
          "internalType": "uint256",
          "name": "_timeCreated",
          "type": "uint256"
        }
      ],
      "stateMutability": "view",
      "type": "function",
      "constant": true
    },
    {
      "inputs": [
        {
          "internalType": "uint256",
          "name": "_id",
          "type": "uint256"
        }
      ],
      "name": "getLivestock",
      "outputs": [
        {
          "internalType": "uint256",
          "name": "_lsId",
          "type": "uint256"
        },
        {
          "internalType": "uint256",
          "name": "_fatherId",
          "type": "uint256"
        },
        {
          "internalType": "uint256",
          "name": "_motherId",
          "type": "uint256"
        },
        {
          "internalType": "uint256",
          "name": "_birthDay",
          "type": "uint256"
        },
        {
          "internalType": "bytes32",
          "name": "_eartag",
          "type": "bytes32"
        },
        {
          "internalType": "bool",
          "name": "_gender",
          "type": "bool"
        },
        {
          "internalType": "bool",
          "name": "_status",
          "type": "bool"
        },
        {
          "internalType": "enum LivestockManager.Race",
          "name": "_race",
          "type": "uint8"
        },
        {
          "internalType": "uint256",
          "name": "_timeUpdated",
          "type": "uint256"
        },
        {
          "internalType": "uint256",
          "name": "_timeCreated",
          "type": "uint256"
        }
      ],
      "stateMutability": "view",
      "type": "function",
      "constant": true
    },
    {
      "inputs": [
        {
          "internalType": "address",
          "name": "_address",
          "type": "address"
        }
      ],
      "name": "getRole",
      "outputs": [
        {
          "internalType": "uint8",
          "name": "",
          "type": "uint8"
        }
      ],
      "stateMutability": "view",
      "type": "function",
      "constant": true
    },
    {
      "inputs": [],
      "name": "globalLSCount",
      "outputs": [
        {
          "internalType": "uint256",
          "name": "",
          "type": "uint256"
        }
      ],
      "stateMutability": "view",
      "type": "function",
      "constant": true
    },
    {
      "inputs": [
        {
          "internalType": "uint256",
          "name": "",
          "type": "uint256"
        },
        {
          "internalType": "uint256",
          "name": "",
          "type": "uint256"
        }
      ],
      "name": "hRecords",
      "outputs": [
        {
          "internalType": "address",
          "name": "actor",
          "type": "address"
        },
        {
          "internalType": "uint256",
          "name": "lsId",
          "type": "uint256"
        },
        {
          "internalType": "bool",
          "name": "sick",
          "type": "bool"
        },
        {
          "internalType": "bytes32",
          "name": "description",
          "type": "bytes32"
        },
        {
          "internalType": "bytes32",
          "name": "action",
          "type": "bytes32"
        },
        {
          "internalType": "uint256",
          "name": "timeRecord",
          "type": "uint256"
        },
        {
          "internalType": "uint256",
          "name": "timeCreated",
          "type": "uint256"
        }
      ],
      "stateMutability": "view",
      "type": "function",
      "constant": true
    },
    {
      "inputs": [
        {
          "internalType": "address",
          "name": "_address",
          "type": "address"
        }
      ],
      "name": "isAdmin",
      "outputs": [
        {
          "internalType": "bool",
          "name": "",
          "type": "bool"
        }
      ],
      "stateMutability": "view",
      "type": "function",
      "constant": true
    },
    {
      "inputs": [
        {
          "internalType": "address",
          "name": "",
          "type": "address"
        }
      ],
      "name": "livestockCounts",
      "outputs": [
        {
          "internalType": "uint256",
          "name": "",
          "type": "uint256"
        }
      ],
      "stateMutability": "view",
      "type": "function",
      "constant": true
    },
    {
      "inputs": [
        {
          "internalType": "uint256",
          "name": "",
          "type": "uint256"
        }
      ],
      "name": "livestockOwner",
      "outputs": [
        {
          "internalType": "address",
          "name": "",
          "type": "address"
        }
      ],
      "stateMutability": "view",
      "type": "function",
      "constant": true
    },
    {
      "inputs": [
        {
          "internalType": "uint256",
          "name": "",
          "type": "uint256"
        }
      ],
      "name": "livestockRace",
      "outputs": [
        {
          "internalType": "enum LivestockManager.Race",
          "name": "",
          "type": "uint8"
        }
      ],
      "stateMutability": "view",
      "type": "function",
      "constant": true
    },
    {
      "inputs": [
        {
          "internalType": "uint256",
          "name": "",
          "type": "uint256"
        },
        {
          "internalType": "uint256",
          "name": "",
          "type": "uint256"
        }
      ],
      "name": "livestockStates",
      "outputs": [
        {
          "internalType": "enum LivestockManager.State",
          "name": "",
          "type": "uint8"
        }
      ],
      "stateMutability": "view",
      "type": "function",
      "constant": true
    },
    {
      "inputs": [
        {
          "internalType": "uint256",
          "name": "",
          "type": "uint256"
        },
        {
          "internalType": "uint256",
          "name": "",
          "type": "uint256"
        }
      ],
      "name": "livestockTransfers",
      "outputs": [
        {
          "internalType": "address",
          "name": "",
          "type": "address"
        }
      ],
      "stateMutability": "view",
      "type": "function",
      "constant": true
    },
    {
      "inputs": [
        {
          "internalType": "uint256",
          "name": "",
          "type": "uint256"
        }
      ],
      "name": "livestocks",
      "outputs": [
        {
          "internalType": "uint256",
          "name": "farmIndex",
          "type": "uint256"
        },
        {
          "internalType": "uint256",
          "name": "lsId",
          "type": "uint256"
        },
        {
          "internalType": "uint256",
          "name": "fatherId",
          "type": "uint256"
        },
        {
          "internalType": "uint256",
          "name": "motherId",
          "type": "uint256"
        },
        {
          "internalType": "uint256",
          "name": "birthDay",
          "type": "uint256"
        },
        {
          "internalType": "bytes32",
          "name": "earTag",
          "type": "bytes32"
        },
        {
          "internalType": "bool",
          "name": "gender",
          "type": "bool"
        },
        {
          "internalType": "uint256",
          "name": "wrCount",
          "type": "uint256"
        },
        {
          "internalType": "uint256",
          "name": "hrCount",
          "type": "uint256"
        },
        {
          "internalType": "uint256",
          "name": "transterCount",
          "type": "uint256"
        },
        {
          "internalType": "uint256",
          "name": "stateCount",
          "type": "uint256"
        },
        {
          "internalType": "bool",
          "name": "status",
          "type": "bool"
        },
        {
          "internalType": "uint256",
          "name": "timeUpdated",
          "type": "uint256"
        },
        {
          "internalType": "uint256",
          "name": "timeCreated",
          "type": "uint256"
        }
      ],
      "stateMutability": "view",
      "type": "function",
      "constant": true
    },
    {
      "inputs": [
        {
          "internalType": "address",
          "name": "_address",
          "type": "address"
        },
        {
          "internalType": "string",
          "name": "_name",
          "type": "string"
        },
        {
          "internalType": "uint8",
          "name": "_role",
          "type": "uint8"
        }
      ],
      "name": "registerCowshed",
      "outputs": [],
      "stateMutability": "nonpayable",
      "type": "function"
    },
    {
      "inputs": [
        {
          "internalType": "uint256",
          "name": "_lsId",
          "type": "uint256"
        },
        {
          "internalType": "string",
          "name": "_description",
          "type": "string"
        },
        {
          "internalType": "string",
          "name": "_action",
          "type": "string"
        },
        {
          "internalType": "uint256",
          "name": "_time",
          "type": "uint256"
        },
        {
          "internalType": "bool",
          "name": "_sick",
          "type": "bool"
        }
      ],
      "name": "registerHRecord",
      "outputs": [],
      "stateMutability": "nonpayable",
      "type": "function"
    },
    {
      "inputs": [
        {
          "internalType": "uint256",
          "name": "_fatherId",
          "type": "uint256"
        },
        {
          "internalType": "uint256",
          "name": "_motherId",
          "type": "uint256"
        },
        {
          "internalType": "uint256",
          "name": "_birthDay",
          "type": "uint256"
        },
        {
          "internalType": "string",
          "name": "_eartag",
          "type": "string"
        },
        {
          "internalType": "bool",
          "name": "_gender",
          "type": "bool"
        },
        {
          "internalType": "uint8",
          "name": "_race",
          "type": "uint8"
        },
        {
          "internalType": "uint16",
          "name": "_weight",
          "type": "uint16"
        },
        {
          "internalType": "uint16",
          "name": "_length",
          "type": "uint16"
        },
        {
          "internalType": "uint16",
          "name": "_heartGrith",
          "type": "uint16"
        },
        {
          "internalType": "uint256",
          "name": "_time",
          "type": "uint256"
        }
      ],
      "name": "registerLivestock",
      "outputs": [],
      "stateMutability": "nonpayable",
      "type": "function"
    },
    {
      "inputs": [
        {
          "internalType": "address",
          "name": "_address",
          "type": "address"
        },
        {
          "internalType": "string",
          "name": "_name",
          "type": "string"
        },
        {
          "internalType": "uint8",
          "name": "_role",
          "type": "uint8"
        }
      ],
      "name": "registerUser",
      "outputs": [],
      "stateMutability": "nonpayable",
      "type": "function"
    },
    {
      "inputs": [
        {
          "internalType": "uint256",
          "name": "_lsId",
          "type": "uint256"
        },
        {
          "internalType": "uint16",
          "name": "_weight",
          "type": "uint16"
        },
        {
          "internalType": "uint16",
          "name": "_length",
          "type": "uint16"
        },
        {
          "internalType": "uint16",
          "name": "_heartGrith",
          "type": "uint16"
        },
        {
          "internalType": "uint256",
          "name": "_time",
          "type": "uint256"
        }
      ],
      "name": "registerWRecord",
      "outputs": [],
      "stateMutability": "nonpayable",
      "type": "function"
    },
    {
      "inputs": [
        {
          "internalType": "string",
          "name": "source",
          "type": "string"
        }
      ],
      "name": "stringToBytes32",
      "outputs": [
        {
          "internalType": "bytes32",
          "name": "result",
          "type": "bytes32"
        }
      ],
      "stateMutability": "pure",
      "type": "function",
      "constant": true
    },
    {
      "inputs": [
        {
          "internalType": "uint256",
          "name": "_id",
          "type": "uint256"
        },
        {
          "internalType": "address",
          "name": "_from",
          "type": "address"
        },
        {
          "internalType": "address",
          "name": "_to",
          "type": "address"
        }
      ],
      "name": "transfer",
      "outputs": [],
      "stateMutability": "nonpayable",
      "type": "function"
    },
    {
      "inputs": [
        {
          "internalType": "address",
          "name": "",
          "type": "address"
        }
      ],
      "name": "users",
      "outputs": [
        {
          "internalType": "address",
          "name": "userAddress",
          "type": "address"
        },
        {
          "internalType": "string",
          "name": "name",
          "type": "string"
        },
        {
          "internalType": "enum UserManager.Role",
          "name": "role",
          "type": "uint8"
        },
        {
          "internalType": "uint256",
          "name": "timeUpdated",
          "type": "uint256"
        },
        {
          "internalType": "uint256",
          "name": "timeCreated",
          "type": "uint256"
        },
        {
          "internalType": "bool",
          "name": "active",
          "type": "bool"
        }
      ],
      "stateMutability": "view",
      "type": "function",
      "constant": true
    },
    {
      "inputs": [
        {
          "internalType": "uint256",
          "name": "",
          "type": "uint256"
        },
        {
          "internalType": "uint256",
          "name": "",
          "type": "uint256"
        }
      ],
      "name": "wRecords",
      "outputs": [
        {
          "internalType": "address",
          "name": "actor",
          "type": "address"
        },
        {
          "internalType": "uint256",
          "name": "lsId",
          "type": "uint256"
        },
        {
          "internalType": "uint16",
          "name": "weight",
          "type": "uint16"
        },
        {
          "internalType": "uint16",
          "name": "length",
          "type": "uint16"
        },
        {
          "internalType": "uint16",
          "name": "heartGrith",
          "type": "uint16"
        },
        {
          "internalType": "uint256",
          "name": "timeRecord",
          "type": "uint256"
        },
        {
          "internalType": "uint256",
          "name": "timeCreated",
          "type": "uint256"
        }
      ],
      "stateMutability": "view",
      "type": "function",
      "constant": true
    },
    {
      "inputs": [
        {
          "internalType": "uint256",
          "name": "_id",
          "type": "uint256"
        },
        {
          "internalType": "address",
          "name": "_to",
          "type": "address"
        }
      ],
      "name": "registerBeef",
      "outputs": [],
      "stateMutability": "nonpayable",
      "type": "function"
    },
    {
      "inputs": [
        {
          "internalType": "uint256",
          "name": "_id",
          "type": "uint256"
        },
        {
          "internalType": "uint256",
          "name": "_epox",
          "type": "uint256"
        },
        {
          "internalType": "bool",
          "name": "_approval",
          "type": "bool"
        },
        {
          "internalType": "string",
          "name": "_desc",
          "type": "string"
        }
      ],
      "name": "checkAntemortem",
      "outputs": [],
      "stateMutability": "nonpayable",
      "type": "function"
    },
    {
      "inputs": [
        {
          "internalType": "uint256",
          "name": "_id",
          "type": "uint256"
        },
        {
          "internalType": "uint256",
          "name": "_epox",
          "type": "uint256"
        },
        {
          "internalType": "bool",
          "name": "_approval",
          "type": "bool"
        },
        {
          "internalType": "string",
          "name": "_desc",
          "type": "string"
        }
      ],
      "name": "checkPostmortem",
      "outputs": [],
      "stateMutability": "nonpayable",
      "type": "function"
    },
    {
      "inputs": [
        {
          "internalType": "uint256",
          "name": "_id",
          "type": "uint256"
        },
        {
          "internalType": "uint256",
          "name": "_epox",
          "type": "uint256"
        }
      ],
      "name": "packingBeef",
      "outputs": [],
      "stateMutability": "nonpayable",
      "type": "function"
    },
    {
      "inputs": [
        {
          "internalType": "uint256",
          "name": "_id",
          "type": "uint256"
        }
      ],
      "name": "slaughtering",
      "outputs": [],
      "stateMutability": "nonpayable",
      "type": "function"
    }
  ],
  "bytecode": "0x608060405260006002556000600d5534801561001a57600080fd5b50600080546001600160a01b031916331790556135b48061003c6000396000f3fe608060405234801561001057600080fd5b506004361061025e5760003560e01c806385df465811610146578063ccb570e3116100c3578063e4fdfd8211610087578063e4fdfd8214610ff9578063e8025d7714611016578063e8100d5b14611033578063f851a44014611056578063fe81685e1461105e578063ff811de51461108a5761025e565b8063ccb570e314610dbe578063cfb5192814610df2578063d53efbc614610e96578063d9e4f7ca14610ec2578063df97d6a314610f7b5761025e565b8063a87430ba1161010a578063a87430ba14610c11578063b32b03e014610ce8578063b774006c14610d05578063be33624a14610d55578063cadb389514610d815761025e565b806385df465814610ae55780638f2c999a14610b185780639201de5514610b3e57806396f8478014610bd0578063a82b5a9614610bd85761025e565b806347731bdc116101df578063730b3492116101a3578063730b3492146108b757806373601b64146109385780637d984da4146109ae57806381efad24146109cb578063835cbc8e14610a845780638474d88e14610aa75761025e565b806347731bdc146105bd5780635d5d466c1461062a578063641af594146106b75780636534565b146107995780636b5fffd9146108525761025e565b806324d7806c1161022657806324d7806c146103d25780632c828d2f146103f85780632d21bd9d146104245780633803238a1461044a57806344276733146105815761025e565b8063030f3c5e146102635780630482aa821461031e5780630e3f442d146103385780631e9d48cf1461039057806321467c1d146103ca575b600080fd5b61031c6004803603608081101561027957600080fd5b813591602081013591604082013515159190810190608081016060820135600160201b8111156102a857600080fd5b8201836020820111156102ba57600080fd5b803590602001918460018302840111600160201b831117156102db57600080fd5b91908080601f0160208091040260200160405190810160405280939291908181526020018383808284376000920191909152509295506110b0945050505050565b005b6103266112c2565b60408051918252519081900360200190f35b61035e6004803603602081101561034e57600080fd5b50356001600160a01b03166112d5565b604080516001600160a01b03909516855260208501939093528383019190915215156060830152519081900360800190f35b6103b6600480360360208110156103a657600080fd5b50356001600160a01b031661130b565b604080519115158252519081900360200190f35b610326611330565b6103b6600480360360208110156103e857600080fd5b50356001600160a01b0316611336565b6103266004803603604081101561040e57600080fd5b506001600160a01b03813516906020013561135c565b6103266004803603602081101561043a57600080fd5b50356001600160a01b0316611379565b61031c600480360360a081101561046057600080fd5b81359190810190604081016020820135600160201b81111561048157600080fd5b82018360208201111561049357600080fd5b803590602001918460018302840111600160201b831117156104b457600080fd5b91908080601f0160208091040260200160405190810160405280939291908181526020018383808284376000920191909152509295949360208101935035915050600160201b81111561050657600080fd5b82018360208201111561051857600080fd5b803590602001918460018302840111600160201b8311171561053957600080fd5b91908080601f0160208091040260200160405190810160405280939291908181526020018383808284376000920191909152509295505082359350505060200135151561138b565b6105a76004803603602081101561059757600080fd5b50356001600160a01b0316611635565b6040805160ff9092168252519081900360200190f35b6105e0600480360360408110156105d357600080fd5b508035906020013561165f565b604080516001600160a01b039098168852602088019690965261ffff9485168787015292841660608701529216608085015260a084019190915260c0830152519081900360e00190f35b6106476004803603602081101561064057600080fd5b50356116bb565b604080519e8f5260208f019d909d528d8d019b909b5260608d019990995260808c019790975260a08b019590955292151560c08a015260e089019190915261010088015261012087015261014086015215156101608501526101808401526101a083015251908190036101c00190f35b61031c60048036036101408110156106ce57600080fd5b81359160208101359160408201359190810190608081016060820135600160201b8111156106fb57600080fd5b82018360208201111561070d57600080fd5b803590602001918460018302840111600160201b8311171561072e57600080fd5b91908080601f01602080910402602001604051908101604052809392919081815260200183838082843760009201919091525092955050505080351515915060ff6020820135169061ffff604082013581169160608101358216916080820135169060a00135611730565b61031c600480360360608110156107af57600080fd5b6001600160a01b038235169190810190604081016020820135600160201b8111156107d957600080fd5b8201836020820111156107eb57600080fd5b803590602001918460018302840111600160201b8311171561080c57600080fd5b91908080601f0160208091040260200160405190810160405280939291908181526020018383808284376000920191909152509295505050903560ff169150611a3f9050565b6108756004803603604081101561086857600080fd5b5080359060200135611c09565b604080516001600160a01b0390981688526020880196909652931515868601526060860192909252608085015260a084015260c0830152519081900360e00190f35b6108d4600480360360208110156108cd57600080fd5b5035611c5f565b604051808b81526020018a81526020018981526020018881526020018781526020018615158152602001851515815260200184600681111561091257fe5b81526020018381526020018281526020019a505050505050505050505060405180910390f35b61095e6004803603602081101561094e57600080fd5b50356001600160a01b0316611cc1565b60408051602080825283518183015283519192839290830191858101910280838360005b8381101561099a578181015183820152602001610982565b505050509050019250505060405180910390f35b61031c600480360360208110156109c457600080fd5b5035611d33565b61031c600480360360608110156109e157600080fd5b6001600160a01b038235169190810190604081016020820135600160201b811115610a0b57600080fd5b820183602082011115610a1d57600080fd5b803590602001918460018302840111600160201b83111715610a3e57600080fd5b91908080601f0160208091040260200160405190810160405280939291908181526020018383808284376000920191909152509295505050903560ff169150611ed09050565b61031c60048036036040811015610a9a57600080fd5b5080359060200135611ff0565b610ac460048036036020811015610abd57600080fd5b5035612285565b60405180826006811115610ad457fe5b815260200191505060405180910390f35b610b0860048036036040811015610afb57600080fd5b508035906020013561229a565b60405180826003811115610ad457fe5b61032660048036036020811015610b2e57600080fd5b50356001600160a01b03166122ba565b610b5b60048036036020811015610b5457600080fd5b50356122cc565b6040805160208082528351818301528351919283929083019185019080838360005b83811015610b95578181015183820152602001610b7d565b50505050905090810190601f168015610bc25780820380516001836020036101000a031916815260200191505b509250505060405180910390f35b6103266123d9565b610bf560048036036020811015610bee57600080fd5b50356123df565b604080516001600160a01b039092168252519081900360200190f35b610c3760048036036020811015610c2757600080fd5b50356001600160a01b03166123fa565b60405180876001600160a01b0316815260200180602001866003811115610c5a57fe5b81526020018581526020018481526020018315158152602001828103825287818151815260200191508051906020019080838360005b83811015610ca8578181015183820152602001610c90565b50505050905090810190601f168015610cd55780820380516001836020036101000a031916815260200191505b5097505050505050505060405180910390f35b610bf560048036036020811015610cfe57600080fd5b50356124cc565b610d2260048036036020811015610d1b57600080fd5b50356124f3565b6040805195865261ffff948516602087015292841685840152921660608401526080830191909152519081900360a00190f35b61032660048036036040811015610d6b57600080fd5b506001600160a01b03813516906020013561254d565b61031c600480360360a0811015610d9757600080fd5b5080359061ffff60208201358116916040810135821691606082013516906080013561256a565b61031c60048036036060811015610dd457600080fd5b508035906001600160a01b03602082013581169160400135166127f3565b61032660048036036020811015610e0857600080fd5b810190602081018135600160201b811115610e2257600080fd5b820183602082011115610e3457600080fd5b803590602001918460018302840111600160201b83111715610e5557600080fd5b91908080601f016020809104026020016040519081016040528093929190818152602001838380828437600092019190915250929550612b5b945050505050565b61031c60048036036040811015610eac57600080fd5b50803590602001356001600160a01b0316612b79565b61031c60048036036080811015610ed857600080fd5b813591602081013591604082013515159190810190608081016060820135600160201b811115610f0757600080fd5b820183602082011115610f1957600080fd5b803590602001918460018302840111600160201b83111715610f3a57600080fd5b91908080601f016020809104026020016040519081016040528093929190818152602001838380828437600092019190915250929550612e1e945050505050565b610f9860048036036020811015610f9157600080fd5b5035613077565b604080519b8c5260208c019a909a528a8a019890985260608a0196909652608089019490945291151560a0880152151560c08701526001600160a01b031660e086015261010085015261012084015261014083015251908190036101600190f35b610bf56004803603602081101561100f57600080fd5b50356130de565b61031c6004803603602081101561102c57600080fd5b50356130f9565b610bf56004803603604081101561104957600080fd5b5080359060200135613238565b610bf561325e565b61031c6004803603604081101561107457600080fd5b50803590602001356001600160a01b031661326d565b610326600480360360208110156110a057600080fd5b50356001600160a01b0316613314565b6110b933611635565b60ff166002146110fe576040805162461bcd60e51b815260206004820152600b60248201526a3737ba10313aba31b432b960a91b604482015290519081900360640190fd5b60001984016000908152600f60205260409020546001600160a01b03163381146111595760405162461bcd60e51b81526004018080602001828103825260328152602001806134366032913960400191505060405180910390fd5b60001985016000908152600e6020526040902060028101859055831515600114156111d2576005818101805460ff1990811660019081179092558184015460001901600090815260209384526040808220600a018054600b87528284209084529095529020805490911660021790558154019055611220565b60058101805460ff191690556111e783612b5b565b60068201553360008181526012602090815260408083206013808452828520805486529184529184208b90559390925252805460010190555b4381600801819055507f3706529c3b770e240d326ce5db62326b6a5bb82fb9bf5240aed1a477ac0a6a5a8682600101548360050160029054906101000a90046001600160a01b03168760405180858152602001848152602001836001600160a01b03168152602001821515815260200180602001828103825260278152602001806133ba602791396040019550505050505060405180910390a1505050505050565b60006112cd33611635565b60ff16905090565b600360208190526000918252604090912080546002820154928201546004909201546001600160a01b0390911692919060ff1684565b6001600160a01b03811660009081526001602052604090206005015460ff165b919050565b600d5481565b600080546001600160a01b03838116911614611353576000611356565b60015b92915050565b601060209081526000928352604080842090915290825290205481565b60086020526000908152604090205481565b60001985016000908152600760205260409020546001600160a01b03163381146113ec576040805162461bcd60e51b815260206004820152600d60248201526c42756b616e2070656d696c696b60981b604482015290519081900360640190fd5b6000600560006001890381526020019081526020016000206008015490506040518060e00160405280336001600160a01b03168152602001888152602001841515815260200161143b88612b5b565b815260200161144987612b5b565b815260200185815260200143815250600a600060018a038152602001908152602001600020600083815260200190815260200160002060008201518160000160006101000a8154816001600160a01b0302191690836001600160a01b031602179055506020820151816001015560408201518160020160006101000a81548160ff021916908315150217905550606082015181600301556080820151816004015560a0820151816005015560c0820151816006015590505060006005600060018a038152602001908152602001600020905080600701600081548092919060010191905055504381600c01819055507f80cc500da9d4b036099bcfe9588787a1ea1ae789ede1bdcbc7bce2234377434133898360060160009054906101000a900460ff16878a60405180866001600160a01b03168152602001858152602001841515815260200183151581526020018060200180602001838103835284818151815260200191508051906020019080838360005b838110156115d55781810151838201526020016115bd565b50505050905090810190601f1680156116025780820380516001836020036101000a031916815260200191505b508381038252602e8152602001806133e1602e913960400197505050505050505060405180910390a15050505050505050565b6001600160a01b03811660009081526001602052604081206002015460ff16600381111561135657fe5b6009602090815260009283526040808420909152908252902080546001820154600283015460038401546004909401546001600160a01b0390931693919261ffff80831693620100008404821693600160201b90049091169187565b600560208190526000918252604090912080546001820154600283015460038401546004850154958501546006860154600787015460088801546009890154600a8a0154600b8b0154600c8c0154600d909c01549a9c999b989a979998969760ff96871697959694959394929391909216918e565b61173933611635565b60ff161561177b576040805162461bcd60e51b815260206004820152600a6024820152693737ba103330b936b2b960b11b604482015290519081900360640190fd5b336000908152600360205260409020600481015460ff1615156001146117e1576040805162461bcd60e51b8152602060048201526016602482015275546964616b206d656d696c696b69206b616e64616e6760501b604482015290519081900360640190fd5b60028054600081815260056020526040808220600193840193018390558354825280822084018f9055835482528082206003018e905592548152919091206004018a905561182e89612b5b565b60028054600090815260056020818152604080842083019590955583548352848320600690810180548f151560ff1991821617909155855485528685206001600990910181905586548652878620600b01805490921681179091558554855286852043600d90910181905586548652878620600c90810191909155338087526003855288872083015488548852958552888720959095558982018054808401825590875284872001899055848652600884528786208054909201909155855485526007835286852080546001600160a01b0319908116861790915595548552825285842084805290915293909120805490921617905560ff88169081111561193257fe5b60066000600254815260200190815260200160002060006101000a81548160ff0219169083600681111561196257fe5b0217905550611971813361326d565b61197e818787878761256a565b6002805460010190557f59728d79cf3e5cb55c04b4a04aaee85f847fd1f8e8f66e459d9e6aa19f7d2f3a33828a60ff8b1660068111156119ba57fe5b60405180856001600160a01b0316815260200184815260200183151581526020018260068111156119e757fe5b815290810360409081016020830152601a818301527f5361706920626572686173696c20646974616d6261686b616e2e00000000000060608301525190819003608001945092505050a1505050505050505050505050565b611a4a838383611ed0565b6001600160a01b0383166000908152600160205260409020600581015460ff16611ab3576040805162461bcd60e51b815260206004820152601560248201527420b73230903a34b230b5903a32b93230b33a30b91760591b604482015290519081900360640190fd5b6001600160a01b0384166000908152600360205260409020600481015460ff1615611b1a576040805162461bcd60e51b815260206004820152601260248201527125b0b73230b7339039bab230b41030b2309760711b604482015290519081900360640190fd5b6001600160a01b038516600081815260036020818152604080842080546001600160a01b0319908116871782554360028301819055948201949094556004908101805460ff191660019081179091558154908101825594527f8a35acfbc15ff81a39ae7d344fd709f28e8600b4aa8c65c6b64bfe7fe36bd19b909301805490921690931790558051338152918201819052601a828201527f4b616e64616e672074656c616820646974616d6261686b616e2e0000000000006060830152517f79eb59fc8b8b3040445bf628719d14beee1af14a5b8f6ae176fe9781409aabc29181900360800190a15050505050565b600a60209081526000928352604080842090915290825290208054600182015460028301546003840154600485015460058601546006909601546001600160a01b0390951695939460ff90931693919290919087565b60001901600090815260056020818152604080842060018101546002820154600383015460048401549684015460068086015497529490972054600b840154600c850154600d9095015493999298979660ff9081169591811694921692909190565b6001600160a01b0381166000908152600360209081526040918290206001810180548451818502810185019095528085526060949293830182828015611d2657602002820191906000526020600020905b815481526020019060010190808311611d12575b5050505050915050919050565b611d3c33611635565b60ff16600214611d81576040805162461bcd60e51b815260206004820152600b60248201526a3737ba10313aba31b432b960a91b604482015290519081900360640190fd5b60001981016000908152600f60205260409020546001600160a01b0316338114611ddc5760405162461bcd60e51b81526004018080602001828103825260328152602001806134366032913960400191505060405180910390fd5b60001982016000908152600e60205260409020600581015460ff161515600114611e375760405162461bcd60e51b81526004018080602001828103825260338152602001806135076033913960400191505060405180910390fd5b600181015460001981016000908152600560209081526040808320600b8101805460ff19169055815188815233938101849052918201849052608060608301818152602191840182905291947f9fc51fc9b779d8fd58764f2ede9aa8b75c148a17f309bd27ab96bc07849f12fd948a949093919290919060a083019061355e823960400194505050505060405180910390a15050505050565b6001600160a01b0383166000908152600160205260409020600581015460ff1615611efa57600080fd5b6040518060c00160405280856001600160a01b031681526020018481526020018360ff166003811115611f2957fe5b6003811115611f3457fe5b8152436020808301829052604080840192909252600160609093018390526001600160a01b03888116600090815284835292909220845181546001600160a01b03191693169290921782558381015180519293611f9993908501929190910190613326565b50604082015160028201805460ff19166001836003811115611fb757fe5b0217905550606082015160038201556080820151600482015560a0909101516005909101805460ff191691151591909117905550505050565b611ff933611635565b60ff1660021461203e576040805162461bcd60e51b815260206004820152600b60248201526a3737ba10313aba31b432b960a91b604482015290519081900360640190fd5b60001982016000908152600f60205260409020546001600160a01b03163381146120995760405162461bcd60e51b81526004018080602001828103825260328152602001806134366032913960400191505060405180910390fd5b60001983016000908152600e60205260409020600581015460ff1615156001146120f45760405162461bcd60e51b81526004018080602001828103825260338152602001806135076033913960400191505060405180910390fd5b600581015460ff6101009091041615156001146121425760405162461bcd60e51b81526004018080602001828103825260338152602001806134d46033913960400191505060405180910390fd5b6004810183905543600882015560018082015460001981016000908152600560209081526040808320600a81018054600b8552838620818752855294839020805460ff191660031790558054909601909555805184815233928101839052606091810182815260279282018390529495947f9b4897b8f4433a7cb9c852999fdddf7e17dd3f49bd8133f81ac29f52fcd5e4d493879390929190608083019061340f8239604001935050505060405180910390a17fe5f5d3728015d69b26d2ecb7fd94fbf1e2022f832781cc3b7a365bbe9e44db5e8785600101548660050160029054906101000a90046001600160a01b031660405180848152602001838152602001826001600160a01b03168152602001806020018281038252602481526020018061353a6024913960400194505050505060405180910390a150505050505050565b60066020526000908152604090205460ff1681565b600b60209081526000928352604080842090915290825290205460ff1681565b60136020526000908152604090205481565b606060005b60208160ff161080156122ff5750828160ff16602081106122ee57fe5b1a60f81b6001600160f81b03191615155b1561230c576001016122d1565b60608160ff1667ffffffffffffffff8111801561232857600080fd5b506040519080825280601f01601f191660200182016040528015612353576020820181803683370190505b509050600091505b60208260ff161080156123895750838260ff166020811061237857fe5b1a60f81b6001600160f81b03191615155b156123d257838260ff166020811061239d57fe5b1a60f81b818360ff16815181106123b057fe5b60200101906001600160f81b031916908160001a90535060019091019061235b565b9392505050565b60025481565b6007602052600090815260409020546001600160a01b031681565b600160208181526000928352604092839020805481840180548651600261010097831615979097026000190190911695909504601f81018590048502860185019096528585526001600160a01b03909116949193929091908301828280156124a35780601f10612478576101008083540402835291602001916124a3565b820191906000526020600020905b81548152906001019060200180831161248657829003601f168201915b505050600284015460038501546004860154600590960154949560ff9283169591945092501686565b600481815481106124d957fe5b6000918252602090912001546001600160a01b0316905081565b60001990810160009081526005602090815260408083206007015460098352818420940183529290522060018101546002820154600490920154909261ffff80841693620100008104821693600160201b90910490911691565b601260209081526000928352604080842090915290825290205481565b60001985016000908152600760205260409020546001600160a01b03163381146125cb576040805162461bcd60e51b815260206004820152600d60248201526c42756b616e2070656d696c696b60981b604482015290519081900360640190fd5b6000600560006001890381526020019081526020016000206007015490506040518060e00160405280336001600160a01b031681526020018881526020018761ffff1681526020018661ffff1681526020018561ffff168152602001848152602001438152506009600060018a038152602001908152602001600020600083815260200190815260200160002060008201518160000160006101000a8154816001600160a01b0302191690836001600160a01b031602179055506020820151816001015560408201518160020160006101000a81548161ffff021916908361ffff16021790555060608201518160020160026101000a81548161ffff021916908361ffff16021790555060808201518160020160046101000a81548161ffff021916908361ffff16021790555060a0820151816003015560c0820151816004015590505060006005600060018a038152602001908152602001600020905080600701600081548092919060010191905055504381600c01819055507fd9ae346ba3e96d80a8c72266031a3594f89ac7b19edae12d7a13acd2a703a92433898360060160009054906101000a900460ff168a8a8a60405180876001600160a01b0316815260200186815260200185151581526020018461ffff1681526020018361ffff1681526020018261ffff168152602001806020018281038252602e8152602001806133e1602e913960400197505050505050505060405180910390a15050505050505050565b60001983016000908152600760205260409020546001600160a01b0316338114612855576040805162461bcd60e51b815260206004820152600e60248201526d213ab5b0b7103832b6b4b634b59760911b604482015290519081900360640190fd5b600019840160008181526005602081815260408084206009810154600c8452828620818752845291852080546001600160a01b0319166001600160a01b038a1617905594909352528154600b83015491929160ff166128fb576040805162461bcd60e51b815260206004820152601c60248201527f546964616b20746572646170617420686577616e207465726e616b2e00000000604482015290519081900360640190fd5b6001600160a01b0385166000908152600360205260409020600481015460ff16612960576040805162461bcd60e51b8152602060048201526011602482015270546964616b20616461206b616e64616e6760781b604482015290519081900360640190fd5b6001600160a01b0387166000908152600360205260409020600481015460ff166129c5576040805162461bcd60e51b8152602060048201526011602482015270546964616b20616461206b616e64616e6760781b604482015290519081900360640190fd5b6001808301805486556009860180548301905580548083018255600091825260208083209091018c90556001600160a01b038a1680835260088252604080842080549095019094556000198d018352600790915291902080546001600160a01b0319169091179055612a37898861326d565b6001810180546000198101908110612a4b57fe5b9060005260206000200154816001018481548110612a6557fe5b60009182526020909120015560018101805480612a7e57fe5b6000828152602080822083016000199081018390559283019093556001600160a01b03808c16808352600885526040808420805486019055938e018352600b8552838320600a8a015484528552918390205483518e8152948501929092528a16918301919091527fccc9668de0bd7a1fed027ede406b6b5ad1ca3f2ca0c74d5771d72d3214c9b9c1918b918b918b9160ff169060608101826003811115612b2157fe5b81526020018060200182810382526021815260200180613468602191396040019550505050505060405180910390a1505050505050505050565b80516000908290612b7057506000905061132b565b50506020015190565b612b8233611635565b60ff16600114612bc7576040805162461bcd60e51b815260206004820152600b60248201526a3737ba1039ba37b1b5b2b960a91b604482015290519081900360640190fd5b60001982016000908152600760205260409020546001600160a01b0316338114612c29576040805162461bcd60e51b815260206004820152600e60248201526d213ab5b0b7103832b6b4b634b59760911b604482015290519081900360640190fd5b6001600160a01b038216600090815260016020526040902060028082015460ff166003811115612c5557fe5b14612c9b576040805162461bcd60e51b815260206004820152601160248201527020b630b6b0ba102928241039b0b630b41760791b604482015290519081900360640190fd5b60001984016000908152600560205260409020600b81015460ff1615612d01576040805162461bcd60e51b8152602060048201526016602482015275486577616e207465726e616b20746964616b2061646160501b604482015290519081900360640190fd5b600d80546000818152600e60209081526040808320600194850190819055855484528184209094018a905584548352808320600501805462010000600160b01b031916620100006001600160a01b038c81169182029290921790925586548552828520436007918201819055885487528487206008015596548552600f845282852080546001600160a01b031916831790556000198c018552958352928190205481519516808652918501929092529083018890526060830182905260a060808401818152602491850182905292937f07f2c6ec2e675fb1f5ec2f182c53e76354c9dfeb9762206defee5339235b527c9389928b928792909160c08301906134b082396040019550505050505060405180910390a1505050505050565b612e2733611635565b60ff16600214612e6c576040805162461bcd60e51b815260206004820152600b60248201526a3737ba10313aba31b432b960a91b604482015290519081900360640190fd5b60001984016000908152600f60205260409020546001600160a01b0316338114612ec75760405162461bcd60e51b81526004018080602001828103825260328152602001806134366032913960400191505060405180910390fd5b60001985016000908152600e60205260409020600581015460ff161515600114612f225760405162461bcd60e51b81526004018080602001828103825260338152602001806135076033913960400191505060405180910390fd5b60038101859055612f3286611d33565b60018415151415612f865760058101805461ff0019166101001790553360008181526010602090815260408083206011808452828520805486529184529184208b9055939092525280546001019055612fd5565b60058101805461ff0019169055612f9c83612b5b565b60068201553360008181526012602090815260408083206013808452828520805486529184529184208b90559390925252805460010190555b4381600801819055507f53688131b281894e1014984949309fb43c3a6e61233ab44f77d24e5453c8099b8682600101548360050160029054906101000a90046001600160a01b03168760405180858152602001848152602001836001600160a01b0316815260200182151581526020018060200182810382526027815260200180613489602791396040019550505050505060405180910390a1505050505050565b600e602052600090815260409020805460018201546002830154600384015460048501546005860154600687015460078801546008909801549697959694959394929360ff808416946101008504909116936201000090046001600160a01b03169291908b565b600f602052600090815260409020546001600160a01b031681565b61310233611635565b60ff1615613144576040805162461bcd60e51b815260206004820152600a6024820152693737ba103330b936b2b960b11b604482015290519081900360640190fd5b60001981016000908152600760205260409020546001600160a01b03163381146131a6576040805162461bcd60e51b815260206004820152600e60248201526d213ab5b0b7103832b6b4b634b59760911b604482015290519081900360640190fd5b60001982016000908152600560209081526040808320600b8101805460ff19169055815186815233938101849052918201849052608060608301818152602191840182905291947f9fc51fc9b779d8fd58764f2ede9aa8b75c148a17f309bd27ab96bc07849f12fd9488949093919290919060a083019061355e823960400194505050505060405180910390a1505050565b600c6020908152600092835260408084209091529082529020546001600160a01b031681565b6000546001600160a01b031681565b60001982016000908152600560205260408120600a810154909161329084611635565b9050600060ff82166132a65760005b90506132c9565b8160ff16600114156132b957600161329f565b8160ff16600214156132c9575060025b60001986016000908152600b602090815260408083208684529091529020805482919060ff191660018360038111156132fe57fe5b0217905550505050600a01805460010190555050565b60116020526000908152604090205481565b828054600181600116156101000203166002900490600052602060002090601f016020900481019282601f1061336757805160ff1916838001178555613394565b82800160010185558215613394579182015b82811115613394578251825591602001919060010190613379565b506133a09291506133a4565b5090565b5b808211156133a057600081556001016133a556fe54656c61682064696c616b756b616e2070656d6572696b7361616e20616e74656d6f7274656d2e5269776179617420626572617420626164616e207361706920626572686173696c20646974616d6261686b616e2e537461746520686577616e207465726e616b2064697275626168206d656e6a616469206265656652756d61682050656d6f746f6e67616e20486577616e20746964616b206461706174206d656c616b756b616e20616b73692e486577616e207465726e616b20626572686173696c206469207472616e7366657254656c61682064696c616b756b616e2070656d6572696b7361616e20706f73746d6f7274656d2e50656d62756174616e206265656620626572686173696c20646974616d6261686b616e2e506f73746d6f7274656d206469746f6c616b2c20736568696e67676120746964616b20626973612064696c616e6a75746b616e416e74656d6f7274656d206469746f6c616b2c20736568696e67676120746964616b20626973612064696c616e6a75746b616e54656c61682064696c616b756b616e2070656d62756e676b7573616e20646167696e672e53746174757320686577616e207465726e616b2074656c6168206469756261682ea26469706673582212202ab4974b1f7299308e62cbfbb39bc2d1e24a2b866b5d1ae5922dfe553d4e2d7e64736f6c634300060c0033",
  "immutableReferences": {},
  "source": "// SPDX-License-Identifier: GPL-3.0\r\n\r\npragma solidity >=0.5.0 <0.7.0;\r\n\r\n/**\r\n * @title UserManager\r\n * @dev Mengontrol role dari user\r\n */\r\ncontract UserManager {\r\n    address public admin;\r\n\r\n    enum Role {\r\n        farmer,\r\n        stocker,\r\n        butcher,\r\n        retailer\r\n    }\r\n\r\n    struct User {\r\n        address userAddress;\r\n        string name;\r\n        Role role;\r\n        uint256 timeUpdated;\r\n        uint256 timeCreated;\r\n        bool active;\r\n    }\r\n\r\n    mapping(address => User) public users;\r\n\r\n    constructor() public {\r\n        admin = msg.sender;\r\n    }\r\n\r\n    function registerUser(\r\n        address _address,\r\n        string memory _name,\r\n        uint8 _role\r\n    ) public {\r\n        User storage _user = users[_address];\r\n\r\n        require(!_user.active);\r\n\r\n        users[_address] = User({\r\n            userAddress: _address,\r\n            name: _name,\r\n            role: Role(_role),\r\n            timeUpdated: block.number,\r\n            timeCreated: block.number,\r\n            active: true\r\n        });\r\n    }\r\n\r\n    function getRole(address _address) public view returns (uint8) {\r\n        return uint8(users[_address].role);\r\n    }\r\n\r\n    function checkRole() public view returns (uint256) {\r\n        return getRole(msg.sender);\r\n    }\r\n\r\n    function checkUser(address _address) public view returns (bool) {\r\n        return users[_address].active;\r\n    }\r\n\r\n    function isAdmin(address _address) public view returns (bool) {\r\n        return (_address == admin) ? true : false;\r\n    }\r\n\r\n    modifier onlyFarmer {\r\n        require(getRole(msg.sender) == 0, \"not farmer\");\r\n        _;\r\n    }\r\n\r\n    modifier onlyStocker {\r\n        require(getRole(msg.sender) == 1, \"not stocker\");\r\n        _;\r\n    }\r\n\r\n    modifier onlyButcher {\r\n        require(getRole(msg.sender) == 2, \"not butcher\");\r\n        _;\r\n    }\r\n}\r\n\r\n/**\r\n * @title LivestockManager\r\n * @dev Mengontrol pembuatan livestock dan distribusi\r\n */\r\ncontract LivestockManager is UserManager {\r\n    struct Cowshed {\r\n        address ownerId;\r\n        //uint256 livestockCount;\r\n        uint256[] lsId;\r\n        uint256 timeUpdated;\r\n        uint256 timeCreated;\r\n        bool status;\r\n    }\r\n\r\n    enum State {\r\n        farmer,\r\n        stocker,\r\n        butcher,\r\n        beef\r\n    }\r\n    enum Race {\r\n        bali,\r\n        madura,\r\n        brahman,\r\n        PO,\r\n        brahmanCross,\r\n        ongole,\r\n        aceh\r\n    }\r\n\r\n    struct Livestock {\r\n        uint256 farmIndex;\r\n        uint256 lsId;\r\n        uint256 fatherId;\r\n        uint256 motherId;\r\n        uint256 birthDay;\r\n        bytes32 earTag;\r\n        bool gender;\r\n        uint256 wrCount;\r\n        uint256 hrCount;\r\n        uint256 transterCount;\r\n        uint256 stateCount;\r\n        bool status;\r\n        uint256 timeUpdated;\r\n        uint256 timeCreated;\r\n    }\r\n\r\n    struct WeightRecord {\r\n        address actor;\r\n        uint256 lsId;\r\n        uint16 weight;\r\n        uint16 length;\r\n        uint16 heartGrith;\r\n        uint256 timeRecord;\r\n        uint256 timeCreated;\r\n    }\r\n\r\n    struct HealthRecord {\r\n        address actor;\r\n        uint256 lsId;\r\n        bool sick;\r\n        bytes32 description;\r\n        bytes32 action;\r\n        uint256 timeRecord;\r\n        uint256 timeCreated;\r\n    }\r\n\r\n    /// @dev Untuk mengetahui total semua hewan ternak yang terdapat pada blockchain.\r\n    uint256 public globalLSCount = 0;\r\n\r\n    /// @dev Menyimpan data struct Cowshed berdasarkan address yang dimiliki.\r\n    mapping(address => Cowshed) public cowsheds;\r\n    address[] public cowshedAddress;\r\n\r\n    /// @dev Meyimpan data scruct livestock berdarsarkan id.\r\n    mapping(uint256 => Livestock) public livestocks;\r\n\r\n    /// @dev Menyimpan data livestock dan rasnya.\r\n    mapping(uint256 => Race) public livestockRace;\r\n\r\n    /// @dev Untuk mengetahui hewan ternak dimiliki oleh owner.\r\n    mapping(uint256 => address) public livestockOwner;\r\n\r\n    /// @dev Untuk mengetahui banyaknya hewan ternak yang dimiliki oleh owner.\r\n    mapping(address => uint256) public livestockCounts;\r\n\r\n    //WeightRecord[][] public wRecords;\r\n    /// @dev Menyimpan data stuct WeightRecord atau riwayat berat badan berdasarkan\r\n    ///  id dari hewan ternak.\r\n    mapping(uint256 => mapping(uint256 => WeightRecord)) public wRecords;\r\n    //uint256 wRecordsCount;\r\n\r\n    /// @dev Menyimpan data stuct HealthRecord atau riwayat kesehatan berdasarkan\r\n    ///   id dari hewan ternak.\r\n    mapping(uint256 => mapping(uint256 => HealthRecord)) public hRecords;\r\n\r\n    /// @dev Menyimpan state dari hewan ternak berdasarkan id hewan ternak.\r\n    ///   Hal ini dgunakan untuk mengetahui tahap yang dilalui hewan ternak.\r\n    mapping(uint256 => mapping(uint256 => State)) public livestockStates;\r\n\r\n    /// @dev Menyimpan address pemilik dari hewan ternak. Sehingga ketika dipanggil\r\n    ///   riwayat pemilik dari hewan ternak dapat dilihat.\r\n    mapping(uint256 => mapping(uint256 => address)) public livestockTransfers;\r\n\r\n    event RegisterCowshed(address ownerId, string description);\r\n\r\n    event RegisterLivestock(\r\n        address ownerId,\r\n        uint256 lsId,\r\n        bool gender,\r\n        Race race,\r\n        string description\r\n    );\r\n\r\n    event AddWeight(\r\n        address ownerId,\r\n        uint256 lsId,\r\n        bool gender,\r\n        uint16 weight,\r\n        uint16 length,\r\n        uint16 heartGrith,\r\n        string description\r\n    );\r\n\r\n    event AddHealth(\r\n        address ownerId,\r\n        uint256 lsId,\r\n        bool gender,\r\n        bool sick,\r\n        string action,\r\n        string description\r\n    );\r\n\r\n    event Transfer(\r\n        uint256 lsId,\r\n        address _from,\r\n        address _to,\r\n        State state,\r\n        string description\r\n    );\r\n\r\n    event livestockStatus(\r\n        uint256 id,\r\n        address actor,\r\n        bool status,\r\n        string description\r\n    );\r\n\r\n    function registerCowshed(\r\n        address _address,\r\n        string memory _name,\r\n        uint8 _role\r\n    ) public {\r\n        registerUser(_address, _name, _role);\r\n\r\n        User storage _user = users[_address];\r\n        require(_user.active, \"Anda tidak terdaftar.\");\r\n\r\n        Cowshed storage _cowshed = cowsheds[_address];\r\n        require(!_cowshed.status, \"Kandang sudah ada.\");\r\n\r\n        cowsheds[_address].ownerId = _address;\r\n        //farms[msg.sender].livestockCount = 0;\r\n        cowsheds[_address].timeUpdated = block.number;\r\n        cowsheds[_address].timeCreated = block.number;\r\n        cowsheds[_address].status = true;\r\n\r\n        cowshedAddress.push(_address);\r\n\r\n        emit RegisterCowshed(msg.sender, \"Kandang telah ditambahkan.\");\r\n    }\r\n\r\n    function registerLivestock(\r\n        uint256 _fatherId,\r\n        uint256 _motherId,\r\n        uint256 _birthDay,\r\n        string memory _eartag,\r\n        bool _gender,\r\n        uint8 _race,\r\n        uint16 _weight,\r\n        uint16 _length,\r\n        uint16 _heartGrith,\r\n        uint256 _time\r\n    ) public onlyFarmer {\r\n        // uint256 id = livestocks.length + 1;\r\n\r\n        // Livestock memory newLivestock;\r\n        // newLivestock.lsId = id;\r\n        // newLivestock.currentFarm = msg.sender;\r\n        // newLivestock.fatherId = _fatherId;\r\n        // newLivestock.motherId = _motherId;\r\n        // newLivestock.birthDay = _birthDay;\r\n        // newLivestock.earTag = stringToBytes32(_eartag);\r\n        // newLivestock.gender = Gender(_gender);\r\n        // newLivestock.wrCount = 0;\r\n        // newLivestock.status = true;\r\n        // newLivestock.timeCreated = block.number;\r\n        // newLivestock.timeUpdated = block.number;\r\n        // livestocks.push(newLivestock);\r\n\r\n        Cowshed storage _cowshed = cowsheds[msg.sender];\r\n        require(_cowshed.status == true, \"Tidak memiliki kandang\");\r\n\r\n        uint256 newId = globalLSCount + 1;\r\n\r\n        livestocks[globalLSCount].lsId = newId;\r\n        livestocks[globalLSCount].fatherId = _fatherId;\r\n        livestocks[globalLSCount].motherId = _motherId;\r\n        livestocks[globalLSCount].birthDay = _birthDay;\r\n        livestocks[globalLSCount].earTag = stringToBytes32(_eartag);\r\n        livestocks[globalLSCount].gender = _gender;\r\n        livestocks[globalLSCount].transterCount = 1;\r\n        livestocks[globalLSCount].status = true;\r\n        livestocks[globalLSCount].timeCreated = block.number;\r\n        livestocks[globalLSCount].timeUpdated = block.number;\r\n        livestocks[globalLSCount].farmIndex = cowsheds[msg.sender].lsId.length;\r\n\r\n        //_farm.livestockCount++;\r\n        _cowshed.lsId.push(newId);\r\n\r\n        livestockCounts[msg.sender]++;\r\n        livestockOwner[globalLSCount] = msg.sender;\r\n        livestockTransfers[globalLSCount][0] = msg.sender;\r\n        livestockRace[globalLSCount] = Race(_race);\r\n\r\n        changeState(newId, msg.sender);\r\n\r\n        registerWRecord(newId, _weight, _length, _heartGrith, _time);\r\n\r\n        globalLSCount++;\r\n\r\n        emit RegisterLivestock(\r\n            msg.sender,\r\n            newId,\r\n            _gender,\r\n            Race(_race),\r\n            \"Sapi berhasil ditambahkan.\"\r\n        );\r\n    }\r\n\r\n    function registerWRecord(\r\n        uint256 _lsId,\r\n        uint16 _weight,\r\n        uint16 _length,\r\n        uint16 _heartGrith,\r\n        uint256 _time\r\n    ) public {\r\n        /*WeightRecord memory newWRecord;\r\n        \r\n        newWRecord.lsId = _lsId;\r\n        newWRecord.weight = _weight;\r\n        newWRecord.length = _length;\r\n        newWRecord.height = _height;\r\n        newWRecord.latest = true;\r\n        newWRecord.timeCreated = block.number;\r\n        newWRecord.timeUpdated = block.number;\r\n        \r\n        wRecords.push(newWRecord);*/\r\n\r\n        //wRecordsCount++;\r\n\r\n        //Livestock storage ls = livestocks[_lsId - 1];\r\n\r\n        //wRecords[wRecordsCount] = WeightRecord(wRecordsCount, _lsId, _weight, _length, _height, block.number, block.number);\r\n\r\n        address owner = livestockOwner[_lsId - 1];\r\n\r\n        require(owner == msg.sender, \"Bukan pemilik\");\r\n\r\n        uint256 x = livestocks[_lsId - 1].wrCount;\r\n        wRecords[_lsId - 1][x] = WeightRecord({\r\n            actor: msg.sender,\r\n            lsId: _lsId,\r\n            weight: _weight,\r\n            length: _length,\r\n            heartGrith: _heartGrith,\r\n            timeRecord: _time,\r\n            timeCreated: block.number\r\n        });\r\n\r\n        Livestock storage _livestock = livestocks[_lsId - 1];\r\n\r\n        _livestock.wrCount++;\r\n        _livestock.timeUpdated = block.number;\r\n\r\n        emit AddWeight(\r\n            msg.sender,\r\n            _lsId,\r\n            _livestock.gender,\r\n            _weight,\r\n            _length,\r\n            _heartGrith,\r\n            \"Riwayat berat badan sapi berhasil ditambahkan.\"\r\n        );\r\n    }\r\n\r\n    function registerHRecord(\r\n        uint256 _lsId,\r\n        string memory _description,\r\n        string memory _action,\r\n        uint256 _time,\r\n        bool _sick\r\n    ) public {\r\n        /*WeightRecord memory newWRecord;\r\n        \r\n        newWRecord.lsId = _lsId;\r\n        newWRecord.weight = _weight;\r\n        newWRecord.length = _length;\r\n        newWRecord.height = _height;\r\n        newWRecord.latest = true;\r\n        newWRecord.timeCreated = block.number;\r\n        newWRecord.timeUpdated = block.number;\r\n        \r\n        wRecords.push(newWRecord);*/\r\n\r\n        //wRecordsCount++;\r\n\r\n        //Livestock storage ls = livestocks[_lsId - 1];\r\n\r\n        //wRecords[wRecordsCount] = WeightRecord(wRecordsCount, _lsId, _weight, _length, _height, block.number, block.number);\r\n\r\n        address owner = livestockOwner[_lsId - 1];\r\n\r\n        require(owner == msg.sender, \"Bukan pemilik\");\r\n\r\n        uint256 x = livestocks[_lsId - 1].hrCount;\r\n        hRecords[_lsId - 1][x] = HealthRecord({\r\n            actor: msg.sender,\r\n            lsId: _lsId,\r\n            sick: _sick,\r\n            description: stringToBytes32(_description),\r\n            action: stringToBytes32(_action),\r\n            timeRecord: _time,\r\n            timeCreated: block.number\r\n        });\r\n\r\n        Livestock storage _livestock = livestocks[_lsId - 1];\r\n\r\n        _livestock.wrCount++;\r\n        _livestock.timeUpdated = block.number;\r\n\r\n        emit AddHealth(\r\n            msg.sender,\r\n            _lsId,\r\n            _livestock.gender,\r\n            _sick,\r\n            _action,\r\n            \"Riwayat berat badan sapi berhasil ditambahkan.\"\r\n        );\r\n    }\r\n\r\n    //function getWeightRecord(uint256 _lsid)\r\n\r\n    function getLivestock(uint256 _id)\r\n        public\r\n        view\r\n        returns (\r\n            uint256 _lsId,\r\n            uint256 _fatherId,\r\n            uint256 _motherId,\r\n            uint256 _birthDay,\r\n            bytes32 _eartag,\r\n            bool _gender,\r\n            bool _status,\r\n            Race _race,\r\n            uint256 _timeUpdated,\r\n            uint256 _timeCreated\r\n        )\r\n    {\r\n        Livestock storage ls = livestocks[_id - 1];\r\n\r\n        _lsId = ls.lsId;\r\n        _fatherId = ls.fatherId;\r\n        _motherId = ls.motherId;\r\n        _birthDay = ls.birthDay;\r\n        _eartag = ls.earTag;\r\n        _gender = ls.gender;\r\n        _race = livestockRace[_id - 1];\r\n        _status = ls.status;\r\n        _timeUpdated = ls.timeUpdated;\r\n        _timeCreated = ls.timeCreated;\r\n    }\r\n\r\n    function getLastWR(uint256 _id)\r\n        public\r\n        view\r\n        returns (\r\n            uint256 _lsId,\r\n            uint16 _weight,\r\n            uint16 _length,\r\n            uint16 _heartGrith,\r\n            uint256 _timeCreated\r\n        )\r\n    {\r\n        uint256 x = livestocks[_id - 1].wrCount;\r\n\r\n        WeightRecord storage wr = wRecords[_id - 1][x - 1];\r\n        _lsId = wr.lsId;\r\n        _weight = wr.weight;\r\n        _length = wr.length;\r\n        _heartGrith = wr.heartGrith;\r\n        _timeCreated = wr.timeCreated;\r\n    }\r\n\r\n    /// @dev getFarmLS digunakan utnuk mecari id livestock yang telah disimpan\r\n    ///   didalam array int lsId. uint256[] memory diperlukan untuk memanggil array.\r\n    /// @param _from merupakan address yang ingin diketahui livestocknya.\r\n    /// @param _ls merupakan retruns yang akan diberikan berupa array.\r\n    function getFarmLS(address _from)\r\n        public\r\n        view\r\n        returns (uint256[] memory _ls)\r\n    {\r\n        Cowshed storage _cowshed = cowsheds[_from];\r\n        _ls = _cowshed.lsId;\r\n    }\r\n\r\n    function transfer(\r\n        uint256 _id,\r\n        address _from,\r\n        address _to\r\n    ) public {\r\n        address owner = livestockOwner[_id - 1];\r\n\r\n        require(owner == msg.sender, \"Bukan pemilik.\");\r\n\r\n        // Tambah transferCount yang terdapat di id livestock yang akan ditransfer.\r\n        uint256 x = livestocks[_id - 1].transterCount;\r\n        livestockTransfers[_id - 1][x] = _to;\r\n\r\n        // Deklarasi livestock untuk diambil index sebelum dihapus.\r\n        Livestock storage _ls = livestocks[_id - 1];\r\n        uint256 index = _ls.farmIndex;\r\n        // Check apakah hewan ternak masih ada atau tidak.\r\n        require(_ls.status, \"Tidak terdapat hewan ternak.\");\r\n\r\n        // Deklarasi _add untuk peternakan yang ingin ditambahkan hewan ternak.\r\n        Cowshed storage _add = cowsheds[_to];\r\n        require(_add.status, \"Tidak ada kandang\");\r\n\r\n        // Deklarasi _remove untuk peternakan yang ingin dikurangi hewan ternaknya.\r\n        Cowshed storage _remove = cowsheds[_from];\r\n        require(_remove.status, \"Tidak ada kandang\");\r\n\r\n        // Tambah hewan ternak pada address yang dituju.\r\n\r\n        // Ubah farmIndex pada hewan ternak berdasarkan ukuran lsId peternakan.\r\n        _ls.farmIndex = _add.lsId.length;\r\n        // Menambah transferCount untuk iterasi livestockTransfers.\r\n        _ls.transterCount++;\r\n        // Push lsId peternakan dengan id hewan ternak yang ditambahkan.\r\n        _add.lsId.push(_id);\r\n        // Menambahkan kepemilikan hewan ternak yang dimiliki oleh peternak.\r\n        livestockCounts[_to]++;\r\n        // Merubah pemilik hewan ternak ke pemilik yang baru.\r\n        livestockOwner[_id - 1] = _to;\r\n\r\n        // Merubah state hewan ternak sesuai dengan role pemilik.\r\n        changeState(_id, _to);\r\n\r\n        // Kurangi hewan ternak pada address semula.\r\n\r\n        // Memindah isi dari index dengan index terakhir.\r\n        _remove.lsId[index] = _remove.lsId[_remove.lsId.length - 1];\r\n        // Menghapus array di index terakhir.\r\n        _remove.lsId.pop();\r\n        // mengurangi kepemilikan hewan ternak yang dimiliki oleh peternak.\r\n        livestockCounts[_from]--;\r\n\r\n        emit Transfer(\r\n            _id,\r\n            _from,\r\n            _to,\r\n            State(livestockStates[_id - 1][_ls.stateCount]),\r\n            \"Hewan ternak berhasil di transfer\"\r\n        );\r\n    }\r\n\r\n    /// @dev changeState dugunakan untuk merubah sate dari livetock apakah pada\r\n    ///   state farmer (0), stocker (1), dan butcher (2). State tersebut tergantung\r\n    ///   dari role yang dimiliki oleh address.\r\n    /// @param _id merupakan id livestok yang akan diubah.\r\n    /// @param _to merupakan address owner dari livestock tersebut.\r\n    function changeState(uint256 _id, address _to) public {\r\n        Livestock storage _ls = livestocks[_id - 1];\r\n        uint256 x = _ls.stateCount;\r\n\r\n        uint8 role = getRole(_to);\r\n\r\n        State _state;\r\n\r\n        if (role == 0) {\r\n            _state = State(0);\r\n        } else if (role == 1) {\r\n            _state = State(1);\r\n        } else if (role == 2) {\r\n            _state = State(2);\r\n        }\r\n\r\n        livestockStates[_id - 1][x] = _state;\r\n\r\n        _ls.stateCount++;\r\n    }\r\n\r\n    /// @dev changeStatus Digunakan untuk merubah status dari hewan ternak dari true\r\n    ///   menjadi false, atau dari hidup menjadi mati.\r\n    /// @param _id merupakan id dari hewan ternak.\r\n    function changeStatus(uint256 _id) public onlyFarmer {\r\n        address owner = livestockOwner[_id - 1];\r\n\r\n        require(owner == msg.sender, \"Bukan pemilik.\");\r\n\r\n        Livestock storage _ls = livestocks[_id - 1];\r\n        _ls.status = false;\r\n\r\n        emit livestockStatus(\r\n            _id,\r\n            msg.sender,\r\n            false,\r\n            \"Status hewan ternak telah diubah.\"\r\n        );\r\n    }\r\n\r\n    function stringToBytes32(string memory source)\r\n        public\r\n        pure\r\n        returns (bytes32 result)\r\n    {\r\n        bytes memory tempEmptyStringTest = bytes(source);\r\n        if (tempEmptyStringTest.length == 0) {\r\n            return 0x0;\r\n        }\r\n\r\n        assembly {\r\n            result := mload(add(source, 32))\r\n        }\r\n    }\r\n\r\n    function bytes32ToString(bytes32 _bytes32)\r\n        public\r\n        pure\r\n        returns (string memory)\r\n    {\r\n        uint8 i = 0;\r\n        while (i < 32 && _bytes32[i] != 0) {\r\n            i++;\r\n        }\r\n        bytes memory bytesArray = new bytes(i);\r\n        for (i = 0; i < 32 && _bytes32[i] != 0; i++) {\r\n            bytesArray[i] = _bytes32[i];\r\n        }\r\n        return string(bytesArray);\r\n    }\r\n}\r\n\r\n/**\r\n * @title SlaughterManager\r\n * @dev Mengontrol pemrosesan sapi menjadi daging\r\n */\r\ncontract SlaughterManager is LivestockManager {\r\n    struct Beef {\r\n        uint256 beefId;\r\n        uint256 lsId;\r\n        uint256 dateAnte;\r\n        uint256 datePost;\r\n        uint256 datePack;\r\n        bool ante;\r\n        bool post;\r\n        address slaughterHouse;\r\n        bytes32 desc;\r\n        uint256 timeCreated;\r\n        uint256 timeUpdated;\r\n    }\r\n\r\n    /// @dev Untuk mengetahui total semua livestock yang akan dijadikan beef;\r\n    uint256 public beefCount = 0;\r\n\r\n    /// @dev Menyimpan strtuct Beef sebagai data apakah livestock tersebut akan dijadikan daging.\r\n    mapping(uint256 => Beef) public beefs;\r\n\r\n    /// @dev Sebagai penunjuk apakah beef disetujui atau tidak oleh RPH.\r\n    mapping(uint256 => address) public beefApproval;\r\n\r\n    mapping(address => mapping(uint256 => uint256)) public beefAprroveds;\r\n    mapping(address => uint256) public approveCount;\r\n\r\n    mapping(address => mapping(uint256 => uint256)) public beefDenieds;\r\n    mapping(address => uint256) public deniedCount;\r\n\r\n    event RegisterBeef(\r\n        address ownerId,\r\n        address butcher,\r\n        uint256 lsId,\r\n        uint256 beefId,\r\n        string description\r\n    );\r\n\r\n    event Antemortem(\r\n        uint256 beefId,\r\n        uint256 lsId,\r\n        address butcher,\r\n        bool approved,\r\n        string description\r\n    );\r\n\r\n    event Postmortem(\r\n        uint256 beefId,\r\n        uint256 lsId,\r\n        address butcher,\r\n        bool approved,\r\n        string description\r\n    );\r\n\r\n    event PackBeef(\r\n        uint256 beefId,\r\n        uint256 lsId,\r\n        address butcher,\r\n        string description\r\n    );\r\n\r\n    event StateToBeef(uint256 lsId, address butcher, string description);\r\n\r\n    /// @dev registerBeef merupakan fungsi yang diugnakan untuk menambah livestock yang\r\n    ///   akan diubah menjadi beef.\r\n    /// @param _id digunakan untuk mengetahui livestok yang akan diubah.\r\n    /// @param _to digunakan untuk mengetahui tempat pemotongan livetock.\r\n    function registerBeef(uint256 _id, address _to) public onlyStocker {\r\n        address owner = livestockOwner[_id - 1];\r\n        require(owner == msg.sender, \"Bukan pemilik.\");\r\n\r\n        User storage _user = users[_to];\r\n        require(_user.role == Role(2), \"Alamat RPH salah.\");\r\n\r\n        Livestock storage _ls = livestocks[_id - 1];\r\n        require(!_ls.status, \"Hewan ternak tidak ada\");\r\n\r\n        uint256 newId = beefCount + 1;\r\n\r\n        beefs[beefCount].beefId = newId;\r\n        beefs[beefCount].lsId = _id;\r\n        beefs[beefCount].slaughterHouse = _to;\r\n        beefs[beefCount].timeCreated = block.number;\r\n        beefs[beefCount].timeUpdated = block.number;\r\n\r\n        beefApproval[beefCount] = _to;\r\n\r\n        emit RegisterBeef(\r\n            livestockOwner[_id - 1],\r\n            _to,\r\n            _id,\r\n            newId,\r\n            \"Pembuatan beef berhasil ditambahkan.\"\r\n        );\r\n    }\r\n\r\n    /// @dev checkAntemortem merupakan fungsi yang digunakan untuk merubah atribut pada struct\r\n    ///   beef seperti ante dan dateAnte, sehingga dapat diketahui, sapi diterima atau tidak.\r\n    /// @param _id Merupakan id dari beef yang akan dipotong. id tidak boleh 0.\r\n    /// @param _epox Merupakan tanggal yang dikonversikan menjadi integer.\r\n    /// @param _approval Merupakan input dari user apakah setuju atau tidak.\r\n    /// @param _desc Merupakan deskripsi yang dimasukkan oleh user jika menolak sapi.\r\n    function checkAntemortem(\r\n        uint256 _id,\r\n        uint256 _epox,\r\n        bool _approval,\r\n        string memory _desc\r\n    ) public onlyButcher {\r\n        address slaughter = beefApproval[_id - 1];\r\n        require(\r\n            slaughter == msg.sender,\r\n            \"Rumah Pemotongan Hewan tidak dapat melakukan aksi.\"\r\n        );\r\n\r\n        Beef storage _beef = beefs[_id - 1];\r\n        _beef.dateAnte = _epox;\r\n\r\n        if (_approval == true) {\r\n            _beef.ante = true;\r\n\r\n            // Merubah state livestock menjadi butcher.\r\n            uint256 lsId = _beef.lsId;\r\n\r\n            Livestock storage _ls = livestocks[lsId - 1];\r\n            uint256 x = _ls.stateCount;\r\n            livestockStates[lsId - 1][x] = State.butcher;\r\n            _ls.stateCount++;\r\n        } else {\r\n            _beef.ante = false;\r\n            _beef.desc = stringToBytes32(_desc);\r\n\r\n            beefDenieds[msg.sender][deniedCount[msg.sender]] = _id;\r\n            deniedCount[msg.sender]++;\r\n        }\r\n\r\n        _beef.timeUpdated = block.number;\r\n\r\n        emit Antemortem(\r\n            _id,\r\n            _beef.lsId,\r\n            _beef.slaughterHouse,\r\n            _approval,\r\n            \"Telah dilakukan pemeriksaan antemortem.\"\r\n        );\r\n    }\r\n\r\n    /// @dev checkPostmortem Merupakan fungsi yang digunakan untuk merubah atribut pada struct\r\n    ///   beef seperti post dan datePost, sehingga dapat diketahui, daging yang dipotong sehat.\r\n    /// @param _id Merupakan id dari beef yang akan dipotong. id tidak boleh 0.\r\n    /// @param _epox Merupakan tanggal yang dikonversikan menjadi integer.\r\n    /// @param _approval Merupakan input dari user apakah setuju atau tidak.\r\n    /// @param _desc Merupakan deskripsi yang dimasukkan oleh user jika terdapat penyakit.\r\n    function checkPostmortem(\r\n        uint256 _id,\r\n        uint256 _epox,\r\n        bool _approval,\r\n        string memory _desc\r\n    ) public onlyButcher {\r\n        address slaughter = beefApproval[_id - 1];\r\n        require(\r\n            slaughter == msg.sender,\r\n            \"Rumah Pemotongan Hewan tidak dapat melakukan aksi.\"\r\n        );\r\n\r\n        Beef storage _beef = beefs[_id - 1];\r\n\r\n        require(\r\n            _beef.ante == true,\r\n            \"Antemortem ditolak, sehingga tidak bisa dilanjutkan\"\r\n        );\r\n\r\n        _beef.datePost = _epox;\r\n\r\n        slaughtering(_id);\r\n\r\n        if (_approval == true) {\r\n            _beef.post = true;\r\n\r\n            beefAprroveds[msg.sender][approveCount[msg.sender]] = _id;\r\n            approveCount[msg.sender]++;\r\n        } else {\r\n            _beef.post = false;\r\n            _beef.desc = stringToBytes32(_desc);\r\n\r\n            beefDenieds[msg.sender][deniedCount[msg.sender]] = _id;\r\n            deniedCount[msg.sender]++;\r\n        }\r\n\r\n        _beef.timeUpdated = block.number;\r\n\r\n        emit Postmortem(\r\n            _id,\r\n            _beef.lsId,\r\n            _beef.slaughterHouse,\r\n            _approval,\r\n            \"Telah dilakukan pemeriksaan postmortem.\"\r\n        );\r\n    }\r\n\r\n    /// @dev packingBeef Merupakan fungsi yang digunakan untuk merubah atribut pada struct\r\n    ///   beef seperti datePack. Hal ini dilakukan untuk mengetahui tanggal daging dipacking.\r\n    /// @param _id Merupakan id dari beef yang akan dipacking. id tidak boleh 0.\r\n    /// @param _epox Merupakan tanggal yang dikonversikan menjadi integer.\r\n    function packingBeef(uint256 _id, uint256 _epox) public onlyButcher {\r\n        address slaughter = beefApproval[_id - 1];\r\n        require(\r\n            slaughter == msg.sender,\r\n            \"Rumah Pemotongan Hewan tidak dapat melakukan aksi.\"\r\n        );\r\n\r\n        Beef storage _beef = beefs[_id - 1];\r\n\r\n        require(\r\n            _beef.ante == true,\r\n            \"Antemortem ditolak, sehingga tidak bisa dilanjutkan\"\r\n        );\r\n\r\n        require(\r\n            _beef.post == true,\r\n            \"Postmortem ditolak, sehingga tidak bisa dilanjutkan\"\r\n        );\r\n\r\n        _beef.datePack = _epox;\r\n        _beef.timeUpdated = block.number;\r\n\r\n        // Merubah state livestock menjadi beef.\r\n        uint256 lsId = _beef.lsId;\r\n\r\n        Livestock storage _ls = livestocks[lsId - 1];\r\n        uint256 x = _ls.stateCount;\r\n        livestockStates[lsId - 1][x] = State.beef;\r\n        _ls.stateCount++;\r\n\r\n        emit StateToBeef(\r\n            lsId,\r\n            msg.sender,\r\n            \"State hewan ternak dirubah menjadi beef\"\r\n        );\r\n\r\n        emit PackBeef(\r\n            _id,\r\n            _beef.lsId,\r\n            _beef.slaughterHouse,\r\n            \"Telah dilakukan pembungkusan daging.\"\r\n        );\r\n    }\r\n\r\n    /// @dev slaughtering Digunakan untuk merubah status dari hewan ternak dari true\r\n    ///   menjadi false, atau dari hidup menjadi mati.\r\n    /// @param _id merupakan id dari beef.\r\n    function slaughtering(uint256 _id) public onlyButcher {\r\n        address slaughter = beefApproval[_id - 1];\r\n        require(\r\n            slaughter == msg.sender,\r\n            \"Rumah Pemotongan Hewan tidak dapat melakukan aksi.\"\r\n        );\r\n\r\n        Beef storage _beef = beefs[_id - 1];\r\n\r\n        require(\r\n            _beef.ante == true,\r\n            \"Antemortem ditolak, sehingga tidak bisa dilanjutkan\"\r\n        );\r\n\r\n        uint256 _lsId = _beef.lsId;\r\n\r\n        Livestock storage _ls = livestocks[_lsId - 1];\r\n        _ls.status = false;\r\n\r\n        emit livestockStatus(\r\n            _id,\r\n            msg.sender,\r\n            false,\r\n            \"Status hewan ternak telah diubah.\"\r\n        );\r\n    }\r\n}\r\n",
  "sourcePath": "C:/Users/monsu/Documents/belajar/bc-trace/contracts/LivestockTrace.sol",
  "compiler": {
    "name": "solc",
    "version": "0.6.12+commit.27d51765.Emscripten.clang"
  },
  "schemaVersion": "3.2.3",
  "updatedAt": "2021-08-30T07:05:39.990Z",
  "networkType": "ethereum",
  "devdoc": {
    "details": "Mengontrol pemrosesan sapi menjadi daging",
    "kind": "dev",
    "methods": {
      "changeState(uint256,address)": {
        "details": "changeState dugunakan untuk merubah sate dari livetock apakah pada   state farmer (0), stocker (1), dan butcher (2). State tersebut tergantung   dari role yang dimiliki oleh address.",
        "params": {
          "_id": "merupakan id livestok yang akan diubah.",
          "_to": "merupakan address owner dari livestock tersebut."
        }
      },
      "changeStatus(uint256)": {
        "details": "changeStatus Digunakan untuk merubah status dari hewan ternak dari true   menjadi false, atau dari hidup menjadi mati.",
        "params": {
          "_id": "merupakan id dari hewan ternak."
        }
      },
      "checkAntemortem(uint256,uint256,bool,string)": {
        "details": "checkAntemortem merupakan fungsi yang digunakan untuk merubah atribut pada struct   beef seperti ante dan dateAnte, sehingga dapat diketahui, sapi diterima atau tidak.",
        "params": {
          "_approval": "Merupakan input dari user apakah setuju atau tidak.",
          "_desc": "Merupakan deskripsi yang dimasukkan oleh user jika menolak sapi.",
          "_epox": "Merupakan tanggal yang dikonversikan menjadi integer.",
          "_id": "Merupakan id dari beef yang akan dipotong. id tidak boleh 0."
        }
      },
      "checkPostmortem(uint256,uint256,bool,string)": {
        "details": "checkPostmortem Merupakan fungsi yang digunakan untuk merubah atribut pada struct   beef seperti post dan datePost, sehingga dapat diketahui, daging yang dipotong sehat.",
        "params": {
          "_approval": "Merupakan input dari user apakah setuju atau tidak.",
          "_desc": "Merupakan deskripsi yang dimasukkan oleh user jika terdapat penyakit.",
          "_epox": "Merupakan tanggal yang dikonversikan menjadi integer.",
          "_id": "Merupakan id dari beef yang akan dipotong. id tidak boleh 0."
        }
      },
      "getFarmLS(address)": {
        "details": "getFarmLS digunakan utnuk mecari id livestock yang telah disimpan   didalam array int lsId. uint256[] memory diperlukan untuk memanggil array.",
        "params": {
          "_from": "merupakan address yang ingin diketahui livestocknya.",
          "_ls": "merupakan retruns yang akan diberikan berupa array."
        }
      },
      "packingBeef(uint256,uint256)": {
        "details": "packingBeef Merupakan fungsi yang digunakan untuk merubah atribut pada struct   beef seperti datePack. Hal ini dilakukan untuk mengetahui tanggal daging dipacking.",
        "params": {
          "_epox": "Merupakan tanggal yang dikonversikan menjadi integer.",
          "_id": "Merupakan id dari beef yang akan dipacking. id tidak boleh 0."
        }
      },
      "registerBeef(uint256,address)": {
        "details": "registerBeef merupakan fungsi yang diugnakan untuk menambah livestock yang   akan diubah menjadi beef.",
        "params": {
          "_id": "digunakan untuk mengetahui livestok yang akan diubah.",
          "_to": "digunakan untuk mengetahui tempat pemotongan livetock."
        }
      },
      "slaughtering(uint256)": {
        "details": "slaughtering Digunakan untuk merubah status dari hewan ternak dari true   menjadi false, atau dari hidup menjadi mati.",
        "params": {
          "_id": "merupakan id dari beef."
        }
      }
    },
    "stateVariables": {
      "beefApproval": {
        "details": "Sebagai penunjuk apakah beef disetujui atau tidak oleh RPH."
      },
      "beefCount": {
        "details": "Untuk mengetahui total semua livestock yang akan dijadikan beef;"
      },
      "beefs": {
        "details": "Menyimpan strtuct Beef sebagai data apakah livestock tersebut akan dijadikan daging."
      }
    },
    "title": "SlaughterManager",
    "version": 1
  },
  "userdoc": {
    "kind": "user",
    "methods": {},
    "version": 1
  }
}