{
  "contractName": "UserManager",
  "abi": [
    {
      "inputs": [],
      "stateMutability": "nonpayable",
      "type": "constructor"
    },
    {
      "inputs": [],
      "name": "admin",
      "outputs": [
        {
          "internalType": "address",
          "name": "",
          "type": "address"
        }
      ],
      "stateMutability": "view",
      "type": "function"
    },
    {
      "inputs": [
        {
          "internalType": "address",
          "name": "",
          "type": "address"
        }
      ],
      "name": "users",
      "outputs": [
        {
          "internalType": "address",
          "name": "userAddress",
          "type": "address"
        },
        {
          "internalType": "string",
          "name": "name",
          "type": "string"
        },
        {
          "internalType": "enum UserManager.Role",
          "name": "role",
          "type": "uint8"
        },
        {
          "internalType": "uint256",
          "name": "timeUpdated",
          "type": "uint256"
        },
        {
          "internalType": "uint256",
          "name": "timeCreated",
          "type": "uint256"
        },
        {
          "internalType": "bool",
          "name": "active",
          "type": "bool"
        }
      ],
      "stateMutability": "view",
      "type": "function"
    },
    {
      "inputs": [
        {
          "internalType": "address",
          "name": "_address",
          "type": "address"
        },
        {
          "internalType": "string",
          "name": "_name",
          "type": "string"
        },
        {
          "internalType": "uint8",
          "name": "_role",
          "type": "uint8"
        }
      ],
      "name": "registerUser",
      "outputs": [],
      "stateMutability": "nonpayable",
      "type": "function"
    },
    {
      "inputs": [
        {
          "internalType": "address",
          "name": "_address",
          "type": "address"
        }
      ],
      "name": "getRole",
      "outputs": [
        {
          "internalType": "uint8",
          "name": "",
          "type": "uint8"
        }
      ],
      "stateMutability": "view",
      "type": "function"
    },
    {
      "inputs": [],
      "name": "checkRole",
      "outputs": [
        {
          "internalType": "uint256",
          "name": "",
          "type": "uint256"
        }
      ],
      "stateMutability": "view",
      "type": "function"
    },
    {
      "inputs": [
        {
          "internalType": "address",
          "name": "_address",
          "type": "address"
        }
      ],
      "name": "checkUser",
      "outputs": [
        {
          "internalType": "bool",
          "name": "",
          "type": "bool"
        }
      ],
      "stateMutability": "view",
      "type": "function"
    },
    {
      "inputs": [
        {
          "internalType": "address",
          "name": "_address",
          "type": "address"
        }
      ],
      "name": "isAdmin",
      "outputs": [
        {
          "internalType": "bool",
          "name": "",
          "type": "bool"
        }
      ],
      "stateMutability": "view",
      "type": "function"
    }
  ],
  "bytecode": "0x608060405234801561001057600080fd5b50600080546001600160a01b0319163317905561063e806100326000396000f3fe608060405234801561001057600080fd5b506004361061007d5760003560e01c8063442767331161005b57806344276733146100fc57806381efad2414610138578063a87430ba146101f5578063f851a440146102cc5761007d565b80630482aa82146100825780631e9d48cf1461009c57806324d7806c146100d6575b600080fd5b61008a6102f0565b60408051918252519081900360200190f35b6100c2600480360360208110156100b257600080fd5b50356001600160a01b0316610303565b604080519115158252519081900360200190f35b6100c2600480360360208110156100ec57600080fd5b50356001600160a01b0316610324565b6101226004803603602081101561011257600080fd5b50356001600160a01b031661034a565b6040805160ff9092168252519081900360200190f35b6101f36004803603606081101561014e57600080fd5b6001600160a01b03823516919081019060408101602082013564010000000081111561017957600080fd5b82018360208201111561018b57600080fd5b803590602001918460018302840111640100000000831117156101ad57600080fd5b91908080601f0160208091040260200160405190810160405280939291908181526020018383808284376000920191909152509295505050903560ff1691506103749050565b005b61021b6004803603602081101561020b57600080fd5b50356001600160a01b0316610494565b60405180876001600160a01b031681526020018060200186600381111561023e57fe5b81526020018581526020018481526020018315158152602001828103825287818151815260200191508051906020019080838360005b8381101561028c578181015183820152602001610274565b50505050905090810190601f1680156102b95780820380516001836020036101000a031916815260200191505b5097505050505050505060405180910390f35b6102d4610566565b604080516001600160a01b039092168252519081900360200190f35b60006102fb3361034a565b60ff16905090565b6001600160a01b031660009081526001602052604090206005015460ff1690565b600080546001600160a01b03838116911614610341576000610344565b60015b92915050565b6001600160a01b03811660009081526001602052604081206002015460ff16600381111561034457fe5b6001600160a01b0383166000908152600160205260409020600581015460ff161561039e57600080fd5b6040518060c00160405280856001600160a01b031681526020018481526020018360ff1660038111156103cd57fe5b60038111156103d857fe5b8152436020808301829052604080840192909252600160609093018390526001600160a01b03888116600090815284835292909220845181546001600160a01b0319169316929092178255838101518051929361043d93908501929190910190610575565b50604082015160028201805460ff1916600183600381111561045b57fe5b0217905550606082015160038201556080820151600482015560a0909101516005909101805460ff191691151591909117905550505050565b600160208181526000928352604092839020805481840180548651600261010097831615979097026000190190911695909504601f81018590048502860185019096528585526001600160a01b039091169491939290919083018282801561053d5780601f106105125761010080835404028352916020019161053d565b820191906000526020600020905b81548152906001019060200180831161052057829003601f168201915b505050600284015460038501546004860154600590960154949560ff9283169591945092501686565b6000546001600160a01b031681565b828054600181600116156101000203166002900490600052602060002090601f016020900481019282601f106105b657805160ff19168380011785556105e3565b828001600101855582156105e3579182015b828111156105e35782518255916020019190600101906105c8565b506105ef9291506105f3565b5090565b5b808211156105ef57600081556001016105f456fea264697066735822122035a6fa48031d5b8ea142135e88966e946347059f3a0d8f8be5885181025a1b6c64736f6c634300060c0033",
  "immutableReferences": {},
  "source": "// SPDX-License-Identifier: GPL-3.0\r\n\r\npragma solidity >=0.5.0 <0.7.0;\r\n\r\n/**\r\n * @title UserManager\r\n * @dev Mengontrol role dari user\r\n */\r\ncontract UserManager {\r\n    address public admin;\r\n\r\n    enum Role {\r\n        farmer,\r\n        stocker,\r\n        butcher,\r\n        retailer\r\n    }\r\n\r\n    struct User {\r\n        address userAddress;\r\n        string name;\r\n        Role role;\r\n        uint256 timeUpdated;\r\n        uint256 timeCreated;\r\n        bool active;\r\n    }\r\n\r\n    mapping(address => User) public users;\r\n\r\n    constructor() public {\r\n        admin = msg.sender;\r\n    }\r\n\r\n    function registerUser(\r\n        address _address,\r\n        string memory _name,\r\n        uint8 _role\r\n    ) public {\r\n        User storage _user = users[_address];\r\n\r\n        require(!_user.active);\r\n\r\n        users[_address] = User({\r\n            userAddress: _address,\r\n            name: _name,\r\n            role: Role(_role),\r\n            timeUpdated: block.number,\r\n            timeCreated: block.number,\r\n            active: true\r\n        });\r\n    }\r\n\r\n    function getRole(address _address) public view returns (uint8) {\r\n        return uint8(users[_address].role);\r\n    }\r\n\r\n    function checkRole() public view returns (uint256) {\r\n        return getRole(msg.sender);\r\n    }\r\n\r\n    function checkUser(address _address) public view returns (bool) {\r\n        return users[_address].active;\r\n    }\r\n\r\n    function isAdmin(address _address) public view returns (bool) {\r\n        return (_address == admin) ? true : false;\r\n    }\r\n\r\n    modifier onlyFarmer() {\r\n        require(getRole(msg.sender) == 0, \"not farmer\");\r\n        _;\r\n    }\r\n\r\n    modifier onlyStocker() {\r\n        require(getRole(msg.sender) == 1, \"not stocker\");\r\n        _;\r\n    }\r\n\r\n    modifier onlyButcher() {\r\n        require(getRole(msg.sender) == 2, \"not butcher\");\r\n        _;\r\n    }\r\n}\r\n\r\n/**\r\n * @title LivestockManager\r\n * @dev Mengontrol pembuatan livestock dan distribusi\r\n */\r\ncontract LivestockManager is UserManager {\r\n    struct Cowshed {\r\n        address ownerId;\r\n        //uint256 livestockCount;\r\n        uint256[] lsId;\r\n        uint256 timeUpdated;\r\n        uint256 timeCreated;\r\n        bool status;\r\n    }\r\n\r\n    enum State {\r\n        farmer,\r\n        stocker,\r\n        butcher,\r\n        beef\r\n    }\r\n    enum Race {\r\n        bali,\r\n        madura,\r\n        brahman,\r\n        PO,\r\n        brahmanCross,\r\n        ongole,\r\n        aceh\r\n    }\r\n\r\n    struct Livestock {\r\n        uint256 farmIndex;\r\n        uint256 lsId;\r\n        uint256 fatherId;\r\n        uint256 motherId;\r\n        uint256 birthDay;\r\n        bytes32 earTag;\r\n        bool gender;\r\n        uint256 wrCount;\r\n        uint256 hrCount;\r\n        uint256 transterCount;\r\n        uint256 stateCount;\r\n        bool status;\r\n        uint256 timeUpdated;\r\n        uint256 timeCreated;\r\n    }\r\n\r\n    struct WeightRecord {\r\n        address actor;\r\n        uint256 lsId;\r\n        uint16 weight;\r\n        uint16 length;\r\n        uint16 heartGrith;\r\n        uint256 timeRecord;\r\n        uint256 timeCreated;\r\n    }\r\n\r\n    struct HealthRecord {\r\n        address actor;\r\n        uint256 lsId;\r\n        bool sick;\r\n        bytes32 description;\r\n        bytes32 action;\r\n        uint256 timeRecord;\r\n        uint256 timeCreated;\r\n    }\r\n\r\n    /// @dev Untuk mengetahui total semua hewan ternak yang terdapat pada blockchain.\r\n    uint256 public globalLSCount = 0;\r\n\r\n    /// @dev Menyimpan data struct Cowshed berdasarkan address yang dimiliki.\r\n    mapping(address => Cowshed) public cowsheds;\r\n    address[] public cowshedAddress;\r\n\r\n    /// @dev Meyimpan data scruct livestock berdarsarkan id.\r\n    mapping(uint256 => Livestock) public livestocks;\r\n\r\n    /// @dev Menyimpan data livestock dan rasnya.\r\n    mapping(uint256 => Race) public livestockRace;\r\n\r\n    /// @dev Untuk mengetahui hewan ternak dimiliki oleh owner.\r\n    mapping(uint256 => address) public livestockOwner;\r\n\r\n    /// @dev Untuk mengetahui banyaknya hewan ternak yang dimiliki oleh owner.\r\n    mapping(address => uint256) public livestockCounts;\r\n\r\n    //WeightRecord[][] public wRecords;\r\n    /// @dev Menyimpan data stuct WeightRecord atau riwayat berat badan berdasarkan\r\n    ///  id dari hewan ternak.\r\n    mapping(uint256 => mapping(uint256 => WeightRecord)) public wRecords;\r\n    //uint256 wRecordsCount;\r\n\r\n    /// @dev Menyimpan data stuct HealthRecord atau riwayat kesehatan berdasarkan\r\n    ///   id dari hewan ternak.\r\n    mapping(uint256 => mapping(uint256 => HealthRecord)) public hRecords;\r\n\r\n    /// @dev Menyimpan state dari hewan ternak berdasarkan id hewan ternak.\r\n    ///   Hal ini dgunakan untuk mengetahui tahap yang dilalui hewan ternak.\r\n    mapping(uint256 => mapping(uint256 => State)) public livestockStates;\r\n\r\n    /// @dev Menyimpan address pemilik dari hewan ternak. Sehingga ketika dipanggil\r\n    ///   riwayat pemilik dari hewan ternak dapat dilihat.\r\n    mapping(uint256 => mapping(uint256 => address)) public livestockTransfers;\r\n\r\n    event RegisterCowshed(address ownerId, string description);\r\n\r\n    event RegisterLivestock(\r\n        address ownerId,\r\n        uint256 lsId,\r\n        bool gender,\r\n        Race race,\r\n        string description\r\n    );\r\n\r\n    event AddWeight(\r\n        address ownerId,\r\n        uint256 lsId,\r\n        bool gender,\r\n        uint16 weight,\r\n        uint16 length,\r\n        uint16 heartGrith,\r\n        string description\r\n    );\r\n\r\n    event AddHealth(\r\n        address ownerId,\r\n        uint256 lsId,\r\n        bool gender,\r\n        bool sick,\r\n        string action,\r\n        string description\r\n    );\r\n\r\n    event Transfer(\r\n        uint256 lsId,\r\n        address _from,\r\n        address _to,\r\n        State state,\r\n        string description\r\n    );\r\n\r\n    event livestockStatus(\r\n        uint256 id,\r\n        address actor,\r\n        bool status,\r\n        string description\r\n    );\r\n\r\n    function registerCowshed(\r\n        address _address,\r\n        string memory _name,\r\n        uint8 _role\r\n    ) public {\r\n        registerUser(_address, _name, _role);\r\n\r\n        User storage _user = users[_address];\r\n        require(_user.active, \"Anda tidak terdaftar.\");\r\n\r\n        Cowshed storage _cowshed = cowsheds[_address];\r\n        require(!_cowshed.status, \"Kandang sudah ada.\");\r\n\r\n        cowsheds[_address].ownerId = _address;\r\n        //farms[msg.sender].livestockCount = 0;\r\n        cowsheds[_address].timeUpdated = block.number;\r\n        cowsheds[_address].timeCreated = block.number;\r\n        cowsheds[_address].status = true;\r\n\r\n        cowshedAddress.push(_address);\r\n\r\n        emit RegisterCowshed(msg.sender, \"Kandang telah ditambahkan.\");\r\n    }\r\n\r\n    function registerLivestock(\r\n        uint256 _fatherId,\r\n        uint256 _motherId,\r\n        uint256 _birthDay,\r\n        string memory _eartag,\r\n        bool _gender,\r\n        uint8 _race,\r\n        uint16 _weight,\r\n        uint16 _length,\r\n        uint16 _heartGrith,\r\n        uint256 _time\r\n    ) public onlyFarmer {\r\n        // uint256 id = livestocks.length + 1;\r\n\r\n        // Livestock memory newLivestock;\r\n        // newLivestock.lsId = id;\r\n        // newLivestock.currentFarm = msg.sender;\r\n        // newLivestock.fatherId = _fatherId;\r\n        // newLivestock.motherId = _motherId;\r\n        // newLivestock.birthDay = _birthDay;\r\n        // newLivestock.earTag = stringToBytes32(_eartag);\r\n        // newLivestock.gender = Gender(_gender);\r\n        // newLivestock.wrCount = 0;\r\n        // newLivestock.status = true;\r\n        // newLivestock.timeCreated = block.number;\r\n        // newLivestock.timeUpdated = block.number;\r\n        // livestocks.push(newLivestock);\r\n\r\n        Cowshed storage _cowshed = cowsheds[msg.sender];\r\n        require(_cowshed.status == true, \"Tidak memiliki kandang\");\r\n\r\n        uint256 newId = globalLSCount + 1;\r\n\r\n        livestocks[globalLSCount].lsId = newId;\r\n        livestocks[globalLSCount].fatherId = _fatherId;\r\n        livestocks[globalLSCount].motherId = _motherId;\r\n        livestocks[globalLSCount].birthDay = _birthDay;\r\n        livestocks[globalLSCount].earTag = stringToBytes32(_eartag);\r\n        livestocks[globalLSCount].gender = _gender;\r\n        livestocks[globalLSCount].transterCount = 1;\r\n        livestocks[globalLSCount].status = true;\r\n        livestocks[globalLSCount].timeCreated = block.number;\r\n        livestocks[globalLSCount].timeUpdated = block.number;\r\n        livestocks[globalLSCount].farmIndex = cowsheds[msg.sender].lsId.length;\r\n\r\n        //_farm.livestockCount++;\r\n        _cowshed.lsId.push(newId);\r\n\r\n        livestockCounts[msg.sender]++;\r\n        livestockOwner[globalLSCount] = msg.sender;\r\n        livestockTransfers[globalLSCount][0] = msg.sender;\r\n        livestockRace[globalLSCount] = Race(_race);\r\n\r\n        changeState(newId, msg.sender);\r\n\r\n        registerWRecord(newId, _weight, _length, _heartGrith, _time);\r\n\r\n        globalLSCount++;\r\n\r\n        emit RegisterLivestock(\r\n            msg.sender,\r\n            newId,\r\n            _gender,\r\n            Race(_race),\r\n            \"Sapi berhasil ditambahkan.\"\r\n        );\r\n    }\r\n\r\n    function registerWRecord(\r\n        uint256 _lsId,\r\n        uint16 _weight,\r\n        uint16 _length,\r\n        uint16 _heartGrith,\r\n        uint256 _time\r\n    ) public {\r\n        /*WeightRecord memory newWRecord;\r\n        \r\n        newWRecord.lsId = _lsId;\r\n        newWRecord.weight = _weight;\r\n        newWRecord.length = _length;\r\n        newWRecord.height = _height;\r\n        newWRecord.latest = true;\r\n        newWRecord.timeCreated = block.number;\r\n        newWRecord.timeUpdated = block.number;\r\n        \r\n        wRecords.push(newWRecord);*/\r\n\r\n        //wRecordsCount++;\r\n\r\n        //Livestock storage ls = livestocks[_lsId - 1];\r\n\r\n        //wRecords[wRecordsCount] = WeightRecord(wRecordsCount, _lsId, _weight, _length, _height, block.number, block.number);\r\n\r\n        address owner = livestockOwner[_lsId - 1];\r\n\r\n        require(owner == msg.sender, \"Bukan pemilik\");\r\n\r\n        uint256 x = livestocks[_lsId - 1].wrCount;\r\n        wRecords[_lsId - 1][x] = WeightRecord({\r\n            actor: msg.sender,\r\n            lsId: _lsId,\r\n            weight: _weight,\r\n            length: _length,\r\n            heartGrith: _heartGrith,\r\n            timeRecord: _time,\r\n            timeCreated: block.number\r\n        });\r\n\r\n        Livestock storage _livestock = livestocks[_lsId - 1];\r\n\r\n        _livestock.wrCount++;\r\n        _livestock.timeUpdated = block.number;\r\n\r\n        emit AddWeight(\r\n            msg.sender,\r\n            _lsId,\r\n            _livestock.gender,\r\n            _weight,\r\n            _length,\r\n            _heartGrith,\r\n            \"Riwayat berat badan sapi berhasil ditambahkan.\"\r\n        );\r\n    }\r\n\r\n    function registerHRecord(\r\n        uint256 _lsId,\r\n        string memory _description,\r\n        string memory _action,\r\n        uint256 _time,\r\n        bool _sick\r\n    ) public {\r\n        /*WeightRecord memory newWRecord;\r\n        \r\n        newWRecord.lsId = _lsId;\r\n        newWRecord.weight = _weight;\r\n        newWRecord.length = _length;\r\n        newWRecord.height = _height;\r\n        newWRecord.latest = true;\r\n        newWRecord.timeCreated = block.number;\r\n        newWRecord.timeUpdated = block.number;\r\n        \r\n        wRecords.push(newWRecord);*/\r\n\r\n        //wRecordsCount++;\r\n\r\n        //Livestock storage ls = livestocks[_lsId - 1];\r\n\r\n        //wRecords[wRecordsCount] = WeightRecord(wRecordsCount, _lsId, _weight, _length, _height, block.number, block.number);\r\n\r\n        address owner = livestockOwner[_lsId - 1];\r\n\r\n        require(owner == msg.sender, \"Bukan pemilik\");\r\n\r\n        uint256 x = livestocks[_lsId - 1].hrCount;\r\n        hRecords[_lsId - 1][x] = HealthRecord({\r\n            actor: msg.sender,\r\n            lsId: _lsId,\r\n            sick: _sick,\r\n            description: stringToBytes32(_description),\r\n            action: stringToBytes32(_action),\r\n            timeRecord: _time,\r\n            timeCreated: block.number\r\n        });\r\n\r\n        Livestock storage _livestock = livestocks[_lsId - 1];\r\n\r\n        _livestock.wrCount++;\r\n        _livestock.timeUpdated = block.number;\r\n\r\n        emit AddHealth(\r\n            msg.sender,\r\n            _lsId,\r\n            _livestock.gender,\r\n            _sick,\r\n            _action,\r\n            \"Riwayat berat badan sapi berhasil ditambahkan.\"\r\n        );\r\n    }\r\n\r\n    //function getWeightRecord(uint256 _lsid)\r\n\r\n    function getLivestock(uint256 _id)\r\n        public\r\n        view\r\n        returns (\r\n            uint256 _lsId,\r\n            uint256 _fatherId,\r\n            uint256 _motherId,\r\n            uint256 _birthDay,\r\n            bytes32 _eartag,\r\n            bool _gender,\r\n            bool _status,\r\n            Race _race,\r\n            uint256 _timeUpdated,\r\n            uint256 _timeCreated\r\n        )\r\n    {\r\n        Livestock storage ls = livestocks[_id - 1];\r\n\r\n        _lsId = ls.lsId;\r\n        _fatherId = ls.fatherId;\r\n        _motherId = ls.motherId;\r\n        _birthDay = ls.birthDay;\r\n        _eartag = ls.earTag;\r\n        _gender = ls.gender;\r\n        _race = livestockRace[_id - 1];\r\n        _status = ls.status;\r\n        _timeUpdated = ls.timeUpdated;\r\n        _timeCreated = ls.timeCreated;\r\n    }\r\n\r\n    function getLastWR(uint256 _id)\r\n        public\r\n        view\r\n        returns (\r\n            uint256 _lsId,\r\n            uint16 _weight,\r\n            uint16 _length,\r\n            uint16 _heartGrith,\r\n            uint256 _timeCreated\r\n        )\r\n    {\r\n        uint256 x = livestocks[_id - 1].wrCount;\r\n\r\n        WeightRecord storage wr = wRecords[_id - 1][x - 1];\r\n        _lsId = wr.lsId;\r\n        _weight = wr.weight;\r\n        _length = wr.length;\r\n        _heartGrith = wr.heartGrith;\r\n        _timeCreated = wr.timeCreated;\r\n    }\r\n\r\n    /// @dev getFarmLS digunakan utnuk mecari id livestock yang telah disimpan\r\n    ///   didalam array int lsId. uint256[] memory diperlukan untuk memanggil array.\r\n    /// @param _from merupakan address yang ingin diketahui livestocknya.\r\n    /// @param _ls merupakan retruns yang akan diberikan berupa array.\r\n    function getFarmLS(address _from)\r\n        public\r\n        view\r\n        returns (uint256[] memory _ls)\r\n    {\r\n        Cowshed storage _cowshed = cowsheds[_from];\r\n        _ls = _cowshed.lsId;\r\n    }\r\n\r\n    function excludeRPH(address _address) internal view {\r\n        User storage _user = users[_address];\r\n        require(_user.role != Role(2), \"Alamat salah.\");\r\n    }\r\n\r\n    function transfer(\r\n        uint256 _id,\r\n        address _from,\r\n        address _to\r\n    ) public {\r\n        address owner = livestockOwner[_id - 1];\r\n\r\n        require(owner == msg.sender, \"Bukan pemilik.\");\r\n\r\n        // Tambah transferCount yang terdapat di id livestock yang akan ditransfer.\r\n        uint256 x = livestocks[_id - 1].transterCount;\r\n        livestockTransfers[_id - 1][x] = _to;\r\n\r\n        // Deklarasi livestock untuk diambil index sebelum dihapus.\r\n        Livestock storage _ls = livestocks[_id - 1];\r\n        uint256 index = _ls.farmIndex;\r\n        // Check apakah hewan ternak masih ada atau tidak.\r\n        require(_ls.status, \"Tidak terdapat hewan ternak.\");\r\n\r\n        // Deklarasi _add untuk peternakan yang ingin ditambahkan hewan ternak.\r\n        Cowshed storage _add = cowsheds[_to];\r\n        require(_add.status, \"Tidak ada kandang\");\r\n\r\n        // Deklarasi _remove untuk peternakan yang ingin dikurangi hewan ternaknya.\r\n        Cowshed storage _remove = cowsheds[_from];\r\n        require(_remove.status, \"Tidak ada kandang\");\r\n\r\n        // Alamat yang dituju tidak boleh alamat RPH\r\n        excludeRPH(_to);\r\n\r\n        // Tambah hewan ternak pada address yang dituju.\r\n\r\n        // Ubah farmIndex pada hewan ternak berdasarkan ukuran lsId peternakan.\r\n        _ls.farmIndex = _add.lsId.length;\r\n        // Menambah transferCount untuk iterasi livestockTransfers.\r\n        _ls.transterCount++;\r\n        // Push lsId peternakan dengan id hewan ternak yang ditambahkan.\r\n        _add.lsId.push(_id);\r\n        // Menambahkan kepemilikan hewan ternak yang dimiliki oleh peternak.\r\n        livestockCounts[_to]++;\r\n        // Merubah pemilik hewan ternak ke pemilik yang baru.\r\n        livestockOwner[_id - 1] = _to;\r\n\r\n        // Merubah state hewan ternak sesuai dengan role pemilik.\r\n        changeState(_id, _to);\r\n\r\n        // Kurangi hewan ternak pada address semula.\r\n\r\n        // Memindah isi dari index dengan index terakhir.\r\n        _remove.lsId[index] = _remove.lsId[_remove.lsId.length - 1];\r\n        // Menghapus array di index terakhir.\r\n        _remove.lsId.pop();\r\n        // mengurangi kepemilikan hewan ternak yang dimiliki oleh peternak.\r\n        livestockCounts[_from]--;\r\n\r\n        emit Transfer(\r\n            _id,\r\n            _from,\r\n            _to,\r\n            State(livestockStates[_id - 1][_ls.stateCount]),\r\n            \"Hewan ternak berhasil di transfer\"\r\n        );\r\n    }\r\n\r\n    /// @dev changeState dugunakan untuk merubah sate dari livetock apakah pada\r\n    ///   state farmer (0), stocker (1), dan butcher (2). State tersebut tergantung\r\n    ///   dari role yang dimiliki oleh address.\r\n    /// @param _id merupakan id livestok yang akan diubah.\r\n    /// @param _to merupakan address owner dari livestock tersebut.\r\n    function changeState(uint256 _id, address _to) public {\r\n        Livestock storage _ls = livestocks[_id - 1];\r\n        uint256 x = _ls.stateCount;\r\n\r\n        uint8 role = getRole(_to);\r\n\r\n        State _state;\r\n\r\n        if (role == 0) {\r\n            _state = State(0);\r\n        } else if (role == 1) {\r\n            _state = State(1);\r\n        } else if (role == 2) {\r\n            _state = State(2);\r\n        }\r\n\r\n        livestockStates[_id - 1][x] = _state;\r\n\r\n        _ls.stateCount++;\r\n    }\r\n\r\n    /// @dev changeStatus Digunakan untuk merubah status dari hewan ternak dari true\r\n    ///   menjadi false, atau dari hidup menjadi mati.\r\n    /// @param _id merupakan id dari hewan ternak.\r\n    function changeStatus(uint256 _id) public onlyFarmer {\r\n        address owner = livestockOwner[_id - 1];\r\n\r\n        require(owner == msg.sender, \"Bukan pemilik.\");\r\n\r\n        Livestock storage _ls = livestocks[_id - 1];\r\n        _ls.status = false;\r\n\r\n        emit livestockStatus(\r\n            _id,\r\n            msg.sender,\r\n            false,\r\n            \"Status hewan ternak telah diubah.\"\r\n        );\r\n    }\r\n\r\n    function stringToBytes32(string memory source)\r\n        public\r\n        pure\r\n        returns (bytes32 result)\r\n    {\r\n        bytes memory tempEmptyStringTest = bytes(source);\r\n        if (tempEmptyStringTest.length == 0) {\r\n            return 0x0;\r\n        }\r\n\r\n        assembly {\r\n            result := mload(add(source, 32))\r\n        }\r\n    }\r\n\r\n    function bytes32ToString(bytes32 _bytes32)\r\n        public\r\n        pure\r\n        returns (string memory)\r\n    {\r\n        uint8 i = 0;\r\n        while (i < 32 && _bytes32[i] != 0) {\r\n            i++;\r\n        }\r\n        bytes memory bytesArray = new bytes(i);\r\n        for (i = 0; i < 32 && _bytes32[i] != 0; i++) {\r\n            bytesArray[i] = _bytes32[i];\r\n        }\r\n        return string(bytesArray);\r\n    }\r\n}\r\n\r\n/**\r\n * @title SlaughterManager\r\n * @dev Mengontrol pemrosesan sapi menjadi daging\r\n */\r\ncontract SlaughterManager is LivestockManager {\r\n    struct Beef {\r\n        uint256 beefId;\r\n        uint256 lsId;\r\n        uint256 dateAnte;\r\n        uint256 datePost;\r\n        uint256 datePack;\r\n        bool ante;\r\n        bool post;\r\n        address slaughterHouse;\r\n        bytes32 desc;\r\n        uint256 timeCreated;\r\n        uint256 timeUpdated;\r\n    }\r\n\r\n    /// @dev Untuk mengetahui total semua livestock yang akan dijadikan beef;\r\n    uint256 public beefCount = 0;\r\n\r\n    /// @dev Menyimpan strtuct Beef sebagai data apakah livestock tersebut akan dijadikan daging.\r\n    mapping(uint256 => Beef) public beefs;\r\n\r\n    /// @dev Sebagai penunjuk apakah beef disetujui atau tidak oleh RPH.\r\n    mapping(uint256 => address) public beefApproval;\r\n\r\n    mapping(address => mapping(uint256 => uint256)) public beefAprroveds;\r\n    mapping(address => uint256) public approveCount;\r\n\r\n    mapping(address => mapping(uint256 => uint256)) public beefDenieds;\r\n    mapping(address => uint256) public deniedCount;\r\n\r\n    event RegisterBeef(\r\n        address ownerId,\r\n        address butcher,\r\n        uint256 lsId,\r\n        uint256 beefId,\r\n        string description\r\n    );\r\n\r\n    event Antemortem(\r\n        uint256 beefId,\r\n        uint256 lsId,\r\n        address butcher,\r\n        bool approved,\r\n        string description\r\n    );\r\n\r\n    event Postmortem(\r\n        uint256 beefId,\r\n        uint256 lsId,\r\n        address butcher,\r\n        bool approved,\r\n        string description\r\n    );\r\n\r\n    event PackBeef(\r\n        uint256 beefId,\r\n        uint256 lsId,\r\n        address butcher,\r\n        string description\r\n    );\r\n\r\n    event StateToBeef(uint256 lsId, address butcher, string description);\r\n\r\n    /// @dev registerBeef merupakan fungsi yang diugnakan untuk menambah livestock yang\r\n    ///   akan diubah menjadi beef.\r\n    /// @param _id digunakan untuk mengetahui livestok yang akan diubah.\r\n    /// @param _to digunakan untuk mengetahui tempat pemotongan livetock.\r\n    function registerBeef(uint256 _id, address _to) public onlyStocker {\r\n        address owner = livestockOwner[_id - 1];\r\n        require(owner == msg.sender, \"Bukan pemilik.\");\r\n\r\n        User storage _user = users[_to];\r\n        require(_user.role == Role(2), \"Alamat RPH salah.\");\r\n\r\n        Livestock storage _ls = livestocks[_id - 1];\r\n        require(_ls.status, \"Hewan ternak tidak ada\");\r\n\r\n        uint256 newId = beefCount + 1;\r\n\r\n        beefs[beefCount].beefId = newId;\r\n        beefs[beefCount].lsId = _id;\r\n        beefs[beefCount].slaughterHouse = _to;\r\n        beefs[beefCount].timeCreated = block.number;\r\n        beefs[beefCount].timeUpdated = block.number;\r\n\r\n        beefApproval[beefCount] = _to;\r\n\r\n        emit RegisterBeef(\r\n            livestockOwner[_id - 1],\r\n            _to,\r\n            _id,\r\n            newId,\r\n            \"Pembuatan beef berhasil ditambahkan.\"\r\n        );\r\n    }\r\n\r\n    /// @dev checkAntemortem merupakan fungsi yang digunakan untuk merubah atribut pada struct\r\n    ///   beef seperti ante dan dateAnte, sehingga dapat diketahui, sapi diterima atau tidak.\r\n    /// @param _id Merupakan id dari beef yang akan dipotong. id tidak boleh 0.\r\n    /// @param _epox Merupakan tanggal yang dikonversikan menjadi integer.\r\n    /// @param _approval Merupakan input dari user apakah setuju atau tidak.\r\n    /// @param _desc Merupakan deskripsi yang dimasukkan oleh user jika menolak sapi.\r\n    function checkAntemortem(\r\n        uint256 _id,\r\n        uint256 _epox,\r\n        bool _approval,\r\n        string memory _desc\r\n    ) public onlyButcher {\r\n        address slaughter = beefApproval[_id - 1];\r\n        require(\r\n            slaughter == msg.sender,\r\n            \"Rumah Pemotongan Hewan tidak dapat melakukan aksi.\"\r\n        );\r\n\r\n        Beef storage _beef = beefs[_id - 1];\r\n        _beef.dateAnte = _epox;\r\n\r\n        if (_approval == true) {\r\n            _beef.ante = true;\r\n\r\n            // Merubah state livestock menjadi butcher.\r\n            uint256 lsId = _beef.lsId;\r\n\r\n            Livestock storage _ls = livestocks[lsId - 1];\r\n            uint256 x = _ls.stateCount;\r\n            livestockStates[lsId - 1][x] = State.butcher;\r\n            _ls.stateCount++;\r\n        } else {\r\n            _beef.ante = false;\r\n            _beef.desc = stringToBytes32(_desc);\r\n\r\n            beefDenieds[msg.sender][deniedCount[msg.sender]] = _id;\r\n            deniedCount[msg.sender]++;\r\n        }\r\n\r\n        _beef.timeUpdated = block.number;\r\n\r\n        emit Antemortem(\r\n            _id,\r\n            _beef.lsId,\r\n            _beef.slaughterHouse,\r\n            _approval,\r\n            \"Telah dilakukan pemeriksaan antemortem.\"\r\n        );\r\n    }\r\n\r\n    /// @dev checkPostmortem Merupakan fungsi yang digunakan untuk merubah atribut pada struct\r\n    ///   beef seperti post dan datePost, sehingga dapat diketahui, daging yang dipotong sehat.\r\n    /// @param _id Merupakan id dari beef yang akan dipotong. id tidak boleh 0.\r\n    /// @param _epox Merupakan tanggal yang dikonversikan menjadi integer.\r\n    /// @param _approval Merupakan input dari user apakah setuju atau tidak.\r\n    /// @param _desc Merupakan deskripsi yang dimasukkan oleh user jika terdapat penyakit.\r\n    function checkPostmortem(\r\n        uint256 _id,\r\n        uint256 _epox,\r\n        bool _approval,\r\n        string memory _desc\r\n    ) public onlyButcher {\r\n        address slaughter = beefApproval[_id - 1];\r\n        require(\r\n            slaughter == msg.sender,\r\n            \"Rumah Pemotongan Hewan tidak dapat melakukan aksi.\"\r\n        );\r\n\r\n        Beef storage _beef = beefs[_id - 1];\r\n\r\n        require(\r\n            _beef.ante == true,\r\n            \"Antemortem ditolak, sehingga tidak bisa dilanjutkan\"\r\n        );\r\n\r\n        _beef.datePost = _epox;\r\n\r\n        slaughtering(_id);\r\n\r\n        if (_approval == true) {\r\n            _beef.post = true;\r\n\r\n            beefAprroveds[msg.sender][approveCount[msg.sender]] = _id;\r\n            approveCount[msg.sender]++;\r\n        } else {\r\n            _beef.post = false;\r\n            _beef.desc = stringToBytes32(_desc);\r\n\r\n            beefDenieds[msg.sender][deniedCount[msg.sender]] = _id;\r\n            deniedCount[msg.sender]++;\r\n        }\r\n\r\n        _beef.timeUpdated = block.number;\r\n\r\n        emit Postmortem(\r\n            _id,\r\n            _beef.lsId,\r\n            _beef.slaughterHouse,\r\n            _approval,\r\n            \"Telah dilakukan pemeriksaan postmortem.\"\r\n        );\r\n    }\r\n\r\n    /// @dev packingBeef Merupakan fungsi yang digunakan untuk merubah atribut pada struct\r\n    ///   beef seperti datePack. Hal ini dilakukan untuk mengetahui tanggal daging dipacking.\r\n    /// @param _id Merupakan id dari beef yang akan dipacking. id tidak boleh 0.\r\n    /// @param _epox Merupakan tanggal yang dikonversikan menjadi integer.\r\n    function packingBeef(uint256 _id, uint256 _epox) public onlyButcher {\r\n        address slaughter = beefApproval[_id - 1];\r\n        require(\r\n            slaughter == msg.sender,\r\n            \"Rumah Pemotongan Hewan tidak dapat melakukan aksi.\"\r\n        );\r\n\r\n        Beef storage _beef = beefs[_id - 1];\r\n\r\n        require(\r\n            _beef.ante == true,\r\n            \"Antemortem ditolak, sehingga tidak bisa dilanjutkan\"\r\n        );\r\n\r\n        require(\r\n            _beef.post == true,\r\n            \"Postmortem ditolak, sehingga tidak bisa dilanjutkan\"\r\n        );\r\n\r\n        _beef.datePack = _epox;\r\n        _beef.timeUpdated = block.number;\r\n\r\n        // Merubah state livestock menjadi beef.\r\n        uint256 lsId = _beef.lsId;\r\n\r\n        Livestock storage _ls = livestocks[lsId - 1];\r\n        uint256 x = _ls.stateCount;\r\n        livestockStates[lsId - 1][x] = State.beef;\r\n        _ls.stateCount++;\r\n\r\n        emit StateToBeef(\r\n            lsId,\r\n            msg.sender,\r\n            \"State hewan ternak dirubah menjadi beef\"\r\n        );\r\n\r\n        emit PackBeef(\r\n            _id,\r\n            _beef.lsId,\r\n            _beef.slaughterHouse,\r\n            \"Telah dilakukan pembungkusan daging.\"\r\n        );\r\n    }\r\n\r\n    /// @dev slaughtering Digunakan untuk merubah status dari hewan ternak dari true\r\n    ///   menjadi false, atau dari hidup menjadi mati.\r\n    /// @param _id merupakan id dari beef.\r\n    function slaughtering(uint256 _id) public onlyButcher {\r\n        address slaughter = beefApproval[_id - 1];\r\n        require(\r\n            slaughter == msg.sender,\r\n            \"Rumah Pemotongan Hewan tidak dapat melakukan aksi.\"\r\n        );\r\n\r\n        Beef storage _beef = beefs[_id - 1];\r\n\r\n        require(\r\n            _beef.ante == true,\r\n            \"Antemortem ditolak, sehingga tidak bisa dilanjutkan\"\r\n        );\r\n\r\n        uint256 _lsId = _beef.lsId;\r\n\r\n        Livestock storage _ls = livestocks[_lsId - 1];\r\n        _ls.status = false;\r\n\r\n        emit livestockStatus(\r\n            _id,\r\n            msg.sender,\r\n            false,\r\n            \"Status hewan ternak telah diubah.\"\r\n        );\r\n    }\r\n}\r\n",
  "sourcePath": "C:/Users/monsu/Documents/belajar/bc-trace/contracts/LivestockTrace.sol",
  "compiler": {
    "name": "solc",
    "version": "0.6.12+commit.27d51765.Emscripten.clang"
  },
  "schemaVersion": "3.2.3",
  "updatedAt": "2021-09-06T09:15:47.415Z",
  "devdoc": {
    "details": "Mengontrol role dari user",
    "kind": "dev",
    "methods": {},
    "title": "UserManager",
    "version": 1
  },
  "userdoc": {
    "kind": "user",
    "methods": {},
    "version": 1
  }
}